:020000040800F2
:100000000020002041170008851700088517000808
:1000100000000000000000000000000000000000E0
:10002000000000000000000000000000851700082C
:10003000000000000000000095270008A929000822
:100040008517000885170008851700088517000820
:100050008517000885170008851700088517000810
:100060008517000885170008851700088517000800
:1000700085170008851700088517000885170008F0
:100080008517000885170008000000008517000884
:1000900085170008851700088517000885170008D0
:1000A00085170008851700088517000885170008C0
:1000B00085170008000000008517000800000000F8
:1000C0005FF808F180B582B000AF021CFB1D1A700A
:1000D000C046104B181C022101F0D2FE031C002B5D
:1000E000F7D00C4AFB1D1B78101C191C01F07EFE7A
:1000F000C046084B181C012101F0C2FE031C002B56
:10010000F7D0044B181C01F087FE031C181CBD46D9
:1001100002B080BD0038004090B585B000AF0A1C29
:10012000FB1D011C1970BB1D1A70194A80235B014D
:10013000101C191C01F08AFFBB1D1B781A1C1F2301
:100140001340DAB2FB1D1B781343DBB2DBB2181C81
:10015000FFF7B8FFBB1D1B785BB2002B02DAFF2054
:10016000FFF7B0FF3C1C0F34FF20FFF7ABFF031C71
:100170002370074A80235B01101C191C01F058FFF3
:100180003B1C0F331B78181CBD4605B090BDC04604
:100190000004004880B582B000AFFB1D1870BB1D85
:1001A00019707B1D1A70124A80235B01101C191CE8
:1001B00001F04CFFBB1D1B781A1C1F231340DAB241
:1001C000FB1D1B781343DBB2DBB2181CFFF77AFF71
:1001D0007B1D1B78181CFFF775FF054A80235B0108
:1001E000101C191C01F024FFBD4602B080BDC046A2
:1001F0000004004880B582B000AF104A80235B0144
:10020000101C191C01F022FFFF20FFF75BFF0B4AB7
:1002100080235B01101C191C01F00AFF084B00220F
:100220001A7000237B6002E07B6801337B607A6890
:10023000044B9A42F8D9BD4602B080BD0004004884
:10024000200000201F4E000080B584B000AF021CCB
:10025000FB1D1A70FB1D1A781F2313401A2B22DC7A
:10026000FB1D1B785B09D9B23B1C0F3303220A40EC
:100270001A700E4B1B78DBB23A1C0F3212789A427E
:1002800011D0A0201F210322FFF784FF3B1C0F3356
:100290001B7880201F211A1CFFF77CFF034B3A1CA0
:1002A0000F3212781A70BD4604B080BD20000020C5
:1002B00080B582B000AF021CFB1D1A70FB1D1B78BD
:1002C000181CFFF7C1FFFB1D1B780020191CFFF74E
:1002D00023FF031C181CBD4602B080BD90B583B03F
:1002E00000AF021CFB1D1A70FB1D1B78181CFFF7CA
:1002F000ABFFFB1D1B780020191CFFF70DFF031C33
:100300001C1CFB1D1B780133DBB20020191CFFF7FE
:1003100003FF031C1B029BB2221C13439BB29BB224
:10032000181CBD4603B090BD80B582B000AF0A1C5A
:10033000FB1D011C1970BB1D1A70FB1D1B78181CBE
:10034000FFF782FFFB1D1A78BB1D1B784020111C94
:100350001A1CFFF71FFFBD4602B080BD80B582B0FA
:1003600000AF0A1CFB1D011C19703B1D1A80FB1DF0
:100370001B78181CFFF768FF3B1D1B88DBB2FA1DBA
:1003800012784020111C1A1CFFF704FFFB1D1B787C
:100390000133DAB23B1D1B881B0A9BB2DBB2402043
:1003A000111C1A1CFFF7F6FEBD4602B080BDC04608
:1003B00080B582B000AF0A1CFB1D011C1970BB1D6B
:1003C0001A70FB1D1B78181CFFF73EFFFB1D1A78E7
:1003D000BB1D1B78A020111C1A1CFFF7DBFEBD46BD
:1003E00002B080BD80B582B000AF0A1CFB1D011CAD
:1003F0001970BB1D1A70FB1D1B78181CFFF724FF1A
:10040000FB1D1A78BB1D1B788020111C1A1CFFF7DE
:10041000C1FEBD4602B080BD80B582B000AF78603D
:100420000A1CBB1C1A80154A80235B01101C191C76
:1004300001F00CFE3A20FFF745FE09E0FF20FFF730
:1004400041FE031C1A1C7B681A707B6801337B60B9
:10045000BB1C1B885A1E9341DBB2BA1CB91C09880D
:1004600001391180002BE9D1044A80235B01101C63
:10047000191C01F0DDFDBD4602B080BD000400483E
:1004800080B582B000AF78600A1CBB1C1A80144A89
:1004900080235B01101C191C01F0D8FD7A20FFF7A6
:1004A00011FE07E07B681B787A6801327A60181CBD
:1004B000FFF708FEBB1C1B885A1E9341DBB2BA1C17
:1004C000B91C098801391180002BEBD1044A802323
:1004D0005B01101C191C01F0ABFDBD4602B080BDD4
:1004E0000004004880B582B000AF0A1CFB1D011C4F
:1004F00019703B1D1A80FB1D1B78D420191CFFF7B7
:1005000013FF3B1D1B88D620191CFFF727FFC04691
:10051000EA20FFF7CDFE031C1A1C01231340F7D17C
:10052000BD4602B080BDC04680B58AB000AF7860DD
:100530008023DB02181C012100F0E8FB8023DB0193
:10054000181C012100F000FC3B1C0C3380225201DE
:100550001A603B1C0C3301221A713B1C0C33032222
:100560005A713B1C0C3300229A713B1C0C33012244
:10057000DA71934A3B1C0C33101C191C01F0A4FCCB
:100580003B1C0C33802292011A603B1C0C3302226C
:100590001A713B1C0C3303225A713B1C0C33002292
:1005A0009A713B1C0C330122DA71854A3B1C0C33D7
:1005B000101C191C01F088FC3B1C0C338022120219
:1005C0001A603B1C0C3302221A713B1C0C330322B1
:1005D0005A713B1C0C3300229A713B1C0C330122D4
:1005E000DA71774A3B1C0C33101C191C01F06CFCAF
:1005F0003B1C0C338022D2011A603B1C0C330222BC
:100600001A713B1C0C3303225A713B1C0C33002221
:100610009A713B1C0C330122DA71694A3B1C0C3382
:10062000101C191C01F050FC654B181C0D210022F8
:1006300001F01AFD624B181C0F21002201F014FD7D
:100640005F4B181C0E21002201F00EFD3B1C1433E1
:1006500000221A803B1C1433822252005A803B1C19
:100660001433E022D2009A803B1C14330022DA803B
:100670003B1C143300221A813B1C1433802292004D
:100680005A813B1C143310229A813B1C14330022E4
:10069000DA813B1C143307221A824A4A3B1C14336A
:1006A000101C191C01F0E2FA464A80235B01101C61
:1006B000191C01F07DFB434B181C002101F0BEFB0F
:1006C000404B181C012101F053FB3D4A80235B0184
:1006D000101C191C01F0ACFCFFF78CFD0820002158
:1006E000FFF73CFE0820FFF7F9FD0C200021FFF783
:1006F00035FE354B0A20191CFFF730FE334B002224
:100700001A80C0200D21FFF70FFEC1200021FFF746
:100710000BFEC2203321FFF707FE2D4BCA20191C08
:10072000FFF71CFEC4201521FFF7FEFDC620122195
:10073000FFF7FAFDC7200C21FFF7F6FD7B681B7859
:10074000E420191CFFF7F0FD7B6801331B78E520DE
:10075000191CFFF7E9FD7B6802331B78E220191CA6
:10076000FFF7E2FD7B6803331B78E320191CFFF7DA
:10077000DBFD7B6804331B78E020191CFFF7D4FDF8
:100780007B6805331B78E120191CFFF7CDFD802322
:100790005B000020191CFFF7A5FE80235B001020E2
:1007A000191CFFF79FFE0B4B1420191CFFF79AFE34
:1007B0001F200421FFF716FEBD460AB080BDC046CB
:1007C0000004004800380040FF190000220000200B
:1007D000DC0500007604000080B582B000AF7860D0
:1007E0000A1CBB1C1A800FE01C20FFF761FD031CD4
:1007F0001A1C0223134007D01F208021FFF7F2FDAF
:100800001F208021FFF7D4FD1F20FFF751FD031C9F
:100810001A1C08231340E7D1D0235B010220191CC6
:10082000FFF79CFD114B181C0121FFF729FE7A6888
:10083000BB1C1B88101C191CFFF722FED0235B0178
:100840000420191CFFF78AFDBB1C1B88D022520113
:100850009B189BB20620191CFFF780FD1F20082162
:10086000FFF7C0FDBD4602B080BDC0464845000848
:1008700080B584B000AF78600A1CBB1C1A803B1C9A
:100880000E3300221A803920FFF712FD031C002BC3
:100890004ED02B4B1B889BB20020191CFFF75EFD2E
:1008A000274B181C0221FFF7B7FD3B1C0A33181C0D
:1008B0000221FFF7B1FD3B1C0833181C0221FFF792
:1008C000ABFD3B1C08331B881A1C802313401AD035
:1008D0003B1C0A331A883B1C0E33043A1A803A1C1C
:1008E0000E32BB1C12881B889A4204D93B1C0E3363
:1008F000BA1C12881A807A683B1C0E331B88101CA5
:10090000191CFFF789FD0E4B1B889BB2013B9AB265
:100910003B1C0C33D204D20C1A803B1C0C331B88BA
:100920000C20191CFFF71AFD1E204021FFF75AFD6D
:100930003B1C0E331B88181CBD4604B080BDC0464E
:100940002200002080B588B000AF80239B02181CD5
:10095000012100F0DBF980239B02181C012100F02B
:10096000F3F99023DB05181C0E21012201F07CFB1A
:100970009023DB05181C0F21012201F075FB3B1CA5
:10098000C02212021A603B1C03225A713B1C022235
:100990001A713B1C00229A713B1C0122DA719023D0
:1009A000DA053B1C101C191C01F08EFA3B1C0833A5
:1009B000962292011A603B1C083300225A603B1CAD
:1009C000083300229A603B1C08330022DA603B1C8B
:1009D000083300225A613B1C08330C221A61074A73
:1009E0003B1C0833101C191C01F0BCFD034B181CE8
:1009F000012101F067FEBD4608B080BD0044004003
:100A000080B582B000AF021CBB1D1A80C046094BE6
:100A1000181C802101F086FE031C002BF7D0054A2C
:100A2000BB1D1B88101C191C01F06AFEBD4602B0DC
:100A300080BDC0460044004080B500AF0F4B1B781E
:100A4000DBB2012B10D10E4B1B78012B01D100F032
:100A50004DFB0C4B1B78DBB2012B01D100F06AFA85
:100A6000064B00221A7006E0044B1B78DBB2013BF8
:100A7000DAB2024B1A70BD4680BDC0462500002088
:100A8000840100202600002080B500AF154B164AD7
:100A90001A60164B07221A60154B154A1268FF217F
:100AA00009060A431A60134B124A126812490A4394
:100AB0001A6000F067F901F077FC104B1B78DBB28D
:100AC0000133DAB20D4B1A700D49CA235A010D4B8E
:100AD000081C002100F0B2FA0A4B181C01F04CFE71
:100AE000BD4680BD14E000E0FF52070010E000E0CA
:100AF0001CED00E020ED00E00000FFFF25000020DD
:100B0000093F00084801002080B500AF094B0A4AA0
:100B10001A60084B1A68094B1A60064B1B680122C1
:100B20005A71044B1B68181C00F0C2F9FFF784FFD0
:100B3000BD4680BD5801002028000020540100203F
:100B400080B588B000AF78600023FB610023BB61F3
:100B500000237B6100233B610023FB60654B5A68E7
:100B60000C231340FB61FB69042B07D0082B09D031
:100B7000002B30D17B68604A1A6030E07B685E4AA7
:100B80001A602CE05B4B5A68F0239B031340BB6157
:100B9000584B5A6880235B0213407B61BB699B0CF6
:100BA0000233BB617B69002B05D1BB69534A5A43B1
:100BB0007B681A6013E04F4BDA6A0F23134001334E
:100BC0003B614D48396903F047FA031CBA695A433F
:100BD0007B681A6003E07B68474A1A60C046454B51
:100BE0005A68F0231340FB61FB691B09FB61444A0F
:100BF000FB69D3181B78DBB2FB607B681A68FB6863
:100C0000DA407B685A603B4B5A68E023DB001340B4
:100C1000FB61FB691B0AFB61394AFB69D3181B782E
:100C2000DBB2FB607B685A68FB68DA407B689A60DD
:100C3000304B1A6B80235B00134003D17B68314A31
:100C4000DA6010E02B4B5A688023DB01134005D19A
:100C50007B689B685A087B68DA6004E07B689B6865
:100C60009A087B68DA60234B1A6B4023134003D148
:100C70007B68254A1A6103E07B68802212021A61B0
:100C80001C4B1A6B1023134003D17B681A4A5A611C
:100C900003E07B681A687B685A61164B1A6B032362
:100CA000134004D17B689A687B689A611EE0114BFF
:100CB0001A6B03231340012B04D17B681A687B68ED
:100CC0009A6113E00B4B1A6B03231340022B04D1E0
:100CD0007B68802212029A6108E0064B1A6B03239C
:100CE0001340032B02D17B68034A9A61BD4608B0CA
:100CF00080BDC0460010024000127A0000093D008D
:100D000000000020809FD5001280000080B582B0D6
:100D100000AF78600A1CFB1C1A70FB1C1B78002BB0
:100D200006D0084B074A51697A680A435A6106E0BF
:100D3000044B044A52697968C9430A405A61BD4666
:100D400002B080BD0010024080B582B000AF786074
:100D50000A1CFB1C1A70FB1C1B78002B06D0084BCE
:100D6000074AD1697A680A43DA6106E0044B044A0B
:100D7000D2697968C9430A40DA61BD4602B080BDD4
:100D80000010024080B584B000AF1A4BBB601A4B14
:100D90007B603B1C0F3300221A7017E0BB683A1CC3
:100DA0000F3212789A71BB6803225A71BB687A6855
:100DB0009A61BB682033BB607B6820337B603B1C3F
:100DC0000F333A1C0F32127801321A703B1C0F336A
:100DD0001B78042BE2D9BB683A1C0F3212789A7147
:100DE000BB6800229A61054B024A1A60BD4604B0F6
:100DF00080BDC04628000020480000204C01002093
:100E000080B586B000AF78603B1C0F337A681279EA
:100E10001A707B6800225A71234B1B683B613B6947
:100E2000002B06D1214B01221A701F4B7A681A60E1
:100E300037E03B691B793A1C0F3212789A420CD288
:100E40001A4B01221A707B683A699A613B697A6889
:100E5000DA61154B7A681A6023E03B699B697B6114
:100E60000BE07B691B793A1C0F3212789A4208D347
:100E70007B693B617B699B697B617B69002BF0D15E
:100E800000E0C0467B687A699A613B697A689A613A
:100E90007B683A69DA617B69002B02D07B697A68EA
:100EA000DA61BD4606B080BD50010020260000205A
:100EB00080B582B000AF78607B689B69002B07D15A
:100EC0007B68DB69002B03D1194B00221A602BE0F1
:100ED0007B68DB69002B0BD17B689A69144B1A6025
:100EE0007B6800229A61124B1B680022DA611BE0CA
:100EF0007B689B69002B07D17B68DB6900229A61C4
:100F00007B680022DA610FE07B68DB697A689269AE
:100F10009A617B689B697A68D269DA617B68002292
:100F20009A617B680022DA61BD4602B080BDC0468E
:100F30005001002080B584B000AF274B1B68FB60D8
:100F4000264B1B68BB60BB68002B3FD0244B1B6843
:100F5000FA689A423AD1234B1B78DBB2012B35D881
:100F6000214B1B78DBB2002B30D1204B00221A70B2
:100F7000FB1DFA6812791A70BB1DBA6812791A70D3
:100F8000FB685B79012B0AD0154BBA681A60BB6805
:100F900001225A71BB68181CFFF78AFF13E0BA1DC3
:100FA000FB1D12781B789A4212D20D4BBA681A6058
:100FB000FB68181CFFF724FFBB68181CFFF778FFBD
:100FC000BB6801225A7101F0DBFB02E0C04600E081
:100FD000C046BD4604B080BD58010020500100202D
:100FE00054010020250000202400002026000020BD
:100FF00080B582B000AF0F4B1B78DBB20133DAB2A1
:101000000C4B1A700C4B1B68002B03D1FFF714FD1F
:1010100000230AE0084B1B687B60074B1B689A693A
:10102000054B1A60FFF708FD7B68181CBD4602B02F
:1010300080BDC046250000204C01002080B588B04E
:1010400000AFF860B9607A603B603B1C1F337A6880
:101050001A70F968BA683B68081C111C1A1C01F068
:101060007BFC031CBB61FFF7C3FF031C7B617B6937
:10107000002B01D1FF2333E07B69BA691A607B69D9
:101080003A1C1F3212781A717B69012252425A614E
:101090007B6900229A617B690022DA617B69FF2209
:1010A000DA717B6900229A607B690022DA607B69D1
:1010B00000221A617B68002B0DDB0B4B1B78DBB227
:1010C0000133DAB2084B1A707B69181CFFF798FEDF
:1010D000FFF7B2FC02E07B6902225A717B699B79BF
:1010E000181CBD4608B080BD2500002080B582B028
:1010F00000AF244B1B78012B30D101F009F9214BB3
:1011000000221A702AE001F031FB1F4B5B781A1C99
:101110003B1C1D48D100042241188A1803CA03C38E
:10112000194B5B780133181C032103F039F80B1CB1
:10113000DAB2154B5A70144B1B78013BDAB2124BE2
:101140001A7001F00DFB3B1C1B78012B05D13B1CD9
:101150005B78181C02F0A8FE01E000E0C0460A4BD4
:101160001B78002BCFD101F001FB074B1B78002B24
:1011700002D1064B00221A7001F0F2FABD4602B00D
:1011800080BDC04685010020680100208401002048
:1011900080B584B000AFF860B960BB1D1A80FB68F1
:1011A000BA681A60FB68BA1D12889A80BD4604B0FE
:1011B00080BDC04690B585B000AF0C1CF91D0C7009
:1011C0001EE00168146824780C703C1C0F34097808
:1011D00021701168013111600168013101601988C5
:1011E000013989B219808188013989B281803C1C1A
:1011F0000F34F91D247809788C4201D1022324E0B0
:101200008188002902D019880029DAD1198800299B
:1012100016D1002319E01068391C0F3100780870CE
:101220001988013989B21980116801311160381C9F
:101230000F30F91D00780978884202D1032304E0B9
:10124000C04619880029E6D10123181CBD4605B007
:1012500090BDC04698B500AF041C2023E35C062B6C
:1012600005D1124B1B781A1C0423134019D0228A73
:101270000F4B1B685B8A9A4208D962680C4B1B684B
:101280005B8A101C191C02F0EDFD05E06268238AE0
:10129000101C191C02F0E6FD20230622E254012353
:1012A00000E00023181CBD4698BDC0467006002013
:1012B0007806002080B500AF031C20229A5C062A25
:1012C00024D1144A1278111C01220A401ED0198A16
:1012D000114A1268528A91420DD9198A0E4A12682F
:1012E000528A8A1A92B21A8259680B4A1268528A32
:1012F0008A185A6005E059681A8A8A185A600022CA
:101300001A82202201219954012300E00023181C95
:10131000BD4680BD7006002078060020B0B584B0C0
:1013200000AF041C79603A603B1C0F3301221A7035
:101330006388002B02D0CF2B12D026E03B68002B15
:1013400003D100236380012326E07B6863603B6850
:101350009BB2238220230022E25410E0CF2363803B
:10136000201CFFF7A7FF031C1D1C201CFFF772FFAA
:10137000031C2B40DBB2002B01D100230CE0238A9D
:10138000002BEBD120230022E2543B1C0F33002220
:101390001A70002363800223181CBD4604B0B0BD40
:1013A00080B582B000AF78607B68DB699AB27B68F9
:1013B0001B8BD31A9BB2181CBD4602B080BDC04621
:1013C00080B582B000AF78607B685B8A002B01D06B
:1013D000012313E07A682023D35C022B05D17A68BD
:1013E00020230321D154002308E0064B1B781A1C4C
:1013F0000223134001D0012300E00023181CBD4646
:1014000002B080BD7006002090B585B000AF041C0E
:101410000A1CFB1D1A703B1C0F3301221A706388D3
:10142000002B03D0254A93420FD03BE0211C1431FE
:10143000E268E3699BB2081C111C1A1CFFF7A8FEA6
:10144000638A002B12D11D4B6380201CFFF7B8FF6D
:10145000031C002B01D100232BE020230222E254A5
:10146000174B1B68A360174B1B886382201C14302A
:10147000221C0832231C1233F91D0978FFF79AFE4B
:10148000031C1A1C02231340DAD0201CFFF788FF2C
:10149000031C002B06D120230022E254002363808A
:1014A000002306E03B1C0F3300221A7000236380E8
:1014B0000223181CBD4605B090BDC0461B010000AC
:1014C000740600206406002090B583B000AF041CB1
:1014D00079603A6020230022E254002363827B6813
:1014E000E3603B68E361211C14313B689BB27A687E
:1014F000081C111C1A1CFFF74BFE0023238000233D
:101500006380BD4603B090BD80B582B000AF80233C
:10151000DB02181C0121FFF7F9FB3B1C181C00F033
:101520006FFD3B1C8022D2001A603B1C01221A7105
:101530003B1C01225A71094A3B1C101C191C00F06B
:10154000C3FC3B1C802212011A60044A3B1C101C85
:10155000191C00F0B9FCBD4602B080BD0004004873
:1015600080B500AF00F00CF8FCE7C04680B500AFD6
:10157000C120FFF745FA102000F092FEF8E7C046C0
:1015800098B500AF204AD2235B00101C191CFFF74E
:101590006FF9031C1A1C1D4B1A801C4B1B88002B57
:1015A00030D0194B9C8980231B01181C02F044FC8D
:1015B000031C9C4210D1012001F006FC134B1B8838
:1015C000002B1FD000F052FA104B1B880E4A101C43
:1015D000191CFFF701F915E00B4B9C890C4B181CEB
:1015E00002F02AFC031C9C420CD100F0A9F9074B25
:1015F0001B88002B06D0054B1B88034A101C191CA6
:10160000FFF7EAF8BD4698BD2419002064060020C3
:101610000608000080B584B000AF3A1C08323C4B8D
:10162000111C1A1C0623081C111C1A1C02F0C4FDF4
:10163000FFF76AFFFFF786F93B1C0833181CFEF71B
:1016400073FF01F02BFB00F09FF802F063FC3B1CE2
:1016500008331A782F4B1A703B1C08335A782D4BDD
:101660005A703B1C08339A782A4B9A703B1C0833FB
:10167000DA78284BDA703B1C08331A79254B1A713B
:101680003B1C08335A79234B5A713B1D224A1A805E
:101690003B1D224A5A803B1D1A88214B1A80BB1DD4
:1016A0001A881F4B5A803B1D1B4A1A803B1D802203
:1016B00052005A803B1D1A881A4B1A80BB1D1A888B
:1016C000184B5A803B1D012252421A803B1DFF22BB
:1016D0005A803B1D1A88144B1A80BB1D1A88124B66
:1016E0005A80C020FFF78CF9FFF7CEF90F49104A56
:1016F000104B081C0021FFF7A1FC0F4980231A02A0
:101700000E4B081C0021FFF799FCFFF7FDF9FEE7DF
:101710004C45000850020020C0A8FFFF00C8FFFF92
:1017200020190020EC1800201C1900206115000869
:1017300001800000600600206D1500086004002094
:10174000002103E00A4B5B584350043109480A4B1F
:1017500042189A42F6D3094A02E000231360043289
:10176000074B9A42F9D301F041F8FFF753FF704756
:10177000D4450008000000201C00002020000020AC
:10178000CC1A0020FEE7000080B500AF0E4B00220F
:101790001A7013E00C4B1B781A1C131C5B009B186F
:1017A0009B000A4A9B18181C0021042202F0A6FD87
:1017B000054B1B780133DAB2034B1A70024B1B78CE
:1017C000072BE7D9BD4680BDEC0100208801002031
:1017D00090B583B000AF78603960544B00221A7026
:1017E0002AE0524B1B781A1C131C5B009B189B00B1
:1017F0004F4A9C182388002B18D06388002B15D0E3
:101800007B681A8823889A4210D17B6802331A8831
:1018100063889A420AD1221D3B68101C191C0622BB
:1018200002F0CAFC434B1B78A3727BE03F4B1B7852
:101830000133DAB23D4B1A703C4B1B78072BD0D9E1
:101840003A4B00221A7014E0384B1B781A1C131CF8
:101850005B009B189B00364A9C182388002B02D102
:101860006388002B0AD0314B1B780133DAB22F4B3F
:101870001A702E4B1B78072BE6D900E0C0462B4B85
:101880001B78082B3DD12C4B00221A702B4B0022C9
:101890001A70264B00221A7022E0244B1B781A1C67
:1018A000131C5B009B189B00214A9C18214B1B7842
:1018B0001A1CA37AD21A204B1B789A420ADD1D4BC0
:1018C0001A78A37AD31ADAB21B4B1A70174B1A780C
:1018D0001A4B1A70154B1B780133DAB2134B1A707E
:1018E000124B1B78072BD8D9144B1A780F4B1A7050
:1018F0000E4B1B781A1C131C5B009B189B000C4A98
:101900009C18221C7B68101C191C042202F054FC39
:10191000221D3B68101C191C062202F04DFC054BD1
:101920001B78A372BD4603B090BDC046EC010020F9
:1019300088010020EE010020EF010020ED010020D1
:1019400080B500AF404B1B88292B03D83E4B0022AB
:101950001A8076E03C4B00221A803C4B9B8A802206
:101960005200934204D080229200934252D067E00A
:10197000374B1A88374B1B889A425ED1364B1A88F0
:10198000344B5B889A4258D1344A354B101C191C91
:10199000FFF71EFF2D4B802292009A82314A304B76
:1019A000101C191C062202F007FC284916222E4B97
:1019B00089181A1C0623081C111C1A1C02F0FCFBB7
:1019C00022490622284B89181A1C0623081C111CC0
:1019D0001A1C02F0F1FB1D4A224B101C191C062296
:1019E00002F0EAFB194B194A928BDA84174B174A1B
:1019F000D28B1A85154B174A12889A83134B154AB6
:101A00005288DA83114BC122D2009A810E4B2A22CE
:101A10001A8012E00E4B1A880E4B1B889A420ED188
:101A20000D4B1A880B4B5B889A4208D10B4A0C4B22
:101A3000101C191CFFF7CCFE01E0C04600E0C046B8
:101A4000C046BD4680BDC046640600202419002063
:101A50004A190020201900204C19002040190020AC
:101A60003A190020441900205002002080B582B0AD
:101A700000AF6B4B1A886B4B1B889A4210D16A4B94
:101A80001A886A4B1B889A420AD1694A694B111C11
:101A90001A1C0623081C111C1A1C02F08DFBA8E05E
:101AA0005F4B1A88644B1B8853409BB2634A128871
:101AB00013409BB2002B0BD15B4B1A885E4B5B88AB
:101AC00053409BB25D4A528813409BB2002B08D012
:101AD0005B4B1A885B4B1A80594B5A88594B5A807A
:101AE00007E04F4B1A88574B1A804F4B1A88554BBB
:101AF0005A80554B00221A701BE0534B1B781A1C5E
:101B0000131C5B009B189B00504A9B187B604D4B3D
:101B10001A887B681B889A4205D14A4B5A887B6891
:101B20005B889A420AD0484B1B780133DAB2464BA5
:101B30001A70454B1B78072BDFD900E0C046424B9B
:101B40001B78082B4DD13A4B181CFF21062202F0BE
:101B5000D5FB354B181C0021062202F0CFFB34497F
:101B600006223B4B89181A1C0623081C111C1A1C40
:101B700002F022FB2E491622354B89181A1C062327
:101B8000081C111C1A1C02F017FB324B2D4A12883C
:101B90001A80314B2B4A52881A80304B264A1288C1
:101BA0001A801F4B244A52881A80214B80225200EF
:101BB0009A821F4B80225200DA811D4B08221A8222
:101BC0001B4B06229A741A4B0422DA74184BC1225A
:101BD000D2009A81224B234A1A60234B2A221A8070
:101BE0001BE07B680433124A101C191C062202F009
:101BF000E3FA0F490622164B89181A1C0623081C03
:101C0000111C1A1C02F0D8FA094B08229A81164BB3
:101C10001B880E339AB2144B1A80BD4602B080BDA9
:101C2000421900205C450008441900205E45000868
:101C30002419002054450008201900201C190020F8
:101C4000EC180020E8010020EC01002088010020B1
:101C5000500200204A1900204C1900204019002091
:101C6000740600205A1900206406002080B584B054
:101C700000AF786039603B1C0E3300221A803B1C99
:101C80000E337A6812881A803B1C0E333A1C0E32CF
:101C90001188C12292010A401A803B681A883B6869
:101CA000DB8913439AB23B68DB8813439AB23B68E3
:101CB0001B8913439AB23B685B8913439AB23B6812
:101CC0009B89134399B23B1C0E333A1C0E32128887
:101CD0000A431A807B683A1C0E3212881A803B1C19
:101CE0000E337A6892881A803B1C0E333A1C0E32EF
:101CF00011881D4A0A401A803B6899883B1C0E33A4
:101D00003A1C0E3212880A431A807B683A1C0E3243
:101D100012889A803B681A8A7B681A823B1C0E33B1
:101D20007A6812881A803B1C0E333A1C0E321288D5
:101D300004218A431A803B6859883B1C0E333A1CA5
:101D40000E3212880A431A807B683A1C0E321288BF
:101D50001A807B689B8B9AB2044B13409AB27B68C3
:101D60009A83BD4604B080BDFFF0FFFFFFF7FFFF81
:101D700080B582B000AF78600A1CFB1C1A70FB1C97
:101D80001B78002B08D07B681B889BB24022134332
:101D90009AB27B681A8007E07B681B889BB240225E
:101DA00093439AB27B681A80BD4602B080BDC0469C
:101DB00080B582B000AF78600A1CBB1C1A807B68BB
:101DC0009B889AB2084B13409AB27B689A807B68D2
:101DD0009B889AB2BB1C1B8813439AB27B689A807B
:101DE000BD4602B080BDC046FFEFFFFF80B584B0A6
:101DF00000AF78600A1CFB1C1A700023FB607B6834
:101E0000FB60FB680C33FB60FB68FA1C12781A70ED
:101E1000BD4604B080BDC04680B584B000AF7860D8
:101E20000023FB607B68FB60FB680C33FB60FB6896
:101E30001B78DBB2181CBD4604B080BD80B582B0F3
:101E400000AF78600A1CFB1C1A70FB1C1B78002B6F
:101E500009D07B681B889BB28022920113439AB2FF
:101E60007B681A8007E07B681B889AB2034B13409B
:101E70009AB27B681A80BD4602B080BDFFDFFFFFCB
:101E800080B584B000AF78600A1CBB1C1A803B1C74
:101E90000F3300221A707B681B899BB2BA1C128810
:101EA00013409BB2002B04D03B1C0F3301221A704D
:101EB00003E03B1C0F3300221A703B1C0F331B78CE
:101EC000181CBD4604B080BD80B586B000AF7860F8
:101ED000396000237B6100233B610023FB6000230A
:101EE0007B6185E07B690122101C9840031C3B61EB
:101EF0003B681B683A691340FB60FA683B699A4289
:101F000073D13B681B79012B03D03B681B79022BF3
:101F100038D17B689B687A6952000321081C904085
:101F2000021CD2431A407B689A607B689A683B68BF
:101F30005B79191C7B695B00081C9840031C1A43E1
:101F40007B689A607B689B889BB27A6992B2012118
:101F5000081C9040021C92B2D24392B213409AB233
:101F60007B689A807B689B889AB23B689B79191C36
:101F70007B699BB2081C9840031C9BB213439AB226
:101F80007B689A807B681B687A6952000321081C71
:101F90009040021CD2431A407B681A607B681A6822
:101FA0003B681B79191C7B695B00081C9840031C6B
:101FB0001A437B681A607B68DB687A6992B25200C8
:101FC0000321081C9040021CD2431A407B68DA604F
:101FD0007B68DA683B68DB79191C7B695B00081C4D
:101FE0009840031C1A437B68DA607B6901337B618C
:101FF0007B690F2B00D875E7BD4606B080BDC04693
:1020000080B582B000AF78607B68084A1A607B6850
:1020100000221A717B6802225A717B6800229A7131
:102020007B680022DA71BD4602B080BDFFFF000070
:1020300080B582B000AF78600A1CBB1C1A80BB1C44
:102040001A887B689A61BD4602B080BD80B582B0B7
:1020500000AF78600A1CBB1C1A807B68BA1C12880F
:102060001A85BD4602B080BD90B585B000AF7860DE
:10207000BB1C19807B1C1A700023FB600023BB6013
:102080007B1C1A78BB1C198807230B409B00111C72
:1020900099400B1CFB60BB1C1B88DB089BB21A1C05
:1020A000BB1C1B88DB089BB2191C7B6808318900AC
:1020B000CB58B91C08880721014089000F20041C57
:1020C0008C40211CC94319407B6808329200D150D2
:1020D000BB1C1B88DB089BB21A1C7B680832920071
:1020E000D258FB681343BB60BB1C1B88DB089BB248
:1020F0001A1C7B6808329200B968D150BD4605B001
:1021000090BDC04680B584B000AF786039603B6850
:10211000002B65D0344B1B68002B06D17B683A68D6
:102120005A61314B7A681A6053E02F4B1B68BB60D1
:102130003B68FB604AE0FA68BB685B69D31AFB60E6
:10214000FB68002B2EDABB68DB69002B0ED0BB6866
:10215000DB697A689A61BB68DA697B68DA617B68F7
:10216000BA689A61BB687A68DA610AE01E4B1A683D
:102170007B689A611C4B1B687A68DA611A4B7A6833
:102180001A607B689B695A69FB68D2187B685A6140
:102190007B689B697A68926951697A6852698A1A80
:1021A0005A6116E0FB68002B0DDBBB689B69002BB6
:1021B00009D17B68BA68DA61BB687A689A61FA68A3
:1021C0007B685A6105E0BB689B69BB60BB68002BFC
:1021D000B1D17B6802225A71044B01221A7000E0CF
:1021E000C046BD4604B080BDF0010020260000209E
:1021F00080B582B000AF78607B68DB69002B07D1C7
:102200007B689B69002B03D1244B00221A603DE0C0
:102210007B68DB69002B14D17B689A691F4B1A60BD
:102220007B689B697A68926951697A6852698A18F1
:102230005A617B689B690022DA617B6800229A619F
:1022400024E07B689B69002B07D17B68DB69002257
:102250009A617B680022DA6118E07B68DB697A6842
:1022600092699A617B689B697A68D269DA617B6856
:102270009B697A68926951697A6852698A185A61C9
:102280007B6800229A617B680022DA617B68012208
:1022900052425A61BD4602B080BDC046F0010020E6
:1022A00080B582B000AF7860164B1B78DBB2002B94
:1022B00001D0032321E07B68013301D102231CE01C
:1022C0007B68002B01D1002317E00F4B1B78DBB29A
:1022D000002B01D0152310E00B4B1B78DBB2013330
:1022E000DAB2094B1A70094B1A687B68101C191C6A
:1022F000FFF708FFFEF7A0FB0023181CBD4602B045
:1023000080BDC04624000020250000205801002088
:1023100080B582B000AF174B1B687B601FE07B6805
:10232000DB79FF2B03D07B68181C00F0D1F87B68A9
:10233000012252425A617B689A690E4B1A607B688F
:1023400000229A617B68181CFEF75AFD094B1B6836
:102350007B607B68002B02D07B680022DA617B689F
:10236000002B03D07B685B69002BD8D0BD4602B040
:1023700080BDC046F001002080B500AF074B1B7840
:10238000DBB2012B06D9064B01221A70054B012244
:102390001A7001E0FFF7BCFFBD4680BD250000209C
:1023A000840100208501002080B584B000AF3B1C73
:1023B0000F3300221A701D4BBB601D4B7B601BE06E
:1023C000BB687A681A60BB683A1C0F3212781A71BF
:1023D000BB685A790F218A4304210A435A71BB68AA
:1023E0001033BB607B6810337B603B1C0F333A1C9F
:1023F0000F32127801321A703B1C0F331B78032BFB
:10240000DED9BB685A790F218A4304210A435A71E5
:10241000BB6800221A60BB683A1C0F3212781A712E
:10242000044B024A1A60BD4604B080BDF40100208E
:10243000040200204402002080B584B000AF786020
:102440007B68DB68FB60FB68002B3BD0FB68DA68CD
:102450007B68DA607B68DB68002B03D07B68DB6815
:1024600000221A61FB680022DA60FB68FF22DA7141
:10247000FB685B69013303D0FB68181CFFF7B8FEEB
:102480007B685A790F231340DBB2022B0CD17B6897
:102490001A68FB689A607B6800221A607B68DB8898
:1024A000013B9AB27B68DA80084B1B68FA689A4253
:1024B00003D1FB6801225A7105E0FB68181CFEF786
:1024C0009FFC00E0C046BD4604B080BD580100201E
:1024D00080B584B000AF78607B68DB791A01204B4F
:1024E000D318FB607B68DB68002B07D17B681B6916
:1024F000002B03D1FB680022DA602BE07B681B69AC
:10250000002B0BD17B68DB6800221A617B68DA68DC
:10251000FB68DA607B680022DA601BE07B68DB68BE
:10252000002B07D17B681B690022DA607B680022E0
:102530001A610FE07B681B697A68D268DA607B6891
:10254000DB687A6812691A617B6800221A617B680D
:102550000022DA607B68FF22DA71BD4604B080BDDC
:10256000F401002080B58CB000AF786039600023A2
:10257000FB620023BB6200237B627B681B68012235
:10258000191C91430A1C7B681A607B685B687B623C
:102590007A6A474B13407B623B689B687A6A1343B5
:1025A0007B627B687A6A5A607B681B687B627A6AA6
:1025B000404B13407B623B685A683B68DB681A43B8
:1025C0003B681B6913437A6A13437B627B687A6AB0
:1025D0001A607B689B687B627A6A374B13407B6228
:1025E0003B685B697A6A13437B627B687A6A9A60AC
:1025F0003B1C0833181CFEF7A3FA7A682F4B9A424B
:1026000004D13B1C08339B69BB6203E03B1C0833CD
:102610009B68BB627B681A6880231B02134014D03E
:10262000BB6A5A003B681B68101C191C01F014FDA2
:10263000031CFB62BB6A5A003B681B68101C191C18
:1026400001F04EFD0B1C7B6210E03B681B68B86A12
:10265000191C01F001FD031CFB623B681B68BA6A90
:10266000101C191C01F03CFD0B1C7B623B681B68B5
:102670005A087B6A9A4202D8FB6A0133FB627B6884
:102680001A6880231B0213400AD0FA6A0F231340F2
:102690005B087B62FA6A0A4B1A407B6A1343FB624F
:1026A000FB6A9AB27B689A81BD460CB080BDC04679
:1026B000FFCFFFFFF3E9FFFFFFFCFFFF0038014002
:1026C000F0FF000080B582B000AF78600A1CFB1CF0
:1026D0001A70FB1C1B78002B06D07B681B6801223C
:1026E0001A437B681A6007E07B681B680122191C8B
:1026F00091430A1C7B681A60BD4602B080BDC0468B
:1027000080B582B000AF78600A1CBB1C1A80BB1C6D
:102710001B88DB05DB0D9AB27B681A85BD4602B0CB
:1027200080BDC04680B584B000AF786039603B1C86
:102730000F3300221A707B68DB693A68134004D0BB
:102740003B1C0F3301221A7003E03B1C0F330022A5
:102750001A703B1C0F331B78181CBD4604B080BD9B
:1027600080B500AF62B6C046BD4680BD80B500AF43
:1027700072B6C046BD4680BD1C3880F309887047DC
:10278000024B1B68024A1168196070471000002054
:1027900014000020114B1968114A1268914216D09A
:1027A000EFF3098020380860F0C044464D46564695
:1027B0005F46F0C01A6010681030F0C8A046A94605
:1027C000B246BB462038F0C8103080F30988054B6C
:1027D00000201870044B18680047000058010020C2
:1027E00054010020250000201800002080B500AF13
:1027F0001B4B1B4A126801210A431A60184B184AE6
:102800005168184A0A405A60154B154A1168164A11
:102810000A401A60124B124A1168144A0A401A60A0
:102820000F4B0F4A5168124A0A405A600C4B0C4A2F
:10283000D26A0F218A43DA62094B094A116B0D4AA9
:102840000A401A63064B064A526B01218A435A63B7
:10285000034B00229A6000F00FF8BD4680BDC046D1
:10286000001002400CB8FFF8FFFFF6FEFFFFFBFF71
:10287000FFFFC0FFACFEFFFF80B582B000AF0023BA
:102880007B6000233B60314B304A12688021490253
:102890000A431A602D4B1A6880239B0213403B6049
:1028A0007B6801337B603B68002B04D17A68A023EE
:1028B000DB009A42EED1254B1A6880239B0213401D
:1028C00002D001233B6001E000233B603B68012B09
:1028D00038D11F4B11221A601C4B1C4A52685A6097
:1028E0001A4B1A4A52685A60184B184A5168194ACA
:1028F0000A405A60154B154A5268882149030A4319
:102900005A60124B114A1268802149040A431A6026
:10291000C0460E4B1A6880239B041340F9D00B4B22
:102920000A4A526803218A435A60084B074A526890
:1029300002210A435A60C046044B5A680C231340D4
:10294000082BF9D1BD4602B080BDC0460010024040
:1029500000200240FFFFC0FF80B586B000AFF860E6
:10296000B9607A607B687B617B69802252041A605F
:102970007B69043B7B61FA687B691A607B69043B75
:102980007B617B69022252421A607B69143B7B6146
:10299000BA687B691A607B69203B7B617B69181C84
:1029A000BD4606B080BDC04698B500AF164B1B783B
:1029B000DBB20133DAB2144B1A70144B19685A683F
:1029C000012300245B185441104A13605460104BDB
:1029D0001B68002B10D00E4B1B685B69012B05D9BF
:1029E0000B4B1B685A69013A5A6105E0084B1B689A
:1029F00000225A61FFF7C0FC064B01221A70FEF755
:102A00001BF8BD4698BDC0462500002048020020A6
:102A1000F00100202600002080B582B000AF786071
:102A20000A1CBB1C1A807B6803331A78BB1C1B88EA
:102A3000DBB2D318DAB22A4BDA707B6802331A7829
:102A4000BB1C1B881B0A9BB2DBB2D318DAB2244B27
:102A50009A707B685A78224B5A707B681A78204BA0
:102A60001A701F4B9B781A1CBB1C1B881B0A9BB23D
:102A70009A420FD21A4B5B780133DAB2184B5A7074
:102A8000174B5B78002B05D1154B1B780133DAB25D
:102A9000134B1A70124BDB781A1CBB1C1988FF23CE
:102AA0000B409A4219DA0E4B9B780133DAB20C4B89
:102AB0009A700B4B9B78002B0FD1094B5B7801333D
:102AC000DAB2074B5A70064B5B78002B05D1044BEA
:102AD0001B780133DAB2024B1A70BD4602B080BDDA
:102AE0006C06002080B586B000AF3960BB1D011CAC
:102AF00019803B1D1A803B687B613B1D1B88013B95
:102B00003A68D3183B6122E07B691B781B0299B2BB
:102B10007B6901331B781A1C3B1C0E338A181A8000
:102B2000BB1DB91D3A1C0E32098812888A181A80FA
:102B3000BA1D3B1C0E3312881B889A4204D2BB1D5F
:102B4000BA1D128801321A807B6902337B617A696F
:102B50003B699A42D8D37A693B699A421AD17B6918
:102B60001B781A1C3B1C0E3312021A80BB1DB91DA8
:102B70003A1C0E32098812888A181A80BA1D3B1C2A
:102B80000E3312881B889A4204D2BB1DBA1D1288CC
:102B900001321A80BB1D1B88181CBD4606B080BDC3
:102BA00090B583B000AFBC1D0B4B0020191C142244
:102BB000FFF798FF031C2380BB1D1B88002B06D04A
:102BC000BB1D1B88181C01F037F9031C00E0034BE8
:102BD000181CBD4603B090BD32190020FFFF000055
:102BE00090B585B000AF021CFB1D1A70224B9B787C
:102BF0001B029AB2204BDB78D3189AB23B1C0E33DF
:102C0000143A1A80FB1D1B7899B23B1C0C333A1CFA
:102C10000E3212888A181A803C1C0C343B1C0C3370
:102C20001A88164B101C191C0822FFF75BFF031CA7
:102C300023803C1C0C343B1C0C331988104A3B1C71
:102C40000E331B88081C111C1A1CFFF74BFF031CBA
:102C500023803B1C0C331B88002B07D03B1C0C3300
:102C60001B88181C01F0E8F8031C00E0054B181C39
:102C7000BD4605B090BDC046321900203E19002067
:102C800046190020FFFF000080B500AF0620FFF7C7
:102C9000A7FF031C181CBD4680BDC04680B500AF11
:102CA000194B00221A700CE0174B1B781A1C174B9B
:102CB00052000021D152144B1B780133DAB2124B6F
:102CC0001A70114B1B78272BEED90F4B00221A706C
:102CD00010E00D4B1B781A1C0D4918237420424339
:102CE0008A18D31800225A70074B1B780133DAB2C6
:102CF000054B1A70044B1B78272BEAD9054B802211
:102D0000D2001A80BD4680BD5E0200209C180020C3
:102D10007C0600205C02002080B582B000AF021C5F
:102D2000BB1D1A80104B00221A7016E00E4B1B7848
:102D30001A1C0E4B5200D35A002B08D10A4B1B7899
:102D40001A1C0A4B5200B91D0988D15209E0064BE2
:102D50001B780133DAB2044B1A70034B1B78272B14
:102D6000E4D9BD4602B080BD5E0200209C18002060
:102D700080B582B000AF021CBB1D1A80104B1B68CF
:102D80001A1C0832BB1D1B88101C191CFFF744FEBF
:102D90000B4B1B680B4A12781A72094B1B68094AC5
:102DA00052785A72064B1B68064A92789A72044B04
:102DB0001B68044AD278DA72BD4602B080BDC046B4
:102DC000780600206C06002090B585B000AF021C8C
:102DD000FB1D1A70D14B1C68D14BD24A1A60D04BE4
:102DE0001A68D14B1A60FB1D1B78032B13D1637E2D
:102DF0001A1C0F231340032B01D000F0EBFF238A92
:102E0000002B01D000F0E6FFC84B08221A7001F039
:102E10008BF800F03BFEFB1D1B78022B00D0A5E0D9
:102E2000C34BDB780133DAB2C14BDA70C04BDB78CD
:102E3000002B19D1BE4B9B780133DAB2BC4B9A7090
:102E4000BB4B9B78002B0FD1B94B5B780133DAB2C7
:102E5000B74B5A70B64B5B78002B05D1B44B1B783F
:102E60000133DAB2B24B1A70B24B00221A80B24B65
:102E700000221A80637E072B02D0637E052B09D1C6
:102E8000A37E0133DBB2A376A37E782B6CD1002323
:102E9000637669E0637E002B01D100F09DFF238AF9
:102EA000002B52D0A37E5A425A41D2B2013BDBB230
:102EB000A376002A01D100F08FFFE37E082B08D013
:102EC000637E022B02D0637E012B0FD1E37E052BA4
:102ED0000CD100236376954B80221A7001F024F800
:102EE000964A21231421D15400F0CDFEE37E042B19
:102EF00006D8E37E0322111C99400B1CDBB200E0D4
:102F00003023A376E37E0133DBB2E3768C4BDB8C9C
:102F100001339AB28A4BDA84637E1A1C0F23134062
:102F2000082B01D900F058FF9A00864BD3181B6874
:102F30009F46824A21230021D15424E37B4B042263
:102F40001A7000F0F1FF00F0E5FD637E1A1C0F23FC
:102F50001340032B01D000F03FFF744B08221A707E
:102F600000F0E2FF00F092FD00F036FF744B5B884A
:102F700001339AB2724B5A80704B1B78452B0DD09F
:102F80006F4B1B8801339AB26D4B1A806C4BDB88F8
:102F900001339AB26A4BDA8000F02FFF674B9B78BF
:102FA0001A02664BDB78D218624B1B889A4201DD0D
:102FB00000F014FF614B9B781B029AB25F4BDB78E9
:102FC000D3189AB25B4B1A805C4B9B791A1C3F2337
:102FD000134003D1594BDB79002B0DD0584B1B8884
:102FE00001339AB2564B1A80554B9B8901339AB2E2
:102FF000534B9A8100F001FF534B1A88534B1B88A7
:103000009A4205D1504B5A88514B1B889A4213D093
:10301000504B1A884C4B1B889A4205D14E4B1A884C
:10302000494B5B889A4207D0454B1B8801339AB2C3
:10303000434B1A8000F0E1FEFFF7B2FD031C1A1C9F
:10304000464B9A420DD03E4B1B8801339AB23C4B03
:103050001A803B4BDB8901339AB2394BDA8100F09D
:10306000CCFE364B5B7A062B00D17FE0334B5B7A8C
:10307000012B0DD0324B1B8801339AB2304B1A8092
:103080002F4B1B8A01339AB22D4B1A8200F0B5FEEA
:103090002B4B9B8A01339AB2294B9A82274B1B7D7B
:1030A000082B0DD0264B5B8A01339AB2244B5A82EF
:1030B000234B1B8B01339AB2214B1A8300F09DFEE8
:1030C0001E4B00221A751D4BDA8A254B9A4206D9EF
:1030D0001A4B1A4AD28A093292B2DA8205E0174BA9
:1030E000164AD28A083292B2DA821A4B1D4A1288E4
:1030F0001A80194B1C4A12881A801A4B124A1288DD
:103100001A80194B104A52881A800D4BDB8A013302
:103110009AB20B4BDA8200F053FEC04678060020CC
:10312000740600205A19002068060020700600204E
:103130005802002064060020CA1A0020321900201C
:10314000F018002068450008201900206445000898
:10315000664500084219002044190020FFFF0000C6
:10316000F6FF00003E19002040190020C046CA4B5F
:103170009B8B01339AB2C84B9A83FFF785FD031CE2
:103180001A1CC64B9A420DD0C34B5B8B01339AB2CB
:10319000C14B5A83C04B1B8C01339AB2BE4B1A846D
:1031A00000F02BFEBE4C18E0637E002B14D0BD4B0C
:1031B000DA8AA3889A420FD1BA4B9A8AE3889A4254
:1031C0000AD1B94B1A8823889A4205D1B74B1A887D
:1031D00063889A4200D1F8E17434B54B9C42E3D93C
:1031E000B04A2123D35C1A1C3F231340022B23D166
:1031F000AC4BDA8AAF4B1A80AF4B00221A7010E04A
:10320000AD4B1B781A1CAD4B5200D25AA94B1B88F0
:103210009A4200D196E0A84B1B780133DAB2A64B54
:103220001A70A54B1B78272BEAD99B4B5B8D01337A
:103230009AB2994B5A8500E0C0469A4A2123D35C42
:103240001A1C0423134001D000F0CAFD924B9B8C42
:1032500001339AB2904B9A84924A21231421D1547B
:10326000974B28221A808F4A20235021D1548D4B0E
:10327000DA7E914B1A708B4B8A4AD27FDA76894B71
:103280008D4A1278DA77874B9A7E8B4B1A70854B72
:10329000844A927F9A76834B874A12789A77814B39
:1032A0005A7E854B1A707F4B7E4A527F5A767D4BF1
:1032B000814A12785A777B4B1A7E7F4B1A70794B72
:1032C000784A127F1A76774B7B4A12781A77754BB9
:1032D000DA7F0132D2B2DA77DB7F002B14D1714B67
:1032E0009A7F0132D2B29A779B7F002B0CD16D4B23
:1032F0005A7F0132D2B25A775B7F002B04D1694BDF
:103300001A7F0132D2B21A77664B9A8A694B1A80B9
:10331000644B644AD28A9A82624B664A1288DA8285
:10332000684B614A12881A80674B604A12881A807B
:103330005D4B664A12881A805C4B644A52881A8038
:1033400000F0EEFCC04600245B4B00221A7039E00E
:10335000594B1B781A1C52491823742042438A186F
:10336000D3185B78002B06D1534B1B7874225A4339
:103370004B4BD4182AE0504B1B781A1C4849182391
:10338000742042438A18D3185B78072B14D1002C81
:103390000CD0494B1B781A1C414918237420424316
:1033A0008A18D3189A78A37E9A4205D9424B1B7883
:1033B00074225A433A4BD4183F4B1B780133DAB28C
:1033C0003D4B1A703C4B1B78272BC1D9002C07D1E1
:1033D000314B1B8D01339AB22F4B1A8500F00DFD36
:1033E0003B4B1C600323A376A37E23760023A375A7
:1033F0000423E3750023E3762A4BDB8AA380294B61
:103400009B8AE380284B1B882380284B1B88638082
:10341000012363762F4B1B7823732E4B5B786373EA
:103420002C4B9B78A3732B4BDB78E3730123238214
:103430001C4BDB7EE3721B4B9B7EA372194B5B7EA6
:103440006372184B1B7E23720120FFF791FC154A13
:103450002023D35C1A1CF0231340502B00DC8EE099
:10346000154B00221A7077E0134B1B7836331A4A3B
:10347000D25C1A4B1A70194B1B78002B00D17BE0E1
:10348000164B1B78012B2BD10B4B1B780133DAB277
:10349000094B1A7060E0C046F0180020FFFF0000E2
:1034A0007C060020321900203E190020401900201F
:1034B00028180020600200205E0200209C180020D6
:1034C0006406002042190020441900202019002021
:1034D0007806002058020020241900205F020020F6
:1034E000D84B1B78022B25D1D74B1B783733D74AC3
:1034F000D35C042B1ED1D44B1B783833D34AD35C16
:103500001B029AB2D04B1B783933D049CB5C1343A2
:103510009BB29AB2CE4B1A80CD4B1B8899B2B72280
:103520005200914201D9B7235B009BB26382638A48
:10353000A38224E0C44B1B783733C44AD35C002BEE
:103540001CD0C14B1B783733C04AD25CBE4B1B78B2
:10355000D318DAB2BC4B1A70BB4B1B781A1CBD498E
:103560002023CB5C1B09DBB2053B9B009A4200DAAF
:103570007AE704E0C04602E0C04600E0C046B54A33
:1035800021231021D154B34AB2492123CB5C02211B
:103590000B43D9B22123D154AE4A28230221D1545E
:1035A000AC4A29230421D154AA4A2A230121D15407
:1035B000A84A2B236E21D154A74B2C221A80A54A4E
:1035C00020236021D15400F065FBC046A34B1C6052
:1035D000A34B00221A709F4A2123D35C1A1C042398
:1035E000134008D0002363769D4B20221A7000F010
:1035F0009BFC00F002FC974A2023D35C1B09DBB242
:103600009B00DAB2904B1A70934B1A888E4B1B7842
:10361000D31A9BB2143B9AB28F4B1A80637E1A1C4A
:103620000F231340022B07D18A4A2123D35C1A1C93
:103630003F231340122B22D0874B1B88002B06D12F
:10364000844A2123D35C1A1C0323134017D0814BD7
:103650001A7E237A9A4200D011E37E4B5A7E637A17
:103660009A4200D00BE37B4B9A7EA37A9A4200D019
:1036700005E3784BDA7EE37A9A4200D0FFE2754A9E
:103680002123D35C1A1C1023134000D177E0238A36
:10369000002B00D173E0221C0C32238A101C191C51
:1036A000FFF7BAF96B4B1A7F6E4B1B789A4266D1C3
:1036B000684B5A7F6B4B5B789A4260D1654B9A7F1F
:1036C000684B9B789A425AD1624BDA7F654BDB7824
:1036D0009A4254D1634B1B782373624B5B786373BC
:1036E000604B9B78A3735F4BDB78E373E37E002B27
:1036F0003ED1227EA37ED31ADAB23B1C0F331A705E
:103700003B1C0F331A78A37DDB08DBB2D31ADAB285
:103710003B1C0F331A70A27D3B1C0F331B78D31850
:10372000DBB2A3753B1C0F331B787F2B07D93B1CE7
:103730000F331B785B42DAB23B1C0F331A703B1C11
:103740000F331A78E37D9B08DBB2D31ADAB23B1C45
:103750000F331A70E27D3B1C0F331B78D318DBB29A
:10376000E375A37DDB08DAB2E37DD318DBB2237601
:103770003B4B01221A70237EA37600232382637EB3
:103780001A1C0F231340082B00D92BE39A00364B49
:10379000D3181B689F46324B1B781A1C0123134019
:1037A00000D121E3032363762D4B40221A700023BE
:1037B0002382294B1B88002B0BD0294B1B7802221C
:1037C0001343DAB2264B1A70234B1B88181CFFF7E1
:1037D000CFFA264B00221A8000F0A6FB56E1204BC0
:1037E0001B781A1C0123134000D1ACE0194A212395
:1037F000D35C1A1C3F231340122B00D0A3E0154AC0
:103800002023D35C1A1CF0231340502B00DC7BE0F8
:103810000D4B00221A7067E00B4B1B7836330B4AB6
:10382000D25C084B1A70074B1B78002B69D0054BF4
:103830001B78012B1CD1044B1B780133DAB2024BED
:103840001A7051E05F0200205E020020241900205F
:103850006002002032190020640600207806002053
:10386000700600206C0600208C450008CA1A002053
:10387000C24B1B78022B25D1C14B1B783733C14A71
:10388000D35C042B1ED1BE4B1B783833BD4AD35CAE
:103890001B029AB2BA4B1B783933BA49CB5C13433B
:1038A0009BB29AB2B84B1A80B74B1B8899B2B72219
:1038B0005200914201D9B7235B009BB26382638AB5
:1038C000A38221E0AE4B1B783733AE4AD35C002B8A
:1038D00019D0AB4B1B783733AA4AD25CA84B1B7864
:1038E000D318DAB2A64B1A70A54B1B781A1CA7493D
:1038F0002023CB5C1B09DBB2053B9B009A428BDB90
:1039000002E0C04600E0C046032363769F4B1B7E67
:1039100023729E4B5B7E63729C4B9B7EA3729B4B80
:10392000DB7EE3720120FFF723FA994B42221A70E3
:1039300000232382974B00221A80974B00221A8083
:1039400000F0F2FAA2E0924B20221A7000F0ECFA9A
:10395000924B1B6800225A766FE48C4A2123D35C79
:103960001A1C0123134030D0637E1A1C102313400D
:103970002BD1238A002B00D038E2864B1B880133E1
:103980009BB2181CFFF7F4F9814B1B7810221343EC
:10399000DAB27F4B1A707F4B1B88002B06D07C4B12
:1039A0001B7802221343DAB2794B1A7000F0BCFA8A
:1039B00001232382082363760023E37600E0C046D8
:1039C000724A21231121D1545DE1704A2123D35C35
:1039D0001A1C202313401DD0714B1A686B492623F3
:1039E000CB5C190269482723C35C0B43D2186C4B8C
:1039F0001A60684B1A8865492623CB5C1B0299B272
:103A000062482723C35C0B439BB29BB2D31A9AB282
:103A1000604B1A805F4B1B88002B10D0637E1A1CF2
:103A2000102313400BD15A4B1B7802221343DAB2F6
:103A3000574B1A70574B1B88181CFFF799F9534ABC
:103A40002223D35C1B029AB250492323CB5CD318A8
:103A50009AB24D4B1A80A28A4B4B1B889A4203D3D1
:103A6000494B1B88002B02D1A28A474B1A80464B38
:103A70001B886382464B1B781A1C0323134000D11A
:103A8000B6E1454B00221A8000F04EFA404B1B78FD
:103A90001A1C2023134009D03F4B00221A80002318
:103AA00063763A4A21231421D154ECE0384B1B7839
:103AB0001A1C102313400DD0374B00221A8001230B
:103AC0002382042363760023E376304A21231121E5
:103AD000D154D8E0304B1B88002B19D02C4B1B78CD
:103AE0001A1C0123134001D000232382238A002BB8
:103AF0000BD1628A284B1B889A4202D2628A264BDB
:103B00001A80254B1B88238202E0228A224B1A80CE
:103B10000023E376234B1A68214B1A601E4B1B8847
:103B2000002B0CD0238A002B09D0238A28339AB289
:103B3000184B1A80154A21231821D154A6E0144BA2
:103B40001B781A1C0223134000D151E1114B28228B
:103B50001A800E4A21231021D15497E00C4B1B7878
:103B60001A1C0123134000D186E000236376084B22
:103B700010221A7000F0D8F97EE0C0465F020020E3
:103B80005E0200202419002060020020321900206B
:103B90007006002064060020CA1A00207806002063
:103BA0007406002068060020994B1B88002B04D067
:103BB000974B1B88181CFFF7DBF8964A2123D35C30
:103BC0001A1C0123134017D0934B1B781A1C012396
:103BD000134006D0072363760023A37600232382B5
:103BE00001E0062363760120FFF7C2F88A4B10221A
:103BF0001A7000F099F942E0874B1B781A1C0123D8
:103C0000134004D00523637600232382F5E0804B24
:103C10001B88002B00D1EDE031E07D4B1B88002B91
:103C200004D07B4B1B88181CFFF7A2F8794A21238C
:103C3000D35C1A1C012313400CD0072363760023A6
:103C4000A3760120FFF794F8734B10221A7000F04E
:103C50006BF914E06E4B1B88002B00D1CCE00EE01A
:103C60006D4B1B781A1C0123134000D1BAE00723C7
:103C700063760023A376B5E0C046B3E0C046654A4C
:103C800021231021D154624B28221A80614A20231B
:103C90005021D1545F4B227A1A775E4B627A5A7761
:103CA0005C4BA27A9A775B4BE27ADA77594B227BAC
:103CB0001A76584B627B5A76564BA27B9A76554BB6
:103CC000E27BDA76534B06225A72524BA2889A82D2
:103CD000504BE288DA82514B514A12881A80514B7C
:103CE0004F4A52881A80504B22881A804F4B628864
:103CF0001A80637E1A1C1023134009D0454A454B95
:103D00002321002058542321595C2223D15407E059
:103D1000404A22230121D1543E4A23236E21D1540B
:103D20003C4B40221A723B4B394A1288120A92B21B
:103D3000D2B29A70374B364A1288D2B2DA70354A0C
:103D4000344B2721002058542721595C2623D15475
:103D5000304B00229A842F4CFEF796FF031CDB4366
:103D60009BB2A3842B4B45221A702A4B00225A7017
:103D7000284A284B0021D971DB7993712C4B1B8881
:103D800001339AB22A4B1A80224B294A1288120A0E
:103D900092B2D2B21A711F4B254A1288D2B25A710E
:103DA0001C4B00225A811B4CFEF7FAFE031CDB431E
:103DB0009BB263811F4BDB8B01339AB21D4BDA83BD
:103DC0001C4B9B8801339AB21A4B9A80124B0022EB
:103DD0001A7019E0C04610E0C0460EE0C0460CE084
:103DE000C0460AE0C04608E0C04606E0C04604E01F
:103DF000C04602E0C04600E0C046054B00221A80E3
:103E0000054B00221A70C046BD4605B090BDC046A5
:103E10006406002032190020700600203E190020A0
:103E200020190020401900204219002044190020C8
:103E300056020020F018002080B582B000AF021CAE
:103E4000BB1D1A80BB1D1B881B029AB2BB1D1B88A1
:103E50001B0A9BB29BB213439BB29BB2181CBD467C
:103E600002B080BD80B582B000AF786039603B6839
:103E7000002B12DD3B689AB2094B1A80094B1B6874
:103E80007A689A4209D0074B1968054B1B887A68F3
:103E9000081C111C1A1C00F08FF9BD4602B080BD31
:103EA000CA1A00206806002080B584B000AF021C4A
:103EB000FB1D1A70FB1D1B781A01114BD318FB60F8
:103EC000FB68DA88FB681B899A4201D1062313E05C
:103ED0000C4B1B78DBB20133DAB20A4B1A70FB6869
:103EE000DB8801339AB2FB68DA80FB68181CFEF7A6
:103EF000A3FAFCF7A1FD0023181CBD4604B080BD49
:103F0000F40100202500002080B582B000AF786069
:103F1000FEE7C04680B500AF024B181CFEF7FCFE62
:103F2000BD4680BD03E8000080B582B000AF0C4BF9
:103F30001B681C337B600B4B1B781A1C40231340FF
:103F400007D07A687B682433101C191C0A22FDF7FD
:103F5000BBFA7B68181C00F007F8BD4602B080BDB4
:103F60007806002070060020B0B584B000AF7860FD
:103F70003B1C0F3301221A707B681B885C2B1CD002
:103F800004DC002B07D05B2B08D053E05E2B2BD03A
:103F90005F2B38D04EE07B685B221A807A682B4B0F
:103FA000101C191C1A22FDF7B9F9031C002B01D1B2
:103FB000002347E07B685C221A807B68181C0A217A
:103FC000FDF722FA031C002B01D100233AE07B68A5
:103FD0001A1C2E327B682433101C191C282200F076
:103FE00021FA7B685E221A807A68194B101C191C12
:103FF0000622FDF793F9031C002B01D1002321E0D9
:104000007B685F221A807D687B681C1C2E347B686D
:104010002E33181C00F0FEF9031C281C211C1A1C4E
:10402000FDF77CF9031C002B01D100230AE0094BAA
:1040300010221A703B1C0F3300221A707B6800227A
:104040001A800223181CBD4604B0B0BDB04500085C
:10405000CC45000870060020002934D0012300223E
:1040600010B488422CD301242407A14204D28142F7
:1040700002D209011B01F8E7E400A14204D2814207
:1040800002D249005B00F8E7884201D3401A1A4384
:104090004C08A04202D3001B5C0822438C08A042BB
:1040A00002D3001B9C082243CC08A04202D3001B71
:1040B000DC082243002803D01B0901D00909E3E7EB
:1040C000101C10BC7047002801D00020C04307B46A
:1040D000024802A14018029003BDC046D90000006A
:1040E0000029F0D003B5FFF7B9FF0EBC4243891A8F
:1040F0001847C046002941D010B4041C4C40A446C7
:1041000001230022002900D54942002800D5404261
:1041100088422CD301242407A14204D2814202D236
:1041200009011B01F8E7E400A14204D2814202D256
:1041300049005B00F8E7884201D3401A1A434C0853
:10414000A04202D3001B5C0822438C08A04202D389
:10415000001B9C082243CC08A04202D3001BDC08B1
:104160002243002803D01B0901D00909E3E7101CF2
:104170006446002C00D5404210BC7047002806D091
:1041800003DB0020C043400801E08020000607B4A4
:10419000024802A14018029003BDC0461900000069
:1041A0000029EBD003B5FFF7A7FF0EBC4243891AE5
:1041B0001847C0467047C046F0B54F464646C0B4A3
:1041C0000F2A72D90B1C03439C0700D090E0171CE8
:1041D000103F3C09013427010C683B1C0460103B74
:1041E000DE064B68CD1943608C68F60F8460CB689F
:1041F000041CC3600B1C103310349D4227D0002ECA
:104200000BD0196821605E6866609968A160DE68FD
:104210001033E66010349D4219D0196821605E6841
:1042200066609968A160DE68191CE6601B69261C3F
:1042300023614C6974618B69B361CC691031F4619D
:104240000B1C1036341C103310349D42E5D13F183E
:104250000F21B846114003294DD904398E08B30007
:104260000433EC18A446043B2C1C5F0708CC4146E1
:10427000B14608C1FE0F64450FD0002E03D080CC9C
:1042800080C1644509D0271C08CF0E1C08C664688D
:104290004C603C1D311D6445F5D1494601318E000D
:1042A0000327AD193A40464401E00D1C061C002AC4
:1042B0001AD02F78B218F343D11801243770013681
:1042C0000C40013596420FD0002C05D02B780135DB
:1042D00033700136964207D0297831706C780235F8
:1042E000747002369642F7D10CBC90469946F0BDE8
:1042F000061C0D1CDDE73E1C0A1CD8E7F0B5830741
:1043000000D181E0541E002A7DD0CDB2031C0326CB
:10431000E70711D5431C0570334211D01D700133DE
:10432000941E33420CD0621E002C6CD01D700133E1
:10433000141C334204D0013C1D7001333342F2D1CE
:10434000032C49D9FF220A4017023A4315042A4395
:104350000F2C5CD9261C103E370901373D015E1930
:10436000103DEF061A605A609A60DA601033FD0F54
:104370009E4213D0002D06D01A605A609A60DA600F
:1043800010339E420AD01A605A609A60DA601A614D
:104390005A619A61DA6120339E42F4D10F231C40A6
:1043A000351C331C032C17D9261FB7080137BE0054
:1043B000AB19043E770704C5FE0F9D420AD0002EBC
:1043C00002D004C59D4205D02F1C04C76A603D1D64
:1043D0009D42F9D103221440002C14D01C19DD4356
:1043E000C9B266190127197001333E40A3420AD0B1
:1043F000002E03D019700133A34204D019705970F4
:104400000233A342FAD1F0BD031C141C98E71D1C13
:10441000CAE7C0460023C25C0133002AFBD1581E04
:104420007047C046F0B50B1C5F4656464D464446A5
:104430000343F0B49C0700D07EE0031C032A3BD961
:10444000161F74073E4DE70F0C1CA9468A4620CC68
:104450003C49B3464E19B846AE434F463E426DD135
:10446000031C5A4620C3032A25D94546002D08D0EF
:10447000A246344920CC4F466E18AE433E4216D079
:104480005CE0261C20CE2F494F464919A943A2467D
:10449000394253D120C36568B246341C294E4F4679
:1044A000A9190E1CAE43043A04343E4246D1043AE4
:1044B00020C3032AE5D8211C002A2FD00D78541ED2
:1044C0001D7001310133002D11D0E5072CD4002CD3
:1044D00024D00E78013C1E704F1C0133002E06D0F4
:1044E0004D78013C1D70791C0133002DEFD1191955
:1044F000002C13D0DC4300220E1901271A7001335F
:104500003E408B420AD0002E03D01A7001338B42FA
:1045100004D01A705A7002338B42FAD13CBC9046D8
:104520009946A246AB46F0BD941E0A7801311A7036
:104530000133002ACBD1DAE7031CBDE75146BBE7C4
:1045400080808080FFFEFEFE0000000000AABBCC41
:10455000DE020000FFFFFFFFFFFF0000FFFFFFFF85
:10456000FFFFFFFF00000000D83D00087435000881
:10457000322F00083C2F0008BE390008D83D000843
:10458000BE390008D83D0008BE390008E43D0008E7
:1045900096370008DE3700085A390008A83B0008A3
:1045A0001A3C0008603C00087C3C00085C3B0008AA
:1045B00048656C6C6F2E2057686174206973207990
:1045C0006F7572206E616D653F0A000048656C6C06
:0445D0006F20000058
:1045D40000000000010203040102030406070809A5
:0C45E40004ED00E000000010FCFFFFFFF1
:0400000508000000EF
:00000001FF
