:020000040800F2
:10000000002000204511000889110008891100080E
:1000100000000000000000000000000000000000E0
:10002000000000000000000000000000C9340008CB
:100030000000000000000000B1350008F5350008A0
:100040008911000889110008891100088911000828
:100050008911000889110008891100088911000818
:100060008911000889110008891100088911000808
:1000700089110008891100088911000889110008F8
:10008000891100088911000800000000891100088A
:1000900089110008891100088911000889110008D8
:1000A00089110008891100088911000889110008C8
:1000B00089110008000000008911000800000000FC
:1000C0005FF808F180B582B000AF78600A1CBB1CF5
:1000D0001A800BE01C2000F055FC031C1A1C0223A4
:1000E000134003D01F20082100F00AFE1F2000F05B
:1000F00049FC031C1A1C08231340EBD102200121E8
:1001000000F0D6FC03201A2100F0D2FCBB1C1B8897
:10011000DBB20133DBB20620191C00F0C9FCBB1CAA
:100120001B880B4A9B181B12DBB20720191C00F01E
:10013000BFFC7A68BB1C1B88101C191C00F056FD04
:100140001F20082100F096FDBD4602B080BDC046CC
:10015000011A000080B586B000AF78600023FB6014
:1001600001F044FC444B1B68002B01D100F0DAF88D
:10017000424B1B687A68134000D070E07B68002B0C
:100180000DD03F4B1B887A68D3187B607A680723B1
:10019000134004D07B680722934308337B607B685D
:1001A000002B5CD0374B1B687A689A4257D8364B85
:1001B0003B61354B1B687B6104E07B693B617B697C
:1001C0001B687B617B695A687B689A4203D27B69B2
:1001D0001B68002BF1D1284B1B687A699A423ED0EC
:1001E0003B691A68264B1B88D318FB607B691A6829
:1001F0003B691A607B695A687B68D21A204B1B885E
:100200005B009A4210D97A697B68D318BB607B691E
:100210005A687B68D21ABB685A607B697A685A60F0
:10022000BB68181C00F0D2F8164B1A687B695B6833
:10023000D21A144B1A60134B1A68144B1B689A425B
:1002400003D2104B1A68114B1A607B695A680B4B2A
:100250001B681A437B695A607B6900221A6001F0AF
:10026000D1FBFB68002B01D100F05CFFFB68181C80
:10027000BD4606B080BDC046A41B0020A81B0020C0
:10028000743B0008000000209C1B0020040000209C
:1002900080B584B000AF78607B68FB607B68002B22
:1002A00036D01D4B1B885B42FA68D318FB60FB6895
:1002B000BB60BB685A68194B1B68134001D172B60A
:1002C000FEE7BB681B68002B01D072B6FEE7BB6877
:1002D0005A68124B1B6813401AD0BB681B68002B6E
:1002E00016D1BB685A680D4B1B68DB431A40BB68CC
:1002F0005A6001F07BFBBB685A68094B1B68D21837
:10030000074B1A60BB68181C00F060F801F07AFB1C
:10031000BD4604B080BDC046743B0008A81B002049
:100320000000002080B584B000AF214B072293432A
:10033000FB60204BFA681A601E4B00225A601E4B6D
:100340001B68FA68D318BB601C4B1B885B42BA68F9
:10035000D318BB601A4BBA681A60194B1B681A1C79
:100360000723134001D072B6FEE7154B1B6800222D
:100370005A60134B1B6800221A60FB687B600E4BAF
:100380001A680E4B1B88D21A7B685A600C4B1A688D
:100390007B681A600B4B1A68084B1B88D21A094BF2
:1003A0001A60094B802212061A60BD4604B080BD57
:1003B000400200209C1B0020783B0008743B000892
:1003C000A41B002000000020A81B002080B584B0E2
:1003D00000AF7860264BFB6002E0FB681B68FB60A7
:1003E000FB681A687B689A42F7D3FB68BB60FB68BE
:1003F0005B68BA68D2187B689A4208D1FB685A6871
:100400007B685B68D218FB685A60FB687B607B681E
:10041000BB607B685B68BA68D218FB681B689A424D
:1004200018D1FB681A68134B1B689A420DD07B6881
:100430005A68FB681B685B68D2187B685A60FB6867
:100440001B681A687B681A6008E00A4B1A687B68A8
:100450001A6003E0FB681A687B681A60FA687B68B8
:100460009A4202D0FB687A681A60BD4604B080BD2B
:100470009C1B0020A41B002080B588B000AF802307
:100480009B02181C012100F057F980239B02181CC5
:10049000012100F06FF99023DB05181C0E210122C9
:1004A00002F0E6F99023DB05181C0F21012202F06F
:1004B000DFF93B1CC02212021A603B1C03225A7156
:1004C0003B1C02221A713B1C00229A713B1C012228
:1004D000DA719023DA053B1C101C191C02F0FCF8A1
:1004E0003B1C0833962292011A603B1C0833002201
:1004F0005A603B1C083300229A603B1C08330022E0
:10050000DA603B1C083300225A613B1C08330C2282
:100510001A61074A3B1C0833101C191C02F09EFA92
:10052000034B181C012102F049FBBD4608B080BDF9
:100530000044004080B582B000AF021CBB1D1A8091
:10054000C046094B181C802102F068FB031C002BDD
:10055000F7D0054ABB1D1B88101C191C02F04CFB70
:10056000BD4602B080BDC0460044004080B588B0A2
:1005700000AF78600023FB610023BB6100237B6137
:1005800000233B610023FB60654B5A680C2313403A
:10059000FB61FB69042B07D0082B09D0002B30D15D
:1005A0007B68604A1A6030E07B685E4A1A602CE023
:1005B0005B4B5A68F0239B031340BB61584B5A684E
:1005C00080235B0213407B61BB699B0C0233BB61E0
:1005D0007B69002B05D1BB69534A5A437B681A607B
:1005E00013E04F4BDA6A0F23134001333B614D4850
:1005F000396903F0E7F8031CBA695A437B681A604B
:1006000003E07B68474A1A60C046454B5A68F023AE
:100610001340FB61FB691B09FB61444AFB69D3186A
:100620001B78DBB2FB607B681A68FB68DA407B688A
:100630005A603B4B5A68E023DB001340FB61FB69C7
:100640001B0AFB61394AFB69D3181B78DBB2FB60DC
:100650007B685A68FB68DA407B689A60304B1A6B9B
:1006600080235B00134003D17B68314ADA6010E0DD
:100670002B4B5A688023DB01134005D17B689B68B4
:100680005A087B68DA6004E07B689B689A087B689C
:10069000DA60234B1A6B4023134003D17B68254A51
:1006A0001A6103E07B68802212021A611C4B1A6BEC
:1006B0001023134003D17B681A4A5A6103E07B6818
:1006C0001A687B685A61164B1A6B0323134004D1D6
:1006D0007B689A687B689A611EE0114B1A6B032352
:1006E0001340012B04D17B681A687B689A6113E080
:1006F0000B4B1A6B03231340022B04D17B6880221F
:1007000012029A6108E0064B1A6B03231340032B75
:1007100002D17B68034A9A61BD4608B080BDC046DD
:100720000010024000127A0000093D00080000207D
:10073000809FD5001280000080B582B000AF786045
:100740000A1CFB1C1A70FB1C1B78002B06D0084BE4
:10075000074A51697A680A435A6106E0044B044A21
:1007600052697968C9430A405A61BD4602B080BDEA
:100770000010024080B582B000AF78600A1CFB1CFC
:100780001A70FB1C1B78002B06D0084B074AD16956
:100790007A680A43DA6106E0044B044AD269796850
:1007A000C9430A40DA61BD4602B080BD0010024074
:1007B00080B588B000AF8023DB02181C0121FFF751
:1007C000BBFF8023DB01181C0121FFF7D3FF3B1D7A
:1007D000802252011A603B1D01221A713B1D032227
:1007E0005A713B1D00229A713B1D0122DA714E4A5B
:1007F0003B1D101C191C01F06FFF3B1D8022920154
:100800001A603B1D02221A713B1D03225A713B1DC7
:1008100000229A713B1D0122DA71434A3B1D101CD4
:10082000191C01F059FF3B1D802212021A603B1D6A
:1008300002221A713B1D03225A713B1D00229A713C
:100840003B1D0122DA71384A3B1D101C191C01F0B6
:1008500043FF3B1D8022D2011A603B1D02221A7108
:100860003B1D03225A713B1D00229A713B1D012240
:10087000DA712D4A3B1D101C191C01F02DFF2A4B6B
:10088000181C0D21002201F0F3FF274B181C0F212B
:10089000002201F0EDFF244B181C0E21002201F074
:1008A000E7FF3B1C0C3300221A803B1C0C338222D6
:1008B00052005A803B1C0C33E022D2009A803B1C31
:1008C0000C330022DA803B1C0C3300221A813B1CC3
:1008D0000C33802292005A813B1C0C3310229A81E7
:1008E0003B1C0C330022DA813B1C0C3307221A829A
:1008F0000E4A3B1C0C33101C191C01F0BFFD0B4AA7
:1009000080235B01101C191C01F05AFE074B181CB8
:10091000002101F09BFE054B181C012101F030FE67
:10092000BD4608B080BDC046000400480038004005
:1009300080B582B000AF021CFB1D1A70C046104B80
:10094000181C022101F0A4FE031C002BF7D00C4A56
:10095000FB1D1B78101C191C01F050FEC046084BF3
:10096000181C012101F094FE031C002BF7D0044B4E
:10097000181C01F059FE031C181CBD4602B080BDB6
:100980000038004090B585B000AF021CFB1D1A7006
:100990003B1C0F3300221A70FB1D1A781F231340D3
:1009A0001A2B14DCFB1D1B785B09DBB21A1C03231A
:1009B0001A40164B1B789A4209D0FB1D1B785B0925
:1009C000DAB203231340DBB2181C00F0DFF8104B3F
:1009D000802252011A85FB1D1A781F231340DBB2B7
:1009E000181CFFF7A5FF3C1C0F340020FFF7A0FFE9
:1009F000031C2370064B802252019A613B1C0F336B
:100A00001B78181CBD4605B090BDC046AC1B00202D
:100A10000004004890B585B000AF021CFB1D1A70A1
:100A20003B1C0F3300221A70FB1D1A781F23134042
:100A30001A2B14DCFB1D1B785B09DBB21A1C032389
:100A40001A40194B1B789A4209D0FB1D1B785B0991
:100A5000DAB203231340DBB2181C00F097F8134BF3
:100A6000802252011A85FB1D1A781F231340DBB226
:100A7000181CFFF75DFF3C1C0F340020FFF758FFE8
:100A8000031C23703C1C0F340020FFF751FF031C94
:100A90002370064B802252019A613B1C0F331B7856
:100AA000181CBD4605B090BDAC1B002000040048DA
:100AB00080B582B000AF0A1CFB1D011C1970BB1D64
:100AC0001A70FB1D1A781F2313401A2B14DCFB1D10
:100AD0001B785B09DBB21A1C03231A40154B1B78E9
:100AE0009A4209D0FB1D1B785B09DAB2032313403D
:100AF000DBB2181C00F04AF80F4B802252011A8515
:100B0000FB1D1B781A1C1F231340DBB2402213432A
:100B1000DBB2DBB2181CFFF70BFFBB1D1B78181CE8
:100B2000FFF706FF044B802252019A61BD4602B0D6
:100B300080BDC046AC1B00200004004880B582B0D8
:100B400000AFFB1D1870BB1D19707B1D1A70C046CD
:100B5000EA20FFF75FFF031C1A1C01231340F7D1A3
:100B6000FB1D1B78D420191CFFF7A2FF7B1D1B78EF
:100B7000D620191CFFF79CFFBB1D1B78D720191C22
:100B8000FFF796FFBD4602B080BDC04680B582B07B
:100B900000AF021CFB1D1A70124B802252011A85F5
:100BA000BF20FFF7C5FE0320FFF7C2FE0D4B8022DA
:100BB00052019A610B4B802252011A859F20FFF748
:100BC000B7FEFB1D1B78181CFFF7B2FE054B8022F9
:100BD00052019A61044BFA1D12781A70BD4602B098
:100BE00080BDC04600040048AC1B002080B584B026
:100BF00000AF78600A1CBB1C1A80144B8022520183
:100C00001A857A20FFF794FE3B1C0E3300221A80CF
:100C10000EE07B681B787A6801327A60181CFFF757
:100C200087FE3B1C0E333A1C0E32128801321A80AA
:100C30003A1C0E32BB1C12881B889A42E9D3034B24
:100C4000802252019A61BD4604B080BD0004004874
:100C500080B500AF064B802252011A85FF20FFF7B6
:100C600067FE034B802252019A61BD4680BDC0469B
:100C70000004004880B582B000AF0A1CFB1D011CB7
:100C80001970BB1D1A70FB1D1A781F2313401A2BF5
:100C900014DCFB1D1B785B09DBB21A1C03231A4012
:100CA000154B1B789A4209D0FB1D1B785B09DAB201
:100CB00003231340DBB2181CFFF768FF0F4B8022A1
:100CC00052011A85FB1D1B781A1C1F231340DBB22F
:100CD000802252421343DBB2DBB2181CFFF728FE1E
:100CE000BB1D1B78181CFFF723FE044B802252010A
:100CF0009A61BD4602B080BDAC1B002000040048D4
:100D000080B582B000AF0A1CFB1D011C1970BB1D11
:100D10001A70FB1D1A781F2313401A2B14DCFB1DBD
:100D20001B785B09DBB21A1C03231A40154B1B7896
:100D30009A4209D0FB1D1B785B09DAB203231340EA
:100D4000DBB2181CFFF722FF0F4B802252011A85DD
:100D5000FB1D1B781A1C1F231340DBB2602252427A
:100D60001343DBB2DBB2181CFFF7E2FDBB1D1B789F
:100D7000181CFFF7DDFD044B802252019A61BD462D
:100D800002B080BDAC1B00200004004880B584B0D8
:100D900000AF7860FFF75CFF1F20C021FFF788FEDF
:100DA0001E208021FFF784FE1C200021FFF780FE1B
:100DB0001B20C021FFF77CFE36200021FFF778FEC4
:100DC00037200021FFF774FE04200021FFF770FE9A
:100DD00005201A21FFF76CFE06200021FFF768FEB0
:100DE00007202021FFF764FE08200021FFF760FEA6
:100DF00009200021FFF75CFE0A20FF21FFF758FEC3
:100E00000B201921FFF754FE00200021FFF750FEB0
:100E100001200021FFF74CFE0C200021FFF748FEC7
:100E20000D200021FFF744FE3820A121FFF740FEEE
:100E300077200021FFF73CFE75200021FFF738FEE8
:100E400067200021FFF734FEC0461D20FFF79AFD02
:100E5000031C1A1C01231340F7D0EA200021FFF7DE
:100E600027FED2200021FFF723FED1200021FFF72B
:100E70001FFEC0200D21FFF71BFEC1200021FFF740
:100E800017FEC2203221FFF713FEC3200021FFF717
:100E90000FFECD201021FFF70BFECA20EE21FFF739
:100EA00007FECB200521FFF703FEC4201221FFF728
:100EB000FFFDC6201221FFF7FBFDC7200C21FFF725
:100EC000F7FD7B6805331B78E120191CFFF7F0FD67
:100ED0007B6804331B78E020191CFFF7E9FD7B6871
:100EE00003331B78E320191CFFF7E2FD7B68023314
:100EF0001B78E220191CFFF7DBFD7B6801331B78B0
:100F0000E520191CFFF7D4FD7B681B78E420191C31
:100F1000FFF7CEFD002000210022FFF70FFE10207A
:100F200001210022FFF70AFE142002213A22FFF7D6
:100F300005FE122000210022FFF700FE1F201421D1
:100F4000FFF7B6FD074B00221A703B1C0C33002242
:100F50001A703B1C0C33181C0121FFF747FEBD46DD
:100F600004B080BDAC1B002080B582B000AF8023F0
:100F7000DB02181C0121FFF7DFFB3B1C181C01F0F2
:100F800047FC3B1C8022D2001A603B1C01221A71D4
:100F90003B1C01225A71094A3B1C101C191C01F010
:100FA0009BFB3B1C802212011A60044A3B1C101C54
:100FB000191C01F091FBBD4602B080BD0004004841
:100FC00080B582B000AF7860134B1B685A1E934106
:100FD000DBB212498022D200081C111C1A1C01F03D
:100FE0002FFC0D4B1B685A425341DBB21A1C0A4BB3
:100FF0001A60094B1B685A1E9341DBB207498022D5
:101000001201081C111C1A1C01F01AFCFA235B00C7
:10101000181C00F07FFCD7E7B01B0020000400483C
:1010200080B584B000AF786000F070FD031CBB6039
:101030005323FB607A68084B101C191CFFF742F819
:10104000C020FFF777FA3A1C0832FB68101C191C05
:1010500000F000FCEEE7C0460202000080B586B05A
:1010600004AFFB1D00221A703A1C274B111C1A1CDE
:101070000623081C111C1A1C02F04EFCFFF774FF1B
:10108000FFF796FBFFF7F8F93B1C181CFFF77EFEF5
:101090001E4B00221A600FE01C4B1B681A1C0E32FC
:1010A0001A4B1B68DBB25B00D9B2194B9954174B32
:1010B0001B685A1C154B1A60144B1A68154B9A4240
:1010C000EADD154A154B0121009100210191002113
:1010D000029100210391101C191C3C22002300F0F6
:1010E00003FB0F490D4A0A4B02200090002001909B
:1010F0000020029000200390081C111C3C2200F0EC
:10110000F3FA00F039FCFEE7843B0008B41B002032
:1011100018000020F3010000C10F00087C3B00080C
:101120002110000880B500AF72B6FEE780B582B02E
:1011300000AF7860396072B6FEE7C04680B500AF98
:10114000BD4680BD002103E00A4B5B58435004318B
:1011500009480A4B42189A42F6D3094A02E0002392
:1011600013600432074B9A42F9D302F075FAFFF785
:1011700075FF7047E03B00080000002038020020A7
:10118000380200202C1D0020FEE7000080B586B04C
:1011900004AF00237B6000F067FA104B1B68002B44
:1011A00011D00F4A0F4B0221009100210191002123
:1011B000029100210391101C191C5022002300F001
:1011C00093FA031C7B607B68002B01D172B6FEE7AB
:1011D0007B68181CBD4602B080BDC046E81B0020DD
:1011E000FD1200088C3B000880B588B000AFF860A5
:1011F000B9607A603B600023FB61224B1B68002BC7
:101200003BD03B1C1033BA681A603B1C10337A6821
:101210005A603B1C1033FA689A60BB68052B1FDCD0
:1012200001F070F8031C022B0DD1164B19683A1C03
:101230001032BB6A081C111C1A1C002301F0A8FD07
:10124000031CFB6119E00F4B1A683B1C1033101C88
:10125000191C0022002301F09BFD031CFB610CE024
:10126000084B19683A1C10323B68081C111C1A1CE8
:10127000002301F04DFE031CFB61FB69181CBD46F9
:1012800008B080BDE81B002080B586B002AF786052
:101290003960194B1B68DB68DB68FB60FB68043353
:1012A000181C01F0B3FBFB68DB69012B1CD1FB6848
:1012B0009A697B68D118F8683A687B6800F0AEF8E4
:1012C000031C012B10D1FA687B6800210091101CCF
:1012D00000211A1C0023FFF787FF031CBB60BB68BB
:1012E000002B01D172B6FEE7FB685B6AFA68101C3E
:1012F0009847BD4604B080BDE01B002080B584B097
:1013000000AF78603B1C0833181C00F047F8031C42
:10131000FB60BB68FA68101C191C00F003F800F0B1
:10132000BFF8EFE780B584B000AF7860396000F0B7
:101330005DFB3B1C0833181C00F050F8031CFB60DD
:10134000BB68002B20D13B68002B0CD17A68FB686E
:101350009A4208D800F056FB7A68FB68101C191CEA
:10136000FFF792FF14E00C4B1A687968FB68CB1A00
:10137000101C191C02F046F800F044FB031C002B63
:1013800005D102F0D7F802E000F03CFB00E0C046D7
:10139000BD4604B080BDC046E81B002080B584B0C7
:1013A00000AF78600C4B1B681B685A425341DBB29C
:1013B0001A1C7B681A607B681B68002B05D1064BE2
:1013C0001B68DB681B68FB6001E00023FB60FB68B7
:1013D000181CBD4604B080BDE01B002080B584B061
:1013E00000AF786000F092FB031CFB600A4B1B68A7
:1013F000FA689A4205D200F0DBF87B6801221A6095
:1014000002E07B6800221A60034BFA681A60FB68EE
:10141000181CBD4604B080BDEC1B002080B586B012
:1014200000AFF860B9607A603B6000237B61FB68C5
:10143000BA685A60FB68FA681A61BA687B689A42AF
:1014400012D87A683B68D21AFB689B699A4202D329
:1014500001237B611BE0104B1A68FB680433101CEE
:10146000191C01F09DFA12E07A683B689A4206D294
:10147000BA683B689A4202D301237B6107E0074BBD
:101480001A68FB680433101C191C01F089FA7B6987
:10149000181CBD4606B080BDE41B0020E01B0020E8
:1014A00080B58AB002AF6FE03B1C08331B68002B8D
:1014B0006ADB3B1C08339B68FB61FB695B69002BA3
:1014C00004D0FB690433181C01F0A0FA3B1D181C62
:1014D000FFF784FF031CBB613B1C08331B68092B0F
:1014E0004DD89A00304BD3181B689F463B1C0833DD
:1014F0005A68FB699B69D1183B1C08335B68F86923
:10150000BA69FFF78BFF031C012B3CD1FB695B6AB7
:10151000FA69101C9847FB69DB69012B33D13B1C2E
:1015200008335A68FB699B69D318FA690021009156
:10153000101C00211A1C0023FFF756FE031C7B61C0
:101540007B69002B1FD172B6FEE73B1C08335A683B
:10155000FB699A61FB699B69002B01D172B6FEE7BA
:10156000FB699A69BB69D118F869BA69BB69FFF769
:1015700055FF09E0FB69181CFEF78AFE04E0C0462F
:1015800002E0C04600E0C046084B1A683B1C083326
:10159000101C191C0022002301F024FD031C002B49
:1015A00082D1BD4608B080BD943B0008E81B0020F6
:1015B00080B588B002AF40E0294B1B68DB681B6830
:1015C0007B61274B1B68DB68DB683B613B6904334D
:1015D000181C01F01BFA3B695B6A3A69101C9847BA
:1015E0003B69DB69012B28D13B699A697B69D31878
:1015F000FB60FA687B699A420ED93B69FA685A60C7
:101600003B693A691A61164B1A683B690433101C2E
:10161000191C01F0C5F910E03A697B6900210091BD
:10162000101C00211A1C0023FFF7DEFD031CBB6009
:10163000BB68002B01D172B6FEE7094B1B681B6823
:10164000002BB9D1064B1B687B60064B1A68044B14
:101650001A60044B7A681A60BD4606B080BDC04669
:10166000E01B0020E41B002080B500AF01F070FFFC
:10167000174B1B68002B26D1164B181C01F046F99E
:10168000154B181C01F042F9144B124A1A60144B06
:10169000114A1A6005200C21002201F033FB021CC4
:1016A0000B4B1A600A4B1B68002B01D172B6FEE788
:1016B000074B1B68002B06D0054B1A68094B101C02
:1016C000191C01F079FE01F053FFBD4680BDC046F4
:1016D000E81B0020B81B0020CC1B0020E01B0020D2
:1016E000E41B0020BC3B000890B58BB002AFF86053
:1016F000B9603B60BB1D1A80FB68002B01D172B63C
:10170000FEE73B6B042B01D972B6FEE7BB1D1A88BE
:10171000BB6B101C191C00F07DFD031CBB61BB6979
:10172000002B00D173E0BB691A6BBB1D1B88013B0A
:101730009B00D3187B617B69072293437B617A69A5
:101740000723134001D072B6FEE7B869B9683A6B57
:10175000FB6BBC1D2488009400F05EFC7969FA687C
:101760003B68081C111C1A1C01F078FE021CBB69A6
:101770001A607B6B002B02D07B6BBA691A6001F098
:10178000E7FE2E4B1B685A1C2C4B1A602C4B1B6817
:10179000002B09D12A4BBA691A60284B1B68012B10
:1017A0000FD100F083FC0CE0264B1B68002B08D106
:1017B000234B1B68DA6A3B6B9A4202D8204BBA690A
:1017C0001A60214B1B685A1C1F4B1A601E4B1A686B
:1017D000BB69DA63BB69DA6A1C4B1B689A4203D99E
:1017E000BB69DA6A194B1A60BB69DA6A131C9B0081
:1017F0009B189B00164A9A18BB690433101C191CCD
:1018000001F0ACF80123FB6101F0B2FE02E001231C
:101810005B42FB61FB69012B0BD10A4B1B68002B60
:1018200007D0074B1B68DA6A3B6B9A4201D201F082
:1018300081FEFB69181CBD4609B090BDC81C002084
:10184000F01B0020D41C0020E41C0020D01C002031
:10185000F41B002080B586B000AF786039600023AB
:101860007B617B68002B01D172B6FEE73B68002BE1
:1018700001D172B6FEE7244B1B68002B01D072B673
:10188000FEE700F0B3F8214B1B683B617B681A68E8
:101890003B68D318FB607B681A683B699A420BD996
:1018A0007B681A68FB689A4211D9FA683B699A42C8
:1018B0000DD901237B610AE07B681A68FB689A42B4
:1018C00003D8FA683B699A4201D901237B617B689E
:1018D000FA681A607B69002B09D00D4B1B68043332
:1018E000181C01F093F8FB68181C00F05DFC00F078
:1018F00089F8031CBB60BB68002B01D101F01AFE04
:10190000BD4606B080BDC046E81C0020CC1C0020AF
:10191000F01B002080B584B000AF78600023FB602E
:101920007B68002B1AD0114B1B68002B01D072B6BC
:10193000FEE700F05BF80E4B1A687B68D318BB60BB
:101940000C4B1B680433181C01F060F8BB68181CB2
:1019500000F02AFC00F056F8031CFB60FB68002B2B
:1019600001D101F0E7FDBD4604B080BDE81C0020B8
:10197000CC1C0020F01B002080B586B004AF174AB5
:10198000174B0021009100210191002102910021BB
:101990000391101C191C3C220023FFF7A5FE031C19
:1019A0007B607B68012B03D1FFF7F0FB031C7B609E
:1019B0007B68012B09D172B60A4B01221A600A4BCF
:1019C00000221A6001F094FD04E07B68002B01D135
:1019D00072B6FEE7BD4602B080BDC046F51F0008E6
:1019E000C43B0008D41C0020CC1C002080B500AFF4
:1019F000034B1B685A1C024B1A60BD4680BDC04693
:101A0000E81C002080B582B000AF00237B60374B1C
:101A10001B68002B01D172B6FEE701F099FD334B34
:101A20001B685A1E314B1A60304B1B68002B56D175
:101A30002F4B1B68002B52D02FE02E4BDB68DB684E
:101A40003B603B681833181C00F0E0FF3B68043330
:101A5000181C00F0DBFF3B68DA6A274B1B689A42D0
:101A600003D93B68DA6A244B1A603B68DA6A131CB4
:101A70009B009B189B00214A9A183B680433101C5A
:101A8000191C00F06BFF3B68DA6A1D4B1B68DB6AB0
:101A90009A4202D31B4B01221A60164B1B68002B83
:101AA000CBD1194B1B68002B11D00CE000F040F893
:101AB000031C002B02D0134B01221A60124B1B682F
:101AC0005A1E114B1A60104B1B68002BEED10D4BA8
:101AD0001B68012B03D101237B6001F02BFD01F07A
:101AE00047FD7B68181CBD4602B080BDE81C002085
:101AF000C81C0020881C0020D01C0020F41B0020E3
:101B0000F01B0020DC1C0020D81C002080B582B017
:101B100000AF01F01DFD054B1B687B6001F028FD47
:101B20007B68181CBD4602B080BDC046CC1C00209E
:101B300080B586B000AF00237B61524B1B68002B41
:101B400000D08CE0504B1B685A1C4F4B1A604E4B18
:101B50001B683B613B69002B17D14C4B1B681B6812
:101B6000002B01D072B6FEE7484B1B68FB60484B68
:101B70001A68464B1A60464BFA681A60454B1B6858
:101B80005A1C444B1A6000F08DFB434B1B683A69AA
:101B90009A4250D300E0C0463C4B1B681B68002BA8
:101BA00001D1012300E00023002B04D03A4B012295
:101BB00052421A603FE0354B1B68DB68DB68BB6054
:101BC000BB685B687B603A697B689A4203D2324BA0
:101BD0007A681A602FE0BB680433181C00F016FF07
:101BE000BB689B6A002B04D0BB681833181C00F03C
:101BF0000DFFBB68DA6A294B1B689A4203D9BB68A0
:101C0000DA6A264B1A60BB68DA6A131C9B009B18C1
:101C10009B00234A9A18BB680433101C191C00F05F
:101C20009DFEBB68DA6A1F4B1B68DB6A9A42B2D31F
:101C300001237B61AFE71B4B1B68DA6A1849131C51
:101C40009B009B189B005B58012B01D901237B61F2
:101C5000154B1B68002B09D1FFF770FA06E0124BF9
:101C60001B685A1C104B1A60FFF768FA0F4B1B6871
:101C7000002B01D001237B617B69181CBD4606B097
:101C800080BDC046E81C0020CC1C0020801C002029
:101C9000841C0020E01C00201C020020D01C00201E
:101CA000F41B0020F01B0020D81C0020DC1C0020AE
:101CB00080B582B000AF344B1B68002B03D0334B90
:101CC00001221A605CE0314B00221A60304B1B6825
:101CD0001A682F4B1B681B6B9A4208D82C4B1A684A
:101CE0002B4B1B683433101C191CFFF71FFA284BB1
:101CF0001B681A6B274B101C191C142201F0B2FD33
:101D0000031C002B14D0224B1A68214B1B68343360
:101D1000101C191CFFF70AFA0AE01F4B1B68002B66
:101D200001D172B6FEE71C4B1B685A1E1A4B1A6093
:101D3000194B1A681949131C9B009B189B005B5890
:101D4000002BEAD0144B1A68131C9B009B189B00B5
:101D5000124A9B187B607B685B685A687B685A6094
:101D60007B685A687B6808339A4204D17B685B6859
:101D70005A687B685A607B685B68DA68044B1A6053
:101D8000BD4602B080BDC046E81C0020DC1C00201F
:101D9000F01B0020CC3B0008D01C0020F41B0020CE
:101DA00080B584B000AF786039607B68002B01D1CA
:101DB00072B6FEE7124B1B6818337A68101C191CA8
:101DC00000F0EEFD0E4B1B680433181C00F01EFEE5
:101DD0003B68013308D10A4B1B680433094A101CC5
:101DE000191C00F0BBFD08E0074B1A683B68D318CC
:101DF000FB60FB68181C00F0D7F9BD4604B080BD3D
:101E0000F01B0020B41C0020CC1C002080B584B046
:101E100000AF786039607B68002B01D172B6FEE7B5
:101E20000C4B1B6818337A68101C191C00F096FDC7
:101E3000084B1B680433181C00F0E8FD064B1A68B9
:101E40003B68D318FB60FB68181C00F0ADF9BD4679
:101E500004B080BDF01B0020CC1C002080B584B0F5
:101E600000AF78607B68DB68DB68BB60BB68002B19
:101E700001D172B6FEE7BB681833181C00F0C6FD2E
:101E80001E4B1B68002B1DD1BB680433181C00F0CF
:101E9000BDFDBB68DA6A1A4B1B689A4203D9BB685E
:101EA000DA6A174B1A60BB68DA6A131C9B009B182E
:101EB0009B00144A9A18BB680433101C191C00F0CC
:101EC0004DFD06E0BB6818330F4A101C191C00F0CA
:101ED00045FDBB68DA6A0D4B1B68DB6A9A4205D97F
:101EE0000123FB600A4B01221A6001E00023FB6022
:101EF000FB68181CBD4604B080BDC046E81C00202D
:101F0000D01C0020F41B0020881C0020F01B0020A7
:101F1000DC1C002080B582B000AF78607B68002BAD
:101F200001D172B6FEE7054B1A687B681A60044B54
:101F30001A687B685A60BD4602B080BDE01C002074
:101F4000CC1C002080B584B000AF786039607B681D
:101F5000002B01D172B6FEE73B68002B01D172B6AF
:101F6000FEE701F0F5FA1C4B1B68BB603B681B6881
:101F7000013302D10023FB6027E07B681A68174B0E
:101F80001B689A4207D07B685A68BB689A4202D89D
:101F90000123FB6019E07B685B68BA68D21A3B6872
:101FA0001B689A420FD23B681A687B685968BB6805
:101FB000CB1AD2183B681A607B68181CFFF7AAFF7F
:101FC0000023FB6001E00123FB6001F0D1FAFB6814
:101FD000181CBD4604B080BDCC1C0020E01C0020B5
:101FE00080B500AF024B01221A60BD4680BDC046DD
:101FF000DC1C002080B582B000AF786000E0C046F5
:1020000000F098F8034B1B68012BF8D901F092FA05
:10201000F5E7C046F41B002080B586B000AFF8603D
:10202000B9607A603B6000237B6112E0BA687B692B
:10203000D3181A78F868302379694118CB181A71C7
:10204000BA687B69D3181B78002B06D07B690133F3
:102050007B617B69042BE9D900E0C046FA6838232C
:102060000021D1547B68042B01D904237B60FB68D9
:102070007A68DA62FB687A685A64FB680433181C71
:1020800000F062FCFB681833181C00F05DFCFB6874
:10209000FA681A617B680522D21AFB689A61FB68AC
:1020A000FA685A62BD4606B080BDC04680B582B0AF
:1020B00000AF00237B600CE07A68131C9B009B1828
:1020C0009B00144A9B18181C00F020FC7B6801330D
:1020D0007B607B68042BEFD90F4B181C00F016FCBB
:1020E0000E4B181C00F012FC0D4B181C00F00EFCDF
:1020F0000C4B181C00F00AFC0B4B181C00F006FCE3
:102100000A4B054A1A600A4B044A1A60BD4602B0DF
:1021100080BDC046F41B0020581C00206C1C002011
:10212000881C00209C1C0020B41C0020801C002067
:10213000841C002080B582B000AF27E0FFF756FC7A
:10214000164B1B685A425341DBB27B60FFF75AFCC7
:102150007B68002B1AD101F0FBF9104BDB68DB68C0
:102160003B603B680433181C00F050FC0C4B1B68B0
:102170005A1E0B4B1A600B4B1B685A1E094B1A60F8
:1021800001F0F6F93B68181C00F07CF8054B1B6861
:10219000002BD3D1BD4602B080BDC0469C1C0020A0
:1021A000C81C0020B01C002080B582B000AF786051
:1021B000134B1B687A685A60124B1B687A689A4204
:1021C00009D2114B1A680E4B1B680433101C191CE2
:1021D00000F0E6FB10E00D4B1A68094B1B68043356
:1021E000101C191C00F0DCFB094B1B687A689A4232
:1021F00002D2074B7A681A60BD4602B080BDC04665
:10220000F01B0020CC1C0020841C0020801C00201F
:102210001C02002080B584B000AF021C3960BB1DD9
:102220001A804820FDF796FF031CFB60FB68002B1B
:1022300022D03B68002B07D1BB1D1B889B00181CBC
:10224000FDF788FF021C00E03A68FB681A63FB6830
:102250001B6B002B06D1FB68181CFEF719F8002336
:10226000FB6009E0FB681A6BBB1D1B889B00101C00
:10227000A5211A1C01F0F2FBFB68181CBD4604B036
:1022800080BDC04680B582B000AF78607B681B6BB4
:10229000181CFDF7FDFF7B68181CFDF7F9FFBD4614
:1022A00002B080BD80B582B000AF0D4B1B681B68CB
:1022B000002B01D1012300E00023002B04D0094BA7
:1022C000012252421A6008E0054B1B68DB68DB689C
:1022D0007B607B685A68034B1A60BD4602B080BDC4
:1022E000801C00201C02002080B582B000AF044B8F
:1022F0001B687B607B68181CBD4602B080BDC04671
:10230000F01B002080B582B000AF0A4B1B68002B89
:1023100002D101237B6008E0074B1B68002B02D130
:1023200002237B6001E000237B607B68181CBD46B4
:1023300002B080BDD41C0020E81C002080B584B011
:1023400000AF78607B68FB607B68002B4AD0FB683D
:10235000DA6A264B1B68DB6A9A4243D2FB689B69A8
:10236000002B06DB214B1B68DB6A0522D21AFB68B7
:102370009A61FB685969FB68DA6A131C9B009B1819
:102380009B001B4A9B18994201D1012300E00023C6
:10239000002B22D0FB680433181C00F037FB134BD2
:1023A0001B68DA6AFB68DA62FB68DA6A114B1B6841
:1023B0009A4203D9FB68DA6A0E4B1A60FB68DA6A44
:1023C000131C9B009B189B00094A9A18FB68043356
:1023D000101C191C00F0C2FA04E0044B1B68DA6AF6
:1023E000FB68DA62BD4604B080BDC046F01B002029
:1023F000F41B0020D01C002080B584B000AF7860B2
:102400007B68FB607B68002B30D0FB68DA6AFB6876
:102410005B6C9A422AD0FB680433181C00F0F6FA71
:10242000FB685A6CFB68DA62FB689B69002B05DB72
:10243000FB68DB6A0522D21AFB689A61FB68DA6ADC
:102440000C4B1B689A4203D9FB68DA6A094B1A6085
:10245000FB68DA6A131C9B009B189B00064A9A18BB
:10246000FB680433101C191C00F078FABD4604B058
:1024700080BDC046D01C0020F41B002080B584B075
:1024800000AF786039603B1C0E3300221A803B1C81
:102490000E337A6812881A803B1C0E333A1C0E32B7
:1024A0001188C12292010A401A803B681A883B6851
:1024B000DB8913439AB23B68DB8813439AB23B68CB
:1024C0001B8913439AB23B685B8913439AB23B68FA
:1024D0009B89134399B23B1C0E333A1C0E3212886F
:1024E0000A431A807B683A1C0E3212881A803B1C01
:1024F0000E337A6892881A803B1C0E333A1C0E32D7
:1025000011881D4A0A401A803B6899883B1C0E338B
:102510003A1C0E3212880A431A807B683A1C0E322B
:1025200012889A803B681A8A7B681A823B1C0E3399
:102530007A6812881A803B1C0E333A1C0E321288BD
:1025400004218A431A803B6859883B1C0E333A1C8D
:102550000E3212880A431A807B683A1C0E321288A7
:102560001A807B689B8B9AB2044B13409AB27B68AB
:102570009A83BD4604B080BDFFF0FFFFFFF7FFFF69
:1025800080B582B000AF78600A1CFB1C1A70FB1C7F
:102590001B78002B08D07B681B889BB2402213431A
:1025A0009AB27B681A8007E07B681B889BB2402246
:1025B00093439AB27B681A80BD4602B080BDC04684
:1025C00080B582B000AF78600A1CBB1C1A807B68A3
:1025D0009B889AB2084B13409AB27B689A807B68BA
:1025E0009B889AB2BB1C1B8813439AB27B689A8063
:1025F000BD4602B080BDC046FFEFFFFF80B584B08E
:1026000000AF78600A1CFB1C1A700023FB607B681B
:10261000FB60FB680C33FB60FB68FA1C12781A70D5
:10262000BD4604B080BDC04680B584B000AF7860C0
:102630000023FB607B68FB60FB680C33FB60FB687E
:102640001B78DBB2181CBD4604B080BD80B582B0DB
:1026500000AF78600A1CFB1C1A70FB1C1B78002B57
:1026600009D07B681B889BB28022920113439AB2E7
:102670007B681A8007E07B681B889AB2034B134083
:102680009AB27B681A80BD4602B080BDFFDFFFFFB3
:1026900080B584B000AF78600A1CBB1C1A803B1C5C
:1026A0000F3300221A707B681B899BB2BA1C1288F8
:1026B00013409BB2002B04D03B1C0F3301221A7035
:1026C00003E03B1C0F3300221A703B1C0F331B78B6
:1026D000181CBD4604B080BD80B586B000AF7860E0
:1026E000396000237B6100233B610023FB600023F2
:1026F0007B6185E07B690122101C9840031C3B61D3
:102700003B681B683A691340FB60FA683B699A4270
:1027100073D13B681B79012B03D03B681B79022BDB
:1027200038D17B689B687A6952000321081C90406D
:10273000021CD2431A407B689A607B689A683B68A7
:102740005B79191C7B695B00081C9840031C1A43C9
:102750007B689A607B689B889BB27A6992B2012100
:10276000081C9040021C92B2D24392B213409AB21B
:102770007B689A807B689B889AB23B689B79191C1E
:102780007B699BB2081C9840031C9BB213439AB20E
:102790007B689A807B681B687A6952000321081C59
:1027A0009040021CD2431A407B681A607B681A680A
:1027B0003B681B79191C7B695B00081C9840031C53
:1027C0001A437B681A607B68DB687A6992B25200B0
:1027D0000321081C9040021CD2431A407B68DA6037
:1027E0007B68DA683B68DB79191C7B695B00081C35
:1027F0009840031C1A437B68DA607B6901337B6174
:102800007B690F2B00D875E7BD4606B080BDC0467A
:1028100080B582B000AF78607B68084A1A607B6838
:1028200000221A717B6802225A717B6800229A7119
:102830007B680022DA71BD4602B080BDFFFF000058
:1028400080B582B000AF7860BB1C19807B1C1A7009
:102850007B1C1B78002B04D0BB1C1A887B689A61F8
:1028600003E07B68BA1C12881A85BD4602B080BDA1
:1028700090B585B000AF7860BB1C19807B1C1A70C6
:102880000023FB600023BB607B1C1A78BB1C1988EB
:1028900007230B409B00111C99400B1CFB60BB1CC9
:1028A0001B88DB089BB21A1CBB1C1B88DB089BB275
:1028B000191C7B6808318900CB58B91C088807218E
:1028C000014089000F20041C8C40211CC943194081
:1028D0007B6808329200D150BB1C1B88DB089BB27E
:1028E0001A1C7B6808329200D258FB681343BB6005
:1028F000BB1C1B88DB089BB21A1C7B680832920049
:10290000B968D150BD4605B090BDC04680B582B013
:1029100000AF78607B681A1C08327B685A607B685D
:10292000012252429A607B681A1C08327B68DA6086
:102930007B681A1C08327B681A617B6800221A6067
:10294000BD4602B080BDC04680B582B000AF7860A1
:102950007B6800221A61BD4602B080BD80B584B09C
:1029600000AF786039607B685B68FB603B68FA6841
:102970005A60FB689A683B689A60FB689B683A6893
:102980005A60FB683A689A603B687A681A617B68AB
:102990001B685A1C7B681A60BD4604B080BDC046E7
:1029A00080B584B000AF786039603B681B68BB605D
:1029B000BB68013303D17B681B69FB600CE07B685B
:1029C0000833FB6002E0FB685B68FB60FB685B68E8
:1029D0001A68BB689A42F6D9FB685A683B685A6025
:1029E0003B685B683A689A603B68FA689A60FB6883
:1029F0003A685A603B687A681A617B681B685A1C9F
:102A00007B681A60BD4604B080BDC04680B584B006
:102A100000AF78607B681B69FB607B685B687A68E5
:102A200092689A607B689B687A6852685A60FB6813
:102A30005A687B689A4203D17B689A68FB685A603F
:102A40007B6800221A61FB681B685A1EFB681A60CB
:102A5000FB681B68181CBD4604B080BD80B58CB0F7
:102A600000AF786039600023FB620023BB62002363
:102A70007B627B681B680122191C91430A1C7B68DE
:102A80001A607B685B687B627A6A474B13407B62A3
:102A90003B689B687A6A13437B627B687A6A5A60F8
:102AA0007B681B687B627A6A404B13407B623B68A1
:102AB0005A683B68DB681A433B681B6913437A6AB0
:102AC00013437B627B687A6A1A607B689B687B62CF
:102AD0007A6A374B13407B623B685B697A6A1343BF
:102AE0007B627B687A6A9A603B1C0833181CFDF78E
:102AF0003DFD7A682F4B9A4204D13B1C08339B69F9
:102B0000BB6203E03B1C08339B68BB627B681A68AE
:102B100080231B02134014D0BB6A5A003B681B6819
:102B2000101C191C00F04EFE031CFB62BB6A5A000D
:102B30003B681B68101C191C00F088FE0B1C7B6294
:102B400010E03B681B68B86A191C00F03BFE031CD0
:102B5000FB623B681B68BA6A101C191C00F076FE09
:102B60000B1C7B623B681B685A087B6A9A4202D83E
:102B7000FB6A0133FB627B681A6880231B021340E7
:102B80000AD0FA6A0F2313405B087B62FA6A0A4B89
:102B90001A407B6A1343FB62FB6A9AB27B689A8194
:102BA000BD460CB080BDC046FFCFFFFFF3E9FFFF7D
:102BB000FFFCFFFF00380140F0FF000080B582B04D
:102BC00000AF78600A1CFB1C1A70FB1C1B78002BE2
:102BD00006D07B681B6801221A437B681A6007E0F5
:102BE0007B681B680122191C91430A1C7B681A60D0
:102BF000BD4602B080BDC04680B582B000AF7860EF
:102C00000A1CBB1C1A80BB1C1B88DB05DB0D9AB29F
:102C10007B681A85BD4602B080BDC04680B584B0D1
:102C200000AF786039603B1C0F3300221A707B685C
:102C3000DB693A68134004D03B1C0F3301221A7041
:102C400003E03B1C0F3300221A703B1C0F331B7830
:102C5000181CBD4604B080BD80B584B000AF78605C
:102C600039607B68FB60FB68002B01D172B6FEE720
:102C700000F06EFCFB681A68FB68D96BFB681B6C84
:102C80004B43D218FB685A60FB6800229A63FB68CA
:102C90001A68FB689A60FB681A68FB68DB6B591E50
:102CA000FB681B6C4B43D218FB68DA60FB6801229F
:102CB00052425A64FB68012252429A643B68002BDC
:102CC0000ED1FB681B69002B14D0FB681033181C55
:102CD000FFF7C4F8031C012B0CD100F02BFC09E01A
:102CE000FB681033181CFFF711FEFB682433181C17
:102CF000FFF70CFE00F03CFC0123181CBD4604B09D
:102D000080BDC04680B588B000AFF860B960FB1DDB
:102D10001A700023FB61FB68002B2ED05420FDF7B6
:102D200019FA031CBB61BB69002B26D0FB68BA688B
:102D3000534301337B617B69181CFDF70BFA021CBE
:102D4000BB691A60BB691B68002B12D0BB69FA68AB
:102D5000DA63BB69BA681A64BB69181C0121FFF702
:102D60007BFFBA69F91D50230978D154BB69FB6117
:102D700003E0BB69181CFDF78BFAFB69002B01D13E
:102D800072B6FEE7FB69181CBD4608B080BDC046A0
:102D900080B588B000AFF860B9607A603B6000230E
:102DA000FB61FB68BB61BB69002B01D172B6FEE71A
:102DB000BB68002B03D1BB691B6C002B01D1012325
:102DC00000E00023002B01D172B6FEE73B68022B26
:102DD00003D1BB69DB6B012B01D1012300E0002390
:102DE000002B01D172B6FEE7FFF78CFA031C002B13
:102DF00002D17B68002B01D1012300E00023002BCE
:102E000002D172B6FEE7C04600F0A2FBBB699A6B26
:102E1000BB69DB6B9A4202D33B68022B19D1B969BB
:102E2000BA683B68081C111C1A1C00F0B9F9BB6990
:102E30005B6A002B09D0BB692433181CFFF70EF81E
:102E4000031C012B01D100F075FB00F091FB012365
:102E500059E07B68002B03D100F08AFB002352E08D
:102E6000FB69002B06D13B1C1033181CFFF752F8EE
:102E70000123FB6100F07CFBFEF7B8FD00F068FB6E
:102E8000BB695B6C013302D1BB6900225A64BB6928
:102E90009B6C013302D1BB6900229A6400F068FB8D
:102EA0003A1C10323B1D101C191CFFF74BF8031C79
:102EB000002B21D1BB69181C00F066FA031C002B03
:102EC00013D0BB691A1C10327B68101C191CFEF74A
:102ED00067FFBB69181C00F0F5F9FEF793FD031CB2
:102EE000002B90D100F026FB8DE7BB69181C00F089
:102EF000E9F9FEF787FD86E7BB69181C00F0E2F9E7
:102F0000FEF780FD0023181CBD4608B080BDC046FA
:102F100080B588B000AFF860B9607A603B60FB684C
:102F2000BB61BB69002B01D172B6FEE7BB68002B09
:102F300003D1BB691B6C002B01D1012300E00023EE
:102F4000002B01D172B6FEE73B68022B03D1BB69AF
:102F5000DB6B012B01D1012300E00023002B01D109
:102F600072B6FEE700F01AFB031C7B61BB699A6B2B
:102F7000BB69DB6B9A4202D33B68022B26D1B9694D
:102F8000BA683B68081C111C1A1C00F009F9BB69DF
:102F90009B6C013312D1BB695B6A002B13D0BB69F8
:102FA0002433181CFEF75AFF031C002B0BD07B6840
:102FB000002B08D07B6801221A6004E0BB699B6C7F
:102FC0005A1CBB699A640123FB6101E00023FB6189
:102FD0007B69181C00F0E8FAFB69181CBD4608B0B4
:102FE00080BDC04680B58AB000AFF860B9607A6035
:102FF0003B6000237B62FB683B623B6A002B01D194
:1030000072B6FEE7BB68002B03D13B6A1B6C002B3A
:1030100001D1012300E00023002B01D172B6FEE7AD
:10302000FFF770F9031C002B02D17B68002B01D144
:10303000012300E00023002B02D172B6FEE7C04658
:1030400000F086FA3B6A9B6B002B3DD03B6ADB6845
:10305000FB613A6ABB68101C191C00F00BF93B6855
:10306000002B1CD13B6A9B6B5A1E3B6A9A633B6ADE
:103070001B68002B04D1FFF737F9021C3B6A5A602A
:103080003B6A1B69002B1BD03B6A1033181CFEF7F0
:10309000E5FE031C012B13D100F04CFA10E03B6A53
:1030A000FA69DA603B6A5B6A002B09D03B6A243319
:1030B000181CFEF7D3FE031C002B01D000F03AFAD7
:1030C00000F056FA012367E07B68002B03D100F083
:1030D0004FFA002360E07B6A002B06D13B1C1433BF
:1030E000181CFEF717FF01237B6200F041FAFEF780
:1030F0007DFC00F02DFA3B6A5B6C013302D13B6A28
:1031000000225A643B6A9B6C013302D13B6A002265
:103110009A6400F02DFA3A1C14323B1D101C191C45
:10312000FEF710FF031C002B2FD13B6A181C00F088
:1031300015F9031C002B21D03B6A1B68002B08D11A
:1031400000F006FA3B6A5B68181CFFF7F7F800F01E
:103150000FFA3B6A1A1C24327B68101C191CFEF7FC
:103160001FFE3B6A181C00F0ADF8FEF74BFC031C79
:10317000002B00D063E700F0DDF960E73B6A181C24
:1031800000F0A0F8FEF73EFC59E73B6A181C00F07F
:1031900099F8FEF737FC0023181CBD460AB080BD25
:1031A00080B584B000AFF860B9607A60FB681B6CD2
:1031B000002B0CD1FB681B68002B53D1FB685B68AC
:1031C000181CFFF719F9FB6800225A604AE07B6877
:1031D000002B1BD1FB689968FB681B6CBA68081C44
:1031E000111C1A1C00F098FBFB689A68FB681B6CAA
:1031F000D218FB689A60FB689A68FB685B689A4221
:1032000030D3FB681A68FB689A602BE0FB68D968CA
:10321000FB681B6CBA68081C111C1A1C00F07CFBB4
:10322000FB68DA68FB681B6C5B42D218FB68DA60EB
:10323000FB68DA68FB681B689A4207D2FB685A6829
:10324000FB681B6C5B42D218FB68DA607B68022B60
:1032500008D1FB689B6B002B04D0FB689B6B5A1E4C
:10326000FB689A63FB689B6B5A1CFB689A63BD46BC
:1032700004B080BD80B582B000AF786039607B68F3
:103280001B68002B1AD07B68DA687B681B6CD2182D
:103290007B68DA607B68DA687B685B689A4203D394
:1032A0007B681A687B68DA607B68DA687B681B6C0D
:1032B0003968081C111C1A1C00F02EFBBD4602B018
:1032C00080BDC04680B582B000AF786000F040F9A4
:1032D00012E07B685B6A002B13D07B682433181CD8
:1032E000FEF7BCFD031C002B01D0FEF779FE7B68C6
:1032F0009B6C5A1E7B689A647B689B6C002BE8DC95
:1033000000E0C0467B68012252429A6400F030F926
:1033100000F01EF912E07B681B69002B13D07B685C
:103320001033181CFEF79AFD031C002B01D0FEF78A
:1033300057FE7B685B6C5A1E7B685A647B685B6CCB
:10334000002BE8DC00E0C0467B68012252425A6450
:1033500000F00EF9BD4602B080BDC04680B584B015
:1033600000AF786000F0F4F87B689B6B002B02D113
:103370000123FB6001E00023FB6000F0F9F8FB682B
:10338000181CBD4604B080BD80B584B000AF786025
:1033900000F0DEF87B689A6B7B68DB6B9A4202D1A7
:1033A0000123FB6001E00023FB6000F0E1F8FB6813
:1033B000181CBD4604B080BD80B584B000AF7860F5
:1033C00039600023FB6015E00D4BFA68D200D3583A
:1033D000002B0CD10A4BFA68D2003968D150084A48
:1033E000FB68DB00D31804337A681A6005E0FB68D9
:1033F0000133FB60FB68072BE6D9BD4604B080BDF6
:10340000EC1C002080B584B000AF786039607B6828
:10341000FB6000F09DF8FB685B6C013302D1FB6838
:1034200000225A64FB689B6C013302D1FB680022C6
:103430009A6400F09DF8FB689B6B002B07D1FB683A
:103440001A1C24323B68101C191CFEF7DFFCFB68B9
:10345000181CFFF737FFBD4604B080BD80B584B0AF
:1034600000AFF860B9607A60FB68043BFB60FB6802
:10347000802252041A60FB68043BFB60BA68FB6858
:103480001A60FB68043BFB60084AFB681A60FB6833
:10349000143BFB607A68FB681A60FB68203BFB60AA
:1034A000FB68181CBD4604B080BDC046B13400089E
:1034B00080B500AF034B1B68013301D072B6FEE745
:1034C00072B6FEE72002002080B500AFBD4680BD89
:1034D000064A13681868203080F30988022080F3B8
:1034E00014883FBCAE4662B600BDC046F01B00204B
:1034F00080B500AF0D4B0D4A1268FF2109040A4345
:103500001A600A4B094A1268FF2109060A431A6029
:1035100000F08AF8064B00221A60FFF7D9FFFFF788
:10352000C7FF0023181CBD4680BDC04620ED00E04B
:103530002002002080B500AF044B802252051A60A3
:10354000BFF34F8FBFF36F8FBD4680BD04ED00E02A
:1035500080B500AF72B6054B1B685A1C034B1A604E
:10356000BFF34F8FBFF36F8FBD4680BD2002002099
:1035700080B500AF084B1B68002B01D172B6FEE787
:10358000054B1B685A1E044B1A60034B1B68002B2B
:1035900000D162B6BD4680BD20020020EFF310804E
:1035A00072B670470023181C80F310887047C0461D
:1035B000EFF309800E4B1A6820381060F0C04446C3
:1035C0004D4656465F46F0C008B572B6FEF770FB32
:1035D00062B60CBC116808681030F0C8A046A94655
:1035E000B246BB4680F309882038F0C81847C04669
:1035F000F01B002080B582B000AFFFF7CFFF031CA7
:103600007B60FEF795FA031C002B03D0054B80224C
:1036100052051A607B68181CFFF7C6FFBD4602B052
:1036200080BDC04604ED00E098B500AF074C084BE4
:103630001B68181CFA23990000F0C4F8031C013B16
:103640002360044B07221A60BD4698BD14E000E0D9
:103650002402002010E000E080B500AF1B4B1B4AA5
:10366000126801210A431A60184B184A5168184A17
:103670000A405A60154B154A1168164A0A401A60EA
:10368000124B124A1168144A0A401A600F4B0F4A33
:103690005168124A0A405A600C4B0C4AD26A0F21F8
:1036A0008A43DA62094B094A116B0D4A0A401A63D0
:1036B000064B064A526B01218A435A63034B002290
:1036C0009A6000F00FF8BD4680BDC0460010024071
:1036D0000CB8FFF8FFFFF6FEFFFFFBFFFFFFC0FF88
:1036E000ACFEFFFF80B582B000AF00237B600023FB
:1036F0003B60314B304A1268802149020A431A600C
:103700002D4B1A6880239B0213403B607B6801337A
:103710007B603B68002B04D17A68A023DB009A42CF
:10372000EED1254B1A6880239B02134002D001235F
:103730003B6001E000233B603B68012B38D11F4B0D
:1037400011221A601C4B1C4A52685A601A4B1A4AC2
:1037500052685A60184B184A5168194A0A405A6010
:10376000154B154A5268882149030A435A60124B87
:10377000114A1268802149040A431A60C0460E4B60
:103780001A6880239B041340F9D00B4B0A4A5268F5
:1037900003218A435A60084B074A526802210A43B0
:1037A0005A60C046044B5A680C231340082BF9D1C9
:1037B000BD4602B080BDC04600100240002002405D
:1037C000FFFFC0FF002934D00123002210B488423B
:1037D0002CD301242407A14204D2814202D2090140
:1037E0001B01F8E7E400A14204D2814202D2490061
:1037F0005B00F8E7884201D3401A1A434C08A04204
:1038000002D3001B5C0822438C08A04202D3001B99
:103810009C082243CC08A04202D3001BDC082243B0
:10382000002803D01B0901D00909E3E7101C10BCD4
:103830007047002801D00020C04307B4024802A10D
:103840004018029003BDC046190000000029F0D0C6
:1038500003B5FFF7B9FF0EBC4243891A1847C046AB
:103860007047C046F0B5032A32D90B1C03439C07AE
:1038700030D1151F6C07E60FB4460F680668031DAC
:103880000C1DBE4224D12A1E032A1FD960460028DF
:1038900008D0211C181C05680E6804330434B54296
:1038A00011D015E0211C181C07680D68043304347E
:1038B000AF420DD1211C181C06680F68043A04336E
:1038C0000434BE4204D1043A032AEBD8211C181C4C
:1038D000002A1ED004780D78AC420AD1431C82180D
:1038E000D01AC60712D501311C780D780133AC42CD
:1038F0000CD0601B0EE01C784D785F1CAC42F8D1F8
:103900005C787578711C7B1CAC42F2D14E1C9342E2
:10391000F1D10020F0BDC046F0B54F464646C0B4D8
:103920000F2A72D90B1C03439C0700D090E0171C90
:10393000103F3C09013427010C683B1C0460103B1C
:10394000DE064B68CD1943608C68F60F8460CB6847
:10395000041CC3600B1C103310349D4227D0002E72
:103960000BD0196821605E6866609968A160DE68A6
:103970001033E66010349D4219D0196821605E68EA
:1039800066609968A160DE68191CE6601B69261CE8
:1039900023614C6974618B69B361CC691031F46146
:1039A0000B1C1036341C103310349D42E5D13F18E7
:1039B0000F21B846114003294DD904398E08B300B0
:1039C0000433EC18A446043B2C1C5F0708CC41468A
:1039D000B14608C1FE0F64450FD0002E03D080CC45
:1039E00080C1644509D0271C08CF0E1C08C6646836
:1039F0004C603C1D311D6445F5D1494601318E00B6
:103A00000327AD193A40464401E00D1C061C002A6C
:103A10001AD02F78B218F343D11801243770013629
:103A20000C40013596420FD0002C05D02B78013583
:103A300033700136964207D0297831706C780235A0
:103A4000747002369642F7D10CBC90469946F0BD90
:103A5000061C0D1CDDE73E1C0A1CD8E7F0B58307E9
:103A600000D181E0541E002A7DD0CDB2031C032674
:103A7000E70711D5431C0570334211D01D70013387
:103A8000941E33420CD0621E002C6CD01D7001338A
:103A9000141C334204D0013C1D7001333342F2D177
:103AA000032C49D9FF220A4017023A4315042A433E
:103AB0000F2C5CD9261C103E370901373D015E19D9
:103AC000103DEF061A605A609A60DA601033FD0FFD
:103AD0009E4213D0002D06D01A605A609A60DA60B8
:103AE00010339E420AD01A605A609A60DA601A61F6
:103AF0005A619A61DA6120339E42F4D10F231C404F
:103B0000351C331C032C17D9261FB7080137BE00FC
:103B1000AB19043E770704C5FE0F9D420AD0002E64
:103B200002D004C59D4205D02F1C04C76A603D1D0C
:103B30009D42F9D103221440002C14D01C19DD43FE
:103B4000C9B266190127197001333E40A3420AD059
:103B5000002E03D019700133A34204D0197059709C
:103B60000233A342FAD1F0BD031C141C98E71D1CBC
:103B7000CAE7C04608000000581900005461736B82
:103B80002031000000AABBCCDE020000546D722080
:103B900053766300EC140008EC140008EC140008E1
:103BA000821500084A15000874150008EC14000876
:103BB000EC140008821500084A150008546D725173
:103BC0000000000049444C4500000000A5A5A5A543
:103BD000A5A5A5A5A5A5A5A5A5A5A5A5A5A5A5A595
:103BE00058190000581900000000000001020304E9
:103BF0000102030406070809E8039AAE009C00AA24
:103C0000BBCCDE0201F4000102030405060708092B
:103C100000000000000000000000000000000000A4
:103C20000000000000000000000000000000000094
:103C30000000000000000000000000000000000084
:103C40000000000000000000000000000000000074
:103C50000000000000000000000000000000000064
:103C60000000000000000000000000000000000054
:103C70000000000000000000000000000000000044
:103C80000000000000000000000000000000000034
:103C90000000000000000000000000000000000024
:103CA0000000000000000000000000000000000014
:103CB0000000000000000000000000000000000004
:103CC00000000000000000000000000000000000F4
:103CD00000000000000000000000000000000000E4
:103CE00000000000000000000000000000000000D4
:103CF00000000000000000000000000000000000C4
:103D000000000000000000000000000000000000B3
:103D100000000000000000000000000000000000A3
:103D20000000000000000000000000000000000093
:103D30000000000000000000000000000000000083
:103D40000000000000000000000000000000000073
:103D50000000000000000000000000000000000063
:103D60000000000000000000000000000000000053
:103D70000000000000000000000000000000000043
:103D80000000000000000000000000000000000033
:103D90000000000000000000000000000000000023
:103DA0000000000000000000000000000000000013
:103DB0000000000000000000000000000000000003
:103DC00000000000000000000000000000000000F3
:103DD00000000000000000000000000000000000E3
:103DE00000000000000000000000000000000000D3
:103DF000000000000000000000000000FFFFFFFFC7
:103E0000AAAAAAAA006CDC020000000000000000C0
:083E1000010203040607080982
:0400000508000000EF
:00000001FF
