:020000040800F2
:1000000000200020591800089D1800089D180008BD
:1000100000000000000000000000000000000000E0
:100020000000000000000000000000009D18000813
:100030000000000000000000C9230008DD250008C2
:100040009D1800089D1800089D1800089D180008BC
:100050009D1800089D1800089D1800089D180008AC
:100060009D1800089D1800089D1800089D1800089C
:100070009D1800089D1800089D1800089D1800088C
:100080009D1800089D180008000000009D18000839
:100090009D1800089D1800089D1800089D1800086C
:1000A0009D1800089D1800089D1800089D1800085C
:1000B0009D180008000000009D18000800000000C6
:1000C0005FF808F180B582B000AF021CFB1D1A700A
:1000D000C046104B181C022101F0ECFC031C002B45
:1000E000F7D00C4AFB1D1B78101C191C01F098FC62
:1000F000C046084B181C012101F0DCFC031C002B3E
:10010000F7D0044B181C01F0A1FC031C181CBD46C1
:1001100002B080BD0038004090B585B000AF0A1C29
:10012000FB1D011C1970BB1D1A70194A80235B014D
:10013000101C191C01F0A4FDBB1D1B781A1C1F23E9
:100140001340DAB2FB1D1B781343DBB2DBB2181C81
:10015000FFF7B8FFBB1D1B785BB2002B02DAFF2054
:10016000FFF7B0FF3C1C0F34FF20FFF7ABFF031C71
:100170002370074A80235B01101C191C01F072FDDB
:100180003B1C0F331B78181CBD4605B090BDC04604
:100190000004004880B582B000AFFB1D1870BB1D85
:1001A00019707B1D1A70124A80235B01101C191CE8
:1001B00001F066FDBB1D1B781A1C1F231340DAB229
:1001C000FB1D1B781343DBB2DBB2181CFFF77AFF71
:1001D0007B1D1B78181CFFF775FF054A80235B0108
:1001E000101C191C01F03EFDBD4602B080BDC0468A
:1001F0000004004880B582B000AF104A80235B0144
:10020000101C191C01F03CFDFF20FFF75BFF0B4A9F
:1002100080235B01101C191C01F024FD084B0022F7
:100220001A7000237B6002E07B6801337B607A6890
:10023000044B9A42F8D9BD4602B080BD0004004884
:10024000300000201F4E000080B584B000AF021CBB
:10025000FB1D1A70FB1D1A781F2313401A2B22DC7A
:10026000FB1D1B785B09D9B23B1C0F3303220A40EC
:100270001A700E4B1B78DBB23A1C0F3212789A427E
:1002800011D0A0201F210322FFF784FF3B1C0F3356
:100290001B7880201F211A1CFFF77CFF034B3A1CA0
:1002A0000F3212781A70BD4604B080BD30000020B5
:1002B00080B582B000AF021CFB1D1A70FB1D1B78BD
:1002C000181CFFF7C1FFFB1D1B780020191CFFF74E
:1002D00023FF031C181CBD4602B080BD90B583B03F
:1002E00000AF021CFB1D1A70FB1D1B78181CFFF7CA
:1002F000ABFFFB1D1B780020191CFFF70DFF031C33
:100300001C1CFB1D1B780133DBB20020191CFFF7FE
:1003100003FF031C1B029BB2221C13439BB29BB224
:10032000181CBD4603B090BD80B582B000AF0A1C5A
:10033000FB1D011C1970BB1D1A70FB1D1B78181CBE
:10034000FFF782FFFB1D1A78BB1D1B784020111C94
:100350001A1CFFF71FFFBD4602B080BD80B582B0FA
:1003600000AF0A1CFB1D011C19703B1D1A80FB1DF0
:100370001B78181CFFF768FF3B1D1B88DBB2FA1DBA
:1003800012784020111C1A1CFFF704FFFB1D1B787C
:100390000133DAB23B1D1B881B0A9BB2DBB2402043
:1003A000111C1A1CFFF7F6FEBD4602B080BDC04608
:1003B00080B582B000AF0A1CFB1D011C1970BB1D6B
:1003C0001A70FB1D1B78181CFFF73EFFFB1D1A78E7
:1003D000BB1D1B78A020111C1A1CFFF7DBFEBD46BD
:1003E00002B080BD80B582B000AF0A1CFB1D011CAD
:1003F0001970BB1D1A70FB1D1B78181CFFF724FF1A
:10040000FB1D1A78BB1D1B788020111C1A1CFFF7DE
:10041000C1FEBD4602B080BD80B582B000AF78603D
:100420000A1CBB1C1A80154A80235B01101C191C76
:1004300001F026FC3A20FFF745FE09E0FF20FFF718
:1004400041FE031C1A1C7B681A707B6801337B60B9
:10045000BB1C1B885A1E9341DBB2BA1CB91C09880D
:1004600001391180002BE9D1044A80235B01101C63
:10047000191C01F0F7FBBD4602B080BD0004004826
:1004800080B582B000AF78600A1CBB1C1A80144A89
:1004900080235B01101C191C01F0F2FB7A20FFF78E
:1004A00011FE07E07B681B787A6801327A60181CBD
:1004B000FFF708FEBB1C1B885A1E9341DBB2BA1C17
:1004C000B91C098801391180002BEBD1044A802323
:1004D0005B01101C191C01F0C5FBBD4602B080BDBC
:1004E0000004004880B582B000AF0A1CFB1D011C4F
:1004F00019703B1D1A80FB1D1B78D420191CFFF7B7
:1005000013FF3B1D1B88D620191CFFF727FFC04691
:10051000EA20FFF7CDFE031C1A1C01231340F7D17C
:10052000BD4602B080BDC04680B58AB000AF7860DD
:100530008023DB02181C012100F0E6FE8023DB0192
:10054000181C012100F0FEFE3B1C0C3380225201DE
:100550001A603B1C0C3301221A713B1C0C33032222
:100560005A713B1C0C3300229A713B1C0C33012244
:10057000DA71934A3B1C0C33101C191C01F0BEFAB3
:100580003B1C0C33802292011A603B1C0C3302226C
:100590001A713B1C0C3303225A713B1C0C33002292
:1005A0009A713B1C0C330122DA71854A3B1C0C33D7
:1005B000101C191C01F0A2FA3B1C0C338022120201
:1005C0001A603B1C0C3302221A713B1C0C330322B1
:1005D0005A713B1C0C3300229A713B1C0C330122D4
:1005E000DA71774A3B1C0C33101C191C01F086FA97
:1005F0003B1C0C338022D2011A603B1C0C330222BC
:100600001A713B1C0C3303225A713B1C0C33002221
:100610009A713B1C0C330122DA71694A3B1C0C3382
:10062000101C191C01F06AFA654B181C0D210022E0
:1006300001F034FB624B181C0F21002201F02EFB4D
:100640005F4B181C0E21002201F028FB3B1C1433C9
:1006500000221A803B1C1433822252005A803B1C19
:100660001433E022D2009A803B1C14330022DA803B
:100670003B1C143300221A813B1C1433802292004D
:100680005A813B1C143310229A813B1C14330022E4
:10069000DA813B1C143307221A824A4A3B1C14336A
:1006A000101C191C01F0FCF8464A80235B01101C49
:1006B000191C01F097F9434B181C002101F0D8F9DF
:1006C000404B181C012101F06DF93D4A80235B016C
:1006D000101C191C01F0C6FAFFF78CFD0820002140
:1006E000FFF73CFE0820FFF7F9FD0C200021FFF783
:1006F00035FE354B0A20191CFFF730FE334B002224
:100700001A80C0200D21FFF70FFEC1200021FFF746
:100710000BFEC2203321FFF707FE2D4BCA20191C08
:10072000FFF71CFEC4201521FFF7FEFDC620122195
:10073000FFF7FAFDC7200C21FFF7F6FD7B681B7859
:10074000E420191CFFF7F0FD7B6801331B78E520DE
:10075000191CFFF7E9FD7B6802331B78E220191CA6
:10076000FFF7E2FD7B6803331B78E320191CFFF7DA
:10077000DBFD7B6804331B78E020191CFFF7D4FDF8
:100780007B6805331B78E120191CFFF7CDFD802322
:100790005B000020191CFFF7A5FE80235B001020E2
:1007A000191CFFF79FFE0B4B1420191CFFF79AFE34
:1007B0001F200421FFF716FEBD460AB080BDC046CB
:1007C0000004004800380040FF19000032000020FB
:1007D000DC0500007604000080B582B000AF7860D0
:1007E0000A1CBB1C1A800FE01C20FFF761FD031CD4
:1007F0001A1C0223134007D01F208021FFF7F2FDAF
:100800001F208021FFF7D4FD1F20FFF751FD031C9F
:100810001A1C08231340E7D1D0235B010220191CC6
:10082000FFF79CFD114B181C0121FFF729FE7A6888
:10083000BB1C1B88101C191CFFF722FED0235B0178
:100840000420191CFFF78AFDBB1C1B88D022520113
:100850009B189BB20620191CFFF780FD1F20082162
:10086000FFF7C0FDBD4602B080BDC046282B000882
:1008700080B584B000AF78600A1CBB1C1A803B1C9A
:100880000E3300221A803920FFF712FD031C002BC3
:100890004ED02B4B1B889BB20020191CFFF75EFD2E
:1008A000274B181C0221FFF7B7FD3B1C0A33181C0D
:1008B0000221FFF7B1FD3B1C0833181C0221FFF792
:1008C000ABFD3B1C08331B881A1C802313401AD035
:1008D0003B1C0A331A883B1C0E33043A1A803A1C1C
:1008E0000E32BB1C12881B889A4204D93B1C0E3363
:1008F000BA1C12881A807A683B1C0E331B88101CA5
:10090000191CFFF789FD0E4B1B889BB2013B9AB265
:100910003B1C0C33D204D20C1A803B1C0C331B88BA
:100920000C20191CFFF71AFD1E204021FFF75AFD6D
:100930003B1C0E331B88181CBD4604B080BDC0464E
:100940003200002080B588B000AF80239B02181CC5
:10095000012100F0D9FC80239B02181C012100F02A
:10096000F1FC9023DB05181C0E21012201F096F901
:100970009023DB05181C0F21012201F08FF93B1C8D
:10098000C02212021A603B1C03225A713B1C022235
:100990001A713B1C00229A713B1C0122DA719023D0
:1009A000DA053B1C101C191C01F0A8F83B1C08338D
:1009B000962292011A603B1C083300225A603B1CAD
:1009C000083300229A603B1C08330022DA603B1C8B
:1009D000083300225A613B1C08330C221A61074A73
:1009E0003B1C0833101C191C01F0D6FB034B181CD0
:1009F000012101F081FCBD4608B080BD00440040EB
:100A000080B582B000AF021CBB1D1A80C046094BE6
:100A1000181C802101F0A0FC031C002BF7D0054A14
:100A2000BB1D1B88101C191C01F084FCBD4602B0C4
:100A300080BDC0460044004080B500AF0F4B1B781E
:100A4000DBB2012B10D10E4B1B78012B01D100F032
:100A50004BFE0C4B1B78DBB2012B01D100F068FD83
:100A6000064B00221A7006E0044B1B78DBB2013BF8
:100A7000DAB2024B1A70BD4680BDC0463500002078
:100A8000940100203600002080B500AF154B164AB7
:100A90001A60164B07221A60154B154A1268FF217F
:100AA00009060A431A60134B124A126812490A4394
:100AB0001A6000F065FC01F091FA104B1B78DBB274
:100AC0000133DAB20D4B1A700D49CA235A010D4B8E
:100AD000081C002100F0B0FD0A4B181C01F066FC58
:100AE000BD4680BD14E000E0FF52070010E000E0CA
:100AF0001CED00E020ED00E00000FFFF35000020CD
:100B0000AD2600085801002080B500AF094B0A4A05
:100B10001A60084B1A68094B1A60064B1B680122C1
:100B20005A71044B1B68181C00F0C0FCFFF784FFCF
:100B3000BD4680BD6801002038000020640100200F
:100B400080B586B000AF3960BB1D011C19803B1D0C
:100B50001A803B687B613B1D1B88013B3A68D318B8
:100B60003B6122E07B691B781B0299B27B690133F0
:100B70001B781A1C3B1C0E338A181A80BB1DB91D2A
:100B80003A1C0E32098812888A181A80BA1D3B1C3A
:100B90000E3312881B889A4204D2BB1DBA1D1288DC
:100BA00001321A807B6902337B617A693B699A4220
:100BB000D8D37A693B699A421AD17B691B781A1C8F
:100BC0003B1C0E3312021A80BB1DB91D3A1C0E329B
:100BD000098812888A181A80BA1D3B1C0E331288A5
:100BE0001B889A4204D2BB1DBA1D128801321A809A
:100BF000BB1D1B88181CBD4606B080BD80B58EB0DD
:100C000000AF7860391C0C310622364B89181A1C4B
:100C10000623081C111C1A1C01F058FE3B1C0C3347
:100C2000181CFF21062201F0F3FE3B1C0C33C122ED
:100C3000D2009A813B1C0C3380225200DA813B1C8B
:100C40000C3308221A823B1C0C3306229A743B1C7C
:100C50000C330422DA743B1C0C33802252009A823B
:100C60003B1C0C332033181C0021062201F0D0FE5F
:100C7000391C0C3116221B4B89181A1C0623081C20
:100C8000111C1A1C01F022FE391C0C3126227B6833
:100C900089181A1C0423081C111C1A1C01F016FECA
:100CA0007A68114B101C191C042201F0B5FD031CBD
:100CB000002B08D13B1C0C331C33181C00210422D0
:100CC00001F0A6FE04E03B1C0C33074A1268DA610F
:100CD0003B1C0C33181C2A21FFF77EFDBD460EB0CD
:100CE00080BDC0462C2B00080800002080B582B0D3
:100CF00000AF78607B681A1C26322D4B101C191C23
:100D0000042201F089FD031C002B4ED17A687B6818
:100D10000633101C191C062201F0D8FD7B689A1DB1
:100D2000244B111C1A1C0623081C111C1A1C01F050
:100D3000CDFD7B681A1C20327B681633101C191CF1
:100D4000062201F0C3FD7B681A1C1632194B111CD8
:100D50001A1C0623081C111C1A1C01F0B7FD7B6825
:100D60001A1C26327B681C33101C191C042201F04B
:100D7000ADFD7B681A1C1C320D4B111C1A1C042380
:100D8000081C111C1A1C01F0A1FD7B68197D0022B2
:100D90000A401A75597D00220A4002210A435A75F9
:100DA0007B68181C2A21FFF717FDBD4602B080BDE5
:100DB000080000202C2B0008B0B584B000AF78608C
:100DC0000A1CBB1C1A807A682223D35C082B00D033
:100DD000A6E07A6822230021D1547B682422985C03
:100DE0000021014099542522985C0021014099542A
:100DF0007B68197E00220A401A76597E00220A403A
:100E00005A767A687B680633101C191C062201F09A
:100E10005DFD7B689A1D444B111C1A1C0623081C9F
:100E2000111C1A1C01F052FD7B681A1C1E327B68D3
:100E30001A33101C191C042201F048FD7B681A1C8F
:100E40001A323A4B111C1A1C0423081C111C1A1CC0
:100E500001F03CFD7B681A1C2232BB1C1B88223B24
:100E60009BB20020111C1A1CFFF76AFE031C1A1CFF
:100E70003B1C0E33D2431A803B1C0E331B881B02D3
:100E80009AB23B1C0E331B881B0A9BB29BB21343C6
:100E90009BB29AB27B68FF21101C084024215D5C44
:100EA00000242C4020435854120A91B225229C5C05
:100EB00000202040014399547B680E330020191C08
:100EC0001422FFF73DFE031C1A1C3B1C0C33D243BB
:100ED0001A803B1C0C331B881B029AB23B1C0C3340
:100EE0001B881B0A9BB29BB213439BB29AB27B68CE
:100EF000FF2111401C7E0020204001431976120A78
:100F000092B2587E002101400A435A76C320FFF76F
:100F100077FD7A68BB1C1B88101C191CFFF75CFC52
:100F2000BD4604B0B0BDC0462C2B00080800002010
:100F300090B587B000AF021C3960FB1D1A703B1CD6
:100F4000173300221A7052E03C1C14343B68181C02
:100F50006421FFF78DFC031C23803B1C14331B888A
:100F6000002B3DD03B683B613B691A7B5B7B1B02DE
:100F700013439AB2C123DB009A4213D13B68FB6052
:100F8000FB681A7D5B7D1B0213439AB280235B00D2
:100F90009A4203D1FB68181CFFF7A8FEC220FFF796
:100FA0002FFD1DE03B691A7B5B7B1B0213439BB249
:100FB000082B15D13B68BB60BB68DB7DFA1D12783E
:100FC0009A4201D1012318E0BB68DB7D012B07D1D8
:100FD0003A683B1C14331B88101C191CFFF7ECFEED
:100FE0003B1C17333A1C1732127801321A703B1C23
:100FF00017331B78FF2BA7D10023181CBD4607B061
:1010000090BDC04680B58CB000AF3F4B181CFFF7B9
:101010008BFA3E4B181CFFF7F1FD3B1C2E330022D0
:101020001A8022E03B1D181C2A21FFF721FC031C1B
:10103000002B13D03B1D9A89C123DB009A420DD1AE
:101040003B1D1A1C1C32314B101C191C042201F0D0
:10105000E3FB031C002B01D1002350E03B1C2E338B
:101060003A1C2E32128801321A803B1C2E331A8809
:10107000274B9A42D6D9274B181CFFF7BFFD3B1CC4
:101080002E3300221A8033E03B1D181C2A21FFF763
:10109000EFFB031C002B24D03B1D9A89C123DB00EE
:1010A0009A421ED13B1D9A8A80239B009A4218D1F6
:1010B0003B1D1A1C1C32174B101C191C042201F07A
:1010C000ABFB031C002B0CD1134A3B1C1A33111C25
:1010D0001A1C0623081C111C1A1C01F0F7FB012323
:1010E0000DE03B1C2E333A1C2E32128801321A803E
:1010F0003B1C2E331A88094B9A42C5D90023181C71
:10110000BD460CB080BDC0462C2B00080800002056
:10111000FE0F00000C00002000000020FE5F000019
:1011200080B59AB000AF3B1D0020191CFFF700FFEF
:101130000123181CBD461AB080BDC04680B588B0DA
:1011400000AF78600023FB610023BB6100237B615B
:1011500000233B610023FB60654B5A680C2313405E
:10116000FB61FB69042B07D0082B09D0002B30D181
:101170007B68604A1A6030E07B685E4A1A602CE047
:101180005B4B5A68F0239B031340BB61584B5A6872
:1011900080235B0213407B61BB699B0C0233BB6104
:1011A0007B69002B05D1BB69534A5A437B681A609F
:1011B00013E04F4BDA6A0F23134001333B614D4874
:1011C000396901F079FA031CBA695A437B681A60DD
:1011D00003E07B68474A1A60C046454B5A68F023D3
:1011E0001340FB61FB691B09FB61444AFB69D3188F
:1011F0001B78DBB2FB607B681A68FB68DA407B68AF
:101200005A603B4B5A68E023DB001340FB61FB69EB
:101210001B0AFB61394AFB69D3181B78DBB2FB6000
:101220007B685A68FB68DA407B689A60304B1A6BBF
:1012300080235B00134003D17B68314ADA6010E001
:101240002B4B5A688023DB01134005D17B689B68D8
:101250005A087B68DA6004E07B689B689A087B68C0
:10126000DA60234B1A6B4023134003D17B68254A75
:101270001A6103E07B68802212021A611C4B1A6B10
:101280001023134003D17B681A4A5A6103E07B683C
:101290001A687B685A61164B1A6B0323134004D1FA
:1012A0007B689A687B689A611EE0114B1A6B032376
:1012B0001340012B04D17B681A687B689A6113E0A4
:1012C0000B4B1A6B03231340022B04D17B68802243
:1012D00012029A6108E0064B1A6B03231340032B9A
:1012E00002D17B68034A9A61BD4608B080BDC04602
:1012F0000010024000127A0000093D001400002096
:10130000809FD5001280000080B582B000AF786069
:101310000A1CFB1C1A70FB1C1B78002B06D0084B08
:10132000074A51697A680A435A6106E0044B044A45
:1013300052697968C9430A405A61BD4602B080BD0E
:101340000010024080B582B000AF78600A1CFB1C20
:101350001A70FB1C1B78002B06D0084B074AD1697A
:101360007A680A43DA6106E0044B044AD269796874
:10137000C9430A40DA61BD4602B080BD0010024098
:1013800080B584B000AF1A4BBB601A4B7B603B1C2E
:101390000F3300221A7017E0BB683A1C0F32127824
:1013A0009A71BB6803225A71BB687A689A61BB68FC
:1013B0002033BB607B6820337B603B1C0F333A1CBF
:1013C0000F32127801321A703B1C0F331B78042B3A
:1013D000E2D9BB683A1C0F3212789A71BB680022BE
:1013E0009A61054B024A1A60BD4604B080BDC046F2
:1013F00038000020580000205C01002080B586B035
:1014000000AF78603B1C0F337A6812791A707B68E2
:1014100000225A71234B1B683B613B69002B06D1AC
:10142000214B01221A701F4B7A681A6037E03B6922
:101430001B793A1C0F3212789A420CD21A4B0122B5
:101440001A707B683A699A613B697A68DA61154B70
:101450007A681A6023E03B699B697B610BE07B69DA
:101460001B793A1C0F3212789A4208D37B693B6190
:101470007B699B697B617B69002BF0D100E0C046F2
:101480007B687A699A613B697A689A617B683A6994
:10149000DA617B69002B02D07B697A68DA61BD462C
:1014A00006B080BD600100203600002080B582B00B
:1014B00000AF78607B689B69002B07D17B68DB6994
:1014C000002B03D1194B00221A602BE07B68DB69EB
:1014D000002B0BD17B689A69144B1A607B68002241
:1014E0009A61124B1B680022DA611BE07B689B69E2
:1014F000002B07D17B68DB6900229A617B680022A0
:10150000DA610FE07B68DB697A6892699A617B68CF
:101510009B697A68D269DA617B6800229A617B688C
:101520000022DA61BD4602B080BDC04660010020E5
:1015300080B584B000AF274B1B68FB60264B1B684F
:10154000BB60BB68002B3FD0244B1B68FA689A42F3
:101550003AD1234B1B78DBB2012B35D8214B1B78BA
:10156000DBB2002B30D1204B00221A70FB1DFA6831
:1015700012791A70BB1DBA6812791A70FB685B7910
:10158000012B0AD0154BBA681A60BB6801225A7148
:10159000BB68181CFFF78AFF13E0BA1DFB1D127809
:1015A0001B789A4212D20D4BBA681A60FB68181C5D
:1015B000FFF724FFBB68181CFFF778FFBB68012208
:1015C0005A7100F0F7FE02E0C04600E0C046BD469A
:1015D00004B080BD6801002060010020640100208B
:1015E00035000020340000203600002080B582B095
:1015F00000AF0F4B1B78DBB20133DAB20C4B1A7021
:101600000C4B1B68002B03D1FFF716FA00230AE0EE
:10161000084B1B687B60074B1B689A69054B1A6077
:10162000FFF70AFA7B68181CBD4602B080BDC046B1
:10163000350000205C01002080B588B000AFF86064
:10164000B9607A603B603B1C1F337A681A70F96896
:10165000BA683B68081C111C1A1C00F097FF031C99
:10166000BB61FFF7C3FF031C7B617B69002B01D1CA
:10167000FF2333E07B69BA691A607B693A1C1F3229
:1016800012781A717B69012252425A617B690022E9
:101690009A617B690022DA617B69FF22DA717B69DA
:1016A00000229A607B690022DA607B6900221A615D
:1016B0007B68002B0DDB0B4B1B78DBB20133DAB2FE
:1016C000084B1A707B69181CFFF798FEFFF7B4F9F6
:1016D00002E07B6902225A717B699B79181CBD4626
:1016E00008B080BD3500002080B582B000AF244B2B
:1016F0001B78012B30D100F025FC214B00221A7001
:101700002AE000F04DFE1F4B5B781A1C3B1C1D4865
:10171000D100042241188A1803CA03C3194B5B780D
:101720000133181C032101F06BF80B1CDAB2154BC6
:101730005A70144B1B78013BDAB2124B1A7000F04E
:1017400029FE3B1C1B78012B05D13B1C5B78181C28
:1017500000F07CFF01E000E0C0460A4B1B78002B44
:10176000CFD100F01DFE074B1B78002B02D1064B9A
:1017700000221A7000F00EFEBD4602B080BDC046C9
:1017800095010020780100209401002080B582B0EE
:1017900000AF8023DB02181C0121FFF7B5FD3B1CC5
:1017A000181C00F047FA3B1C8022D2001A603B1C38
:1017B00001221A713B1C01225A71094A3B1C101C60
:1017C000191C00F09BF93B1C802212011A60044A8C
:1017D0003B1C101C191C00F091F9BD4602B080BDE5
:1017E0000004004880B500AFFFF79AFCFCE7C04654
:1017F00080B500AFC120FFF703F9102000F06AFBAD
:10180000F8E7C04680B500AFFFF7C0FFFFF79AF8D2
:10181000FFF7F8FBC020FFF7F3F8FFF735F90949A8
:10182000094A0A4B081C0021FFF706FF08498023DC
:101830001A02084B081C0021FFF7FEFEFFF764F9AF
:10184000FEE7C046E517000801800000F40500200F
:10185000F1170008F4030020002103E00A4B5B5855
:101860004350043109480A4B42189A42F6D3094AB8
:1018700002E0002313600432074B9A42F9D300F0D0
:10188000CFFDFFF7BFFF70473C2B00080000002092
:101890003000002030000020F8050020FEE70000A6
:1018A00080B584B000AF786039603B1C0E330022F5
:1018B0001A803B1C0E337A6812881A803B1C0E3348
:1018C0003A1C0E321188C12292010A401A803B68EC
:1018D0001A883B68DB8913439AB23B68DB88134361
:1018E0009AB23B681B8913439AB23B685B891343E6
:1018F0009AB23B689B89134399B23B1C0E333A1C46
:101900000E3212880A431A807B683A1C0E32128803
:101910001A803B1C0E337A6892881A803B1C0E3367
:101920003A1C0E3211881D4A0A401A803B68998879
:101930003B1C0E333A1C0E3212880A431A807B6815
:101940003A1C0E3212889A803B681A8A7B681A8287
:101950003B1C0E337A6812881A803B1C0E333A1CEB
:101960000E32128804218A431A803B6859883B1C36
:101970000E333A1C0E3212880A431A807B683A1CD6
:101980000E3212881A807B689B8B9AB2044B1340EC
:101990009AB27B689A83BD4604B080BDFFF0FFFF1A
:1019A000FFF7FFFF80B582B000AF78600A1CFB1C18
:1019B0001A70FB1C1B78002B08D07B681B889BB21D
:1019C000402213439AB27B681A8007E07B681B8829
:1019D0009BB2402293439AB27B681A80BD4602B004
:1019E00080BDC04680B582B000AF78600A1CBB1CC9
:1019F0001A807B689B889AB2084B13409AB27B6826
:101A00009A807B689B889AB2BB1C1B8813439AB24E
:101A10007B689A80BD4602B080BDC046FFEFFFFFE5
:101A200080B584B000AF78600A1CFB1C1A700023DC
:101A3000FB607B68FB60FB680C33FB60FB68FA1C97
:101A400012781A70BD4604B080BDC04680B584B01F
:101A500000AF78600023FB607B68FB60FB680C33A1
:101A6000FB60FB681B78DBB2181CBD4604B080BD70
:101A700080B582B000AF78600A1CFB1C1A70FB1C9A
:101A80001B78002B09D07B681B889BB280229201B7
:101A900013439AB27B681A8007E07B681B889AB26E
:101AA000034B13409AB27B681A80BD4602B080BDDA
:101AB000FFDFFFFF80B584B000AF78600A1CBB1C5D
:101AC0001A803B1C0F3300221A707B681B899BB263
:101AD000BA1C128813409BB2002B04D03B1C0F335E
:101AE00001221A7003E03B1C0F3300221A703B1CCA
:101AF0000F331B78181CBD4604B080BD80B586B07E
:101B000000AF7860396000237B6100233B610023D4
:101B1000FB6000237B6185E07B690122101C9840FB
:101B2000031C3B613B681B683A691340FB60FA6821
:101B30003B699A4273D13B681B79012B03D03B6808
:101B40001B79022B38D17B689B687A69520003218C
:101B5000081C9040021CD2431A407B689A607B6844
:101B60009A683B685B79191C7B695B00081C98408C
:101B7000031C1A437B689A607B689B889BB27A69D6
:101B800092B20121081C9040021C92B2D24392B240
:101B900013409AB27B689A807B689B889AB23B68B4
:101BA0009B79191C7B699BB2081C9840031C9BB253
:101BB00013439AB27B689A807B681B687A695200EB
:101BC0000321081C9040021CD2431A407B681A6013
:101BD0007B681A683B681B79191C7B695B00081CD1
:101BE0009840031C1A437B681A607B68DB687A693B
:101BF00092B252000321081C9040021CD2431A40AA
:101C00007B68DA607B68DA683B68DB79191C7B6982
:101C10005B00081C9840031C1A437B68DA607B69F0
:101C200001337B617B690F2B00D875E7BD4606B099
:101C300080BDC04680B582B000AF78607B68084A3E
:101C40001A607B6800221A717B6802225A717B68D5
:101C500000229A717B680022DA71BD4602B080BD15
:101C6000FFFF000080B582B000AF78600A1CBB1C8B
:101C70001A80BB1C1A887B689A61BD4602B080BD81
:101C800080B582B000AF78600A1CBB1C1A807B68EC
:101C9000BA1C12881A85BD4602B080BD90B585B0C9
:101CA00000AF7860BB1C19807B1C1A700023FB609E
:101CB0000023BB607B1C1A78BB1C198807230B40D0
:101CC0009B00111C99400B1CFB60BB1C1B88DB0894
:101CD0009BB21A1CBB1C1B88DB089BB2191C7B68BF
:101CE00008318900CB58B91C0888072101408900B8
:101CF0000F20041C8C40211CC94319407B6808320A
:101D00009200D150BB1C1B88DB089BB21A1C7B685D
:101D100008329200D258FB681343BB60BB1C1B887F
:101D2000DB089BB21A1C7B6808329200B968D1505C
:101D3000BD4605B090BDC04680B584B000AF7860A8
:101D400039603B68002B65D0344B1B68002B06D1F3
:101D50007B683A685A61314B7A681A6053E02F4BBE
:101D60001B68BB603B68FB604AE0FA68BB685B6964
:101D7000D31AFB60FB68002B2EDABB68DB69002BF3
:101D80000ED0BB68DB697A689A61BB68DA697B68E8
:101D9000DA617B68BA689A61BB687A68DA610AE0DE
:101DA0001E4B1A687B689A611C4B1B687A68DA6163
:101DB0001A4B7A681A607B689B695A69FB68D2186B
:101DC0007B685A617B689B697A68926951697A6815
:101DD00052698A1A5A6116E0FB68002B0DDBBB685A
:101DE0009B69002B09D17B68BA68DA61BB687A68A5
:101DF0009A61FA687B685A6105E0BB689B69BB60C1
:101E0000BB68002BB1D17B6802225A71044B0122BE
:101E10001A7000E0C046BD4604B080BD98010020A5
:101E20003600002080B582B000AF78607B68DB6947
:101E3000002B07D17B689B69002B03D1244B002228
:101E40001A603DE07B68DB69002B14D17B689A69DE
:101E50001F4B1A607B689B697A68926951697A683E
:101E600052698A185A617B689B690022DA617B6833
:101E700000229A6124E07B689B69002B07D17B6874
:101E8000DB6900229A617B680022DA6118E07B68D6
:101E9000DB697A6892699A617B689B697A68D26922
:101EA000DA617B689B697A68926951697A685269DC
:101EB0008A185A617B6800229A617B680022DA6185
:101EC0007B68012252425A61BD4602B080BDC046C5
:101ED0009801002080B582B000AF7860164B1B7867
:101EE000DBB2002B01D0032321E07B68013301D159
:101EF00002231CE07B68002B01D1002317E00F4B6D
:101F00001B78DBB2002B01D0152310E00B4B1B78A4
:101F1000DBB20133DAB2094B1A70094B1A687B68DD
:101F2000101C191CFFF708FFFEF786FD0023181C84
:101F3000BD4602B080BDC046340000203500002000
:101F40006801002080B582B000AF174B1B687B6032
:101F50001FE07B68DB79FF2B03D07B68181C00F047
:101F6000D1F87B68012252425A617B689A690E4B14
:101F70001A607B6800229A617B68181CFFF73EFAA2
:101F8000094B1B687B607B68002B02D07B680022BA
:101F9000DA617B68002B03D07B685B69002BD8D0AB
:101FA000BD4602B080BDC0469801002080B500AF9C
:101FB000074B1B78DBB2012B06D9064B01221A70A6
:101FC000054B01221A7001E0FFF7BCFFBD4680BD42
:101FD00035000020940100209501002080B584B0D8
:101FE00000AF3B1C0F3300221A701D4BBB601D4B12
:101FF0007B601BE0BB687A681A60BB683A1C0F32D2
:1020000012781A71BB685A790F218A4304210A4356
:102010005A71BB681033BB607B6810337B603B1C1C
:102020000F333A1C0F32127801321A703B1C0F33F7
:102030001B78032BDED9BB685A790F218A43042110
:102040000A435A71BB6800221A60BB683A1C0F32FF
:1020500012781A71044B024A1A60BD4604B080BD62
:102060009C010020AC010020EC01002080B584B070
:1020700000AF78607B68DB68FB60FB68002B3BD0BF
:10208000FB68DA687B68DA607B68DB68002B03D06A
:102090007B68DB6800221A61FB680022DA60FB685B
:1020A000FF22DA71FB685B69013303D0FB68181CFF
:1020B000FFF7B8FE7B685A790F231340DBB2022B7F
:1020C0000CD17B681A68FB689A607B6800221A60F2
:1020D0007B68DB88013B9AB27B68DA80084B1B681F
:1020E000FA689A4203D1FB6801225A7105E0FB6845
:1020F000181CFFF783F900E0C046BD4604B080BD60
:102100006801002080B584B000AF78607B68DB791F
:102110001A01204BD318FB607B68DB68002B07D1CA
:102120007B681B69002B03D1FB680022DA602BE07F
:102130007B681B69002B0BD17B68DB6800221A616E
:102140007B68DA68FB68DA607B680022DA601BE093
:102150007B68DB68002B07D17B681B690022DA6093
:102160007B6800221A610FE07B681B697A68D2687D
:10217000DA607B68DB687A6812691A617B68002222
:102180001A617B680022DA607B68FF22DA71BD4643
:1021900004B080BD9C01002080B58CB000AF786099
:1021A00039600023FB620023BB6200237B627B68F3
:1021B0001B680122191C91430A1C7B681A607B680A
:1021C0005B687B627A6A474B13407B623B689B6823
:1021D0007A6A13437B627B687A6A5A607B681B6801
:1021E0007B627A6A404B13407B623B685A683B686B
:1021F000DB681A433B681B6913437A6A13437B62AB
:102200007B687A6A1A607B689B687B627A6A374B64
:1022100013407B623B685B697A6A13437B627B682D
:102220007A6A9A603B1C0833181CFEF787FF7A68AD
:102230002F4B9A4204D13B1C08339B69BB6203E0DD
:102240003B1C08339B68BB627B681A6880231B02B7
:10225000134014D0BB6A5A003B681B68101C191C41
:1022600000F02AFA031CFB62BB6A5A003B681B6839
:10227000101C191C00F064FA0B1C7B6210E03B6818
:102280001B68B86A191C00F017FA031CFB623B6854
:102290001B68BA6A101C191C00F052FA0B1C7B62F6
:1022A0003B681B685A087B6A9A4202D8FB6A013372
:1022B000FB627B681A6880231B0213400AD0FA6A0B
:1022C0000F2313405B087B62FA6A0A4B1A407B6A51
:1022D0001343FB62FB6A9AB27B689A81BD460CB0DD
:1022E00080BDC046FFCFFFFFF3E9FFFFFFFCFFFF0C
:1022F00000380140F0FF000080B582B000AF786088
:102300000A1CFB1C1A70FB1C1B78002B06D07B6878
:102310001B6801221A437B681A6007E07B681B6810
:102320000122191C91430A1C7B681A60BD4602B049
:1023300080BDC04680B582B000AF78600A1CBB1C6F
:102340001A80BB1C1B88DB05DB0D9AB27B681A85E3
:10235000BD4602B080BDC04680B584B000AF786095
:1023600039603B1C0F3300221A707B68DB693A68C6
:10237000134004D03B1C0F3301221A7003E03B1CB6
:102380000F3300221A703B1C0F331B78181CBD46FC
:1023900004B080BD80B500AF62B6C046BD4680BD0A
:1023A00080B500AF72B6C046BD4680BD1C3880F314
:1023B00009887047024B1B68024A11681960704710
:1023C0002400002028000020114B1968114A1268CF
:1023D000914216D0EFF3098020380860F0C04446DF
:1023E0004D4656465F46F0C01A6010681030F0C87F
:1023F000A046A946B246BB462038F0C8103080F34C
:102400000988054B00201870044B1868004700002D
:102410006801002064010020350000202C0000200D
:1024200080B500AF1B4B1B4A126801210A431A609A
:10243000184B184A5168184A0A405A60154B154AF9
:102440001168164A0A401A60124B124A1168144A5F
:102450000A401A600F4B0F4A5168124A0A405A60EC
:102460000C4B0C4AD26A0F218A43DA62094B094AA3
:10247000116B0D4A0A401A63064B064A526B012142
:102480008A435A63034B00229A6000F00FF8BD465E
:1024900080BDC046001002400CB8FFF8FFFFF6FEFA
:1024A000FFFFFBFFFFFFC0FFACFEFFFF80B582B068
:1024B00000AF00237B6000233B60314B304A126841
:1024C000802149020A431A602D4B1A6880239B021F
:1024D00013403B607B6801337B603B68002B04D179
:1024E0007A68A023DB009A42EED1254B1A6880233C
:1024F0009B02134002D001233B6001E000233B60BC
:102500003B68012B38D11F4B11221A601C4B1C4A0F
:1025100052685A601A4B1A4A52685A60184B184A45
:102520005168194A0A405A60154B154A5268882169
:1025300049030A435A60124B114A12688021490428
:102540000A431A60C0460E4B1A6880239B0413404E
:10255000F9D00B4B0A4A526803218A435A60084B50
:10256000074A526802210A435A60C046044B5A681F
:102570000C231340082BF9D1BD4602B080BDC046E4
:102580000010024000200240FFFFC0FF80B586B06F
:1025900000AFF860B9607A607B687B617B698022FC
:1025A00052041A607B69043B7B61FA687B691A609C
:1025B0007B69043B7B617B69022252421A607B6922
:1025C000143B7B61BA687B691A607B69203B7B6145
:1025D0007B69181CBD4606B080BDC04698B500AFEB
:1025E000164B1B78DBB20133DAB2144B1A70144B62
:1025F00019685A68012300245B185441104A13607B
:102600005460104B1B68002B10D00E4B1B685B698D
:10261000012B05D90B4B1B685A69013A5A6105E039
:10262000084B1B6800225A61FFF7C0FC064B0122D1
:102630001A70FEF701FABD4698BDC046350000206D
:10264000F0010020980100203600002080B584B001
:1026500000AF021CFB1D1A70FB1D1B781A01114BE9
:10266000D318FB60FB68DA88FB681B899A4201D1AA
:10267000062313E00C4B1B78DBB20133DAB20A4BB2
:102680001A70FB68DB8801339AB2FB68DA80FB685A
:10269000181CFFF7EBFCFEF7CFF90023181CBD4612
:1026A00004B080BD9C0100203500002080B582B0C0
:1026B00000AF7860FEE7C046002934D00123002235
:1026C00010B488422CD301242407A14204D28142B1
:1026D00002D209011B01F8E7E400A14204D28142C1
:1026E00002D249005B00F8E7884201D3401A1A433E
:1026F0004C08A04202D3001B5C0822438C08A04275
:1027000002D3001B9C082243CC08A04202D3001B2A
:10271000DC082243002803D01B0901D00909E3E7A4
:10272000101C10BC7047002801D00020C04307B423
:10273000024802A14018029003BDC046D900000023
:102740000029F0D003B5FFF7B9FF0EBC4243891A48
:102750001847C046002941D010B4041C4C40A44680
:1027600001230022002900D54942002800D540421B
:1027700088422CD301242407A14204D2814202D2F0
:1027800009011B01F8E7E400A14204D2814202D210
:1027900049005B00F8E7884201D3401A1A434C080D
:1027A000A04202D3001B5C0822438C08A04202D343
:1027B000001B9C082243CC08A04202D3001BDC086B
:1027C0002243002803D01B0901D00909E3E7101CAC
:1027D0006446002C00D5404210BC7047002806D04B
:1027E00003DB0020C043400801E08020000607B45E
:1027F000024802A14018029003BDC0461900000023
:102800000029EBD003B5FFF7A7FF0EBC4243891A9E
:102810001847C0467047C046F0B5032A32D90B1C92
:1028200003439C0730D1151F6C07E60FB4460F68B1
:102830000668031D0C1DBE4224D12A1E032A1FD97F
:102840006046002808D0211C181C05680E68043357
:102850000434B54211D015E0211C181C07680D681E
:1028600004330434AF420DD1211C181C06680F68D4
:10287000043A04330434BE4204D1043A032AEBD8A8
:10288000211C181C002A1ED004780D78AC420AD1F5
:10289000431C8218D01AC60712D501311C780D7856
:1028A0000133AC420CD0601B0EE01C784D785F1CED
:1028B000AC42F8D15C787578711C7B1CAC42F2D1CB
:1028C0004E1C9342F1D10020F0BDC046F0B54F46FA
:1028D0004646C0B40F2A72D90B1C03439C0700D094
:1028E00090E0171C103F3C09013427010C683B1C89
:1028F0000460103BDE064B68CD1943608C68F60F10
:102900008460CB68041CC3600B1C103310349D42E0
:1029100027D0002E0BD0196821605E686660996828
:10292000A160DE681033E66010349D4219D019684A
:1029300021605E6866609968A160DE68191CE660C7
:102940001B69261C23614C6974618B69B361CC6976
:102950001031F4610B1C1036341C103310349D42BE
:10296000E5D13F180F21B846114003294DD904394C
:102970008E08B3000433EC18A446043B2C1C5F07FC
:1029800008CC4146B14608C1FE0F64450FD0002E69
:1029900003D080CC80C1644509D0271C08CF0E1C11
:1029A00008C664684C603C1D311D6445F5D149463C
:1029B00001318E000327AD193A40464401E00D1C59
:1029C000061C002A1AD02F78B218F343D11801241C
:1029D000377001360C40013596420FD0002C05D0DF
:1029E0002B78013533700136964207D02978317043
:1029F0006C780235747002369642F7D10CBC904662
:102A00009946F0BD061C0D1CDDE73E1C0A1CD8E7EC
:102A1000F0B5830700D181E0541E002A7DD0CDB2ED
:102A2000031C0326E70711D5431C0570334211D060
:102A30001D700133941E33420CD0621E002C6CD0EA
:102A40001D700133141C334204D0013C1D7001334E
:102A50003342F2D1032C49D9FF220A4017023A43EC
:102A600015042A430F2C5CD9261C103E3709013768
:102A70003D015E19103DEF061A605A609A60DA60F7
:102A80001033FD0F9E4213D0002D06D01A605A60FD
:102A90009A60DA6010339E420AD01A605A609A60D7
:102AA000DA601A615A619A61DA6120339E42F4D188
:102AB0000F231C40351C331C032C17D9261FB708C5
:102AC0000137BE00AB19043E770704C5FE0F9D42D7
:102AD0000AD0002E02D004C59D4205D02F1C04C789
:102AE0006A603D1D9D42F9D103221440002C14D090
:102AF0001C19DD43C9B266190127197001333E4024
:102B0000A3420AD0002E03D019700133A34204D08F
:102B1000197059700233A342FAD1F0BD031C141C82
:102B200098E71D1CCAE7C0460000000000AABBCC05
:0C2B3000DE020000020405B401010402F2
:102B3C00FFFFFFFFFFFF0000C0A800D2C0A80001EC
:102B4C00C0A80001000000000102030401020304FC
:102B5C000607080904ED00E000000010FCFFFFFF71
:0400000508000000EF
:00000001FF
