:020000040800F2
:1000000000200020A9110008ED110008ED110008E2
:1000100000000000000000000000000000000000E0
:10002000000000000000000000000000ED110008CA
:100030000000000000000000ED110008ED110008B4
:10004000ED110008ED110008ED110008ED11000898
:10005000ED110008ED110008ED110008ED11000888
:10006000ED110008ED110008ED110008ED11000878
:10007000ED110008ED110008ED110008ED11000868
:10008000ED110008ED11000800000000ED1100085E
:10009000ED110008ED110008ED110008ED11000848
:1000A000ED110008ED110008ED110008ED11000838
:1000B000ED11000800000000ED1100080000000034
:1000C0005FF808F180B582B000AF78600A1CBB1CF5
:1000D0001A800BE01C2000F0B5FB031C1A1C022345
:1000E000134003D01F20082100F0BEFD1F2000F0A8
:1000F000A9FB031C1A1C08231340EBD10220012189
:1001000000F036FC03201A2100F032FCBB1C1B88D7
:10011000DBB20133DBB20620191C00F029FCBB1C4A
:100120001B880B4A9B181B12DBB20720191C00F01E
:100130001FFC7A68BB1C1B88101C191C00F00AFDF0
:100140001F20082100F04AFDBD4602B080BDC04618
:10015000011A000080B584B000AF78600A1CBB1C97
:100160001A80392000F06EFB031C002B01D1002304
:10017000DBE0704B1B68DBB20020191C00F0F8FBC1
:100180006C4B1B681B0ADBB20120191C00F0F0FB52
:1001900000F0C0FC031C1A1C664B1A6000F0BAFC8D
:1001A000031C1A1C634B1B681A43624B1A6000F055
:1001B000B1FC031C1A1C3B1C0E331A8000F0AAFC75
:1001C000031C191C3B1C0E333A1C0E3212880A43C6
:1001D0001A803B1C0E333A1C0E321288043A1A80E5
:1001E0003B1C0E331A88BB1C1B88013B9A4205DD61
:1001F0003B1C0E33BA1C1288013A1A8000F08AFCAC
:10020000031C1A1C3B1C0C331A8000F083FC031CDB
:10021000191C3B1C0C333A1C0C3212880A431A80FE
:100220003B1C0C331A888023134004D13B1C0E3333
:1002300000221A8007E07A683B1C0E331B88101CD2
:10024000191C00F033FC092000F0FCFA031C1A1CF6
:100250003B1C0A331A803B1C0A333A1C0A321288B0
:1002600012021A80082000F0EDFA031C191C3B1C36
:100270000A333A1C0A3212880A431A800B2000F013
:10028000E1FA031C1A1C3B1C08331A803B1C083380
:100290003A1C0832128812021A800A2000F0D2FAA0
:1002A000031C191C3B1C08333A1C083212880A43F1
:1002B0001A80204B1B685A1E3B1C0A331B889A422B
:1002C00007D31C4B1B685A1E3B1C08331B889A42E1
:1002D00012D93B1C08331B88DBB20C20191C00F020
:1002E00047FB3B1C08331B881B0A9BB2DBB20D206B
:1002F000191C00F03DFB11E00E4B1B68DBB2013B0B
:10030000DBB20C20191C00F033FB0A4B1B68013BCD
:100310001B0ADBB20D20191C00F02AFB1E20402115
:1003200000F05CFC3B1C0E331B88181CBD4604B05F
:1003300080BDC0461000002080B588B000AF80238B
:100340009B02181C012100F057F980239B02181C06
:10035000012100F06FF99023DB05181C0E2101220A
:1003600001F040F99023DB05181C0F21012201F058
:1003700039F93B1CC02212021A603B1C03225A713D
:100380003B1C02221A713B1C00229A713B1C012269
:10039000DA719023DA053B1C101C191C01F056F889
:1003A0003B1C0833962292011A603B1C0833002242
:1003B0005A603B1C083300229A603B1C0833002221
:1003C000DA603B1C083300225A613B1C08330C22C4
:1003D0001A61074A3B1C0833101C191C01F050F924
:1003E000034B181C012101F0FBF9BD4608B080BD8C
:1003F0000044004080B582B000AF021CBB1D1A80D3
:10040000C046094B181C802101F01AFA031C002B6E
:10041000F7D0054ABB1D1B88101C191C01F0FEF902
:10042000BD4602B080BDC0460044004080B588B0E3
:1004300000AF78600023FB610023BB6100237B6178
:1004400000233B610023FB60654B5A680C2313407B
:10045000FB61FB69042B07D0082B09D0002B30D19E
:100460007B68604A1A6030E07B685E4A1A602CE064
:100470005B4B5A68F0239B031340BB61584B5A688F
:1004800080235B0213407B61BB699B0C0233BB6121
:100490007B69002B05D1BB69534A5A437B681A60BC
:1004A00013E04F4BDA6A0F23134001333B614D4891
:1004B000396901F099FA031CBA695A437B681A60DA
:1004C00003E07B68474A1A60C046454B5A68F023F0
:1004D0001340FB61FB691B09FB61444AFB69D318AC
:1004E0001B78DBB2FB607B681A68FB68DA407B68CC
:1004F0005A603B4B5A68E023DB001340FB61FB6909
:100500001B0AFB61394AFB69D3181B78DBB2FB601D
:100510007B685A68FB68DA407B689A60304B1A6BDC
:1005200080235B00134003D17B68314ADA6010E01E
:100530002B4B5A688023DB01134005D17B689B68F5
:100540005A087B68DA6004E07B689B689A087B68DD
:10055000DA60234B1A6B4023134003D17B68254A92
:100560001A6103E07B68802212021A611C4B1A6B2D
:100570001023134003D17B681A4A5A6103E07B6859
:100580001A687B685A61164B1A6B0323134004D117
:100590007B689A687B689A611EE0114B1A6B032393
:1005A0001340012B04D17B681A687B689A6113E0C1
:1005B0000B4B1A6B03231340022B04D17B68802260
:1005C00012029A6108E0064B1A6B03231340032BB7
:1005D00002D17B68034A9A61BD4608B080BDC0461F
:1005E0000010024000127A0000093D0000000020C7
:1005F000809FD5001280000080B582B000AF786087
:100600000A1CFB1C1A70FB1C1B78002B06D0084B25
:10061000074A51697A680A435A6106E0044B044A62
:1006200052697968C9430A405A61BD4602B080BD2B
:100630000010024080B582B000AF78600A1CFB1C3D
:100640001A70FB1C1B78002B06D0084B074AD16997
:100650007A680A43DA6106E0044B044AD269796891
:10066000C9430A40DA61BD4602B080BD00100240B5
:1006700080B588B000AF8023DB02181C0121FFF792
:10068000BBFF8023DB01181C0121FFF7D3FF3B1DBB
:10069000802252011A603B1D01221A713B1D032268
:1006A0005A713B1D00229A713B1D0122DA714E4A9C
:1006B0003B1D101C191C00F0C9FE3B1D802292013D
:1006C0001A603B1D02221A713B1D03225A713B1D09
:1006D00000229A713B1D0122DA71434A3B1D101C16
:1006E000191C00F0B3FE3B1D802212021A603B1D54
:1006F00002221A713B1D03225A713B1D00229A717E
:100700003B1D0122DA71384A3B1D101C191C00F0F8
:100710009DFE3B1D8022D2011A603B1D02221A71F0
:100720003B1D03225A713B1D00229A713B1D012281
:10073000DA712D4A3B1D101C191C00F087FE2A4B54
:10074000181C0D21002200F04DFF274B181C0F2113
:10075000002200F047FF244B181C0E21002200F05D
:1007600041FF3B1C0C3300221A803B1C0C338222BD
:1007700052005A803B1C0C33E022D2009A803B1C72
:100780000C330022DA803B1C0C3300221A813B1C04
:100790000C33802292005A813B1C0C3310229A8128
:1007A0003B1C0C330022DA813B1C0C3307221A82DB
:1007B0000E4A3B1C0C33101C191C00F019FD0B4A8F
:1007C00080235B01101C191C00F0B4FD074B181CA2
:1007D000002100F0F5FD054B181C012100F08AFDF9
:1007E000BD4608B080BDC046000400480038004047
:1007F00080B582B000AF021CFB1D1A70C046104BC2
:10080000181C022100F0FEFD031C002BF7D00C4A3F
:10081000FB1D1B78101C191C00F0AAFDC046084BDC
:10082000181C012100F0EEFD031C002BF7D0044B37
:10083000181C00F0B3FD031C181CBD4602B080BD9F
:100840000038004090B585B000AF021CFB1D1A7047
:100850003B1C0F3300221A70FB1D1A781F23134014
:100860001A2B14DCFB1D1B785B09DBB21A1C03235B
:100870001A40164B1B789A4209D0FB1D1B785B0966
:10088000DAB203231340DBB2181C00F0DFF8104B80
:10089000802252011A85FB1D1A781F231340DBB2F8
:1008A000181CFFF7A5FF3C1C0F340020FFF7A0FF2A
:1008B000031C2370064B802252019A613B1C0F33AC
:1008C0001B78181CBD4605B090BDC0461400002022
:1008D0000004004890B585B000AF021CFB1D1A70E3
:1008E0003B1C0F3300221A70FB1D1A781F23134084
:1008F0001A2B14DCFB1D1B785B09DBB21A1C0323CB
:100900001A40194B1B789A4209D0FB1D1B785B09D2
:10091000DAB203231340DBB2181C00F097F8134B34
:10092000802252011A85FB1D1A781F231340DBB267
:10093000181CFFF75DFF3C1C0F340020FFF758FF29
:10094000031C23703C1C0F340020FFF751FF031CD5
:100950002370064B802252019A613B1C0F331B7897
:10096000181CBD4605B090BD1400002000040048CE
:1009700080B582B000AF0A1CFB1D011C1970BB1DA5
:100980001A70FB1D1A781F2313401A2B14DCFB1D51
:100990001B785B09DBB21A1C03231A40154B1B782A
:1009A0009A4209D0FB1D1B785B09DAB2032313407E
:1009B000DBB2181C00F04AF80F4B802252011A8556
:1009C000FB1D1B781A1C1F231340DBB2402213436C
:1009D000DBB2DBB2181CFFF70BFFBB1D1B78181C2A
:1009E000FFF706FF044B802252019A61BD4602B018
:1009F00080BDC046140000200004004880B582B0CD
:100A000000AFFB1D1870BB1D19707B1D1A70C0460E
:100A1000EA20FFF75FFF031C1A1C01231340F7D1E4
:100A2000FB1D1B78D420191CFFF7A2FF7B1D1B7830
:100A3000D620191CFFF79CFFBB1D1B78D720191C63
:100A4000FFF796FFBD4602B080BDC04680B582B0BC
:100A500000AF021CFB1D1A70124B802252011A8536
:100A6000BF20FFF7C5FE0320FFF7C2FE0D4B80221B
:100A700052019A610B4B802252011A859F20FFF789
:100A8000B7FEFB1D1B78181CFFF7B2FE054B80223A
:100A900052019A61044BFA1D12781A70BD4602B0D9
:100AA00080BDC046000400481400002080B584B01A
:100AB00000AF78600A1CBB1C1A80154B80225201C3
:100AC0001A855A20FFF794FE3B1C0E3300221A8031
:100AD00010E00020FFF78CFE031C1A1C7B681A70C4
:100AE0007B6801337B603B1C0E333A1C0E3212884C
:100AF00001321A803A1C0E32BB1C12881B889A42A3
:100B0000E7D3034B802252019A61BD4604B080BDF9
:100B10000004004890B583B000AFFB1D00221A709E
:100B20000B4B802252011A855A20FFF761FEFC1DF3
:100B30000020FFF75DFE031C2370054B802252014D
:100B40009A61FB1D1B78181CBD4603B090BDC046C2
:100B50000004004880B584B000AF78600A1CBB1C5C
:100B60001A80144B802252011A857A20FFF740FE2A
:100B70003B1C0E3300221A800EE07B681B787A68DB
:100B800001327A60181CFFF733FE3B1C0E333A1C0F
:100B90000E32128801321A803A1C0E32BB1C1288A7
:100BA0001B889A42E9D3034B802252019A61BD46C9
:100BB00004B080BD0004004880B500AF064B802221
:100BC00052011A85FF20FFF713FE034B80225201CA
:100BD0009A61BD4680BDC0460004004880B582B021
:100BE00000AF0A1CFB1D011C1970BB1D1A70FB1DF8
:100BF0001A781F2313401A2B14DCFB1D1B785B098A
:100C0000DBB21A1C03231A40154B1B789A4209D0F9
:100C1000FB1D1B785B09DAB203231340DBB2181CFF
:100C2000FFF714FF0F4B802252011A85FB1D1B7822
:100C30001A1C1F231340DBB2802252421343DBB243
:100C4000DBB2181CFFF7D4FDBB1D1B78181CFFF787
:100C5000CFFD044B802252019A61BD4602B080BD97
:100C6000140000200004004880B582B000AF0A1CC8
:100C7000FB1D011C1970BB1D1A70FB1D1A781F2368
:100C800013401A2B14DCFB1D1B785B09DBB21A1C0A
:100C900003231A40154B1B789A4209D0FB1D1B7881
:100CA0005B09DAB203231340DBB2181CFFF7CEFE58
:100CB0000F4B802252011A85FB1D1B781A1C1F2323
:100CC0001340DBB2602252421343DBB2DBB2181C8A
:100CD000FFF78EFDBB1D1B78181CFFF789FD044B29
:100CE000802252019A61BD4602B080BD14000020EE
:100CF0000004004880B584B000AF7860FFF75CFF67
:100D00001F20C021FFF734FE1E208021FFF730FE98
:100D10001C200021FFF72CFE1B20C021FFF728FE1E
:100D200036200021FFF724FE37200021FFF720FEA8
:100D300004200021FFF71CFE05201A21FFF718FEF2
:100D400006200021FFF714FE07202021FFF710FEE8
:100D500008200021FFF70CFE09200021FFF708FE04
:100D60000A20FF21FFF704FE0B201921FFF700FEE8
:100D700000200021FFF7FCFD01200021FFF7F8FD16
:100D80000C200021FFF7F4FD0D200021FFF7F0FDFE
:100D90003820A121FFF7ECFD77200021FFF7E8FDC7
:100DA00075200021FFF7E4FD67200021FFF7E0FD3B
:100DB000C0461D20FFF746FD031C1A1C01231340EB
:100DC000F7D0EA200021FFF7D3FDD2200021FFF762
:100DD000CFFDD1200021FFF7CBFDC0200D21FFF773
:100DE000C7FDC1200021FFF7C3FDC2203221FFF75C
:100DF000BFFDC3200021FFF7BBFDCD201021FFF771
:100E0000B7FDCA20EE21FFF7B3FDCB200521FFF788
:100E1000AFFDC4201221FFF7ABFDC6201221FFF762
:100E2000A7FDC7200C21FFF7A3FD7B6805331B78C6
:100E3000E120191CFFF79CFD7B6804331B78E02040
:100E4000191CFFF795FD7B6803331B78E320191C01
:100E5000FFF78EFD7B6802331B78E220191CFFF739
:100E600087FD7B6801331B78E520191CFFF780FDA7
:100E70007B681B78E420191CFFF77AFD0020002115
:100E80000022FFF7BBFD102001210022FFF7B6FD75
:100E9000142002213A22FFF7B1FD12200021002286
:100EA000FFF7ACFD1F201421FFF762FD074B002266
:100EB0001A703B1C0C3300221A703B1C0C33181C9C
:100EC0000121FFF747FEBD4604B080BD140000209D
:100ED00080B582B000AF8023DB02181C0121FFF730
:100EE0008BFB3B1C181C00F04DFB3B1C8022D200EE
:100EF0001A603B1C01221A713B1C01225A71094ADB
:100F00003B1C101C191C00F0A1FA3B1C8022120192
:100F10001A60044A3B1C101C191C00F097FABD46CD
:100F200002B080BD0004004880B5954FBD4400AFBD
:100F3000822080003A18934B111C1A1C0623081CAF
:100F4000111C1A1C00F0A0FDFFF7C2FFFFF790FB79
:100F5000FFF7F2F9822189007B18181CFFF7CAFEFF
:100F6000894B84229200D219D3181A1C874B101C6B
:100F700000211A1C00F02AFE834B84208000C01937
:100F8000C318E8221A70804B84218900C919CB1834
:100F900003225A707C4B84229200D219D3189A22D1
:100FA0009A70794B84208000C019C318AE22DA7081
:100FB000754B84218900C919CB189C225A71724B38
:100FC00084229200D219D318AA22DA716E4B84209F
:100FD0008000C019C318BB221A726B4B8421890090
:100FE000C919CB18CC225A72674B84229200D219AD
:100FF000D318DE229A72644B84208000C019C31873
:101000000222DA72604B84218900C919CB180122AF
:101010001A735D4B84229200D219D318F4225A73AA
:10102000594B84208000C019C3180122DA73564B33
:1010300084218900C919CB1802221A74524B8422C8
:101040009200D219D31803225A744F4B8420800087
:10105000C019C31804229A744B4B84218900C91902
:10106000CB180522DA74484B84229200D219D31887
:1010700006221A75444B84208000C019C318072229
:101080005A75414B84218900C919CB1808229A75D9
:101090003D4B84229200D219D3180922DA753C4BB9
:1010A00000221A6013E03A4B1B681A1C0E32384BB0
:1010B0001B68DBB25B00D9B2334B84208000C019BF
:1010C000C3189954324B1B685A1C314B1A60304B71
:1010D0001A68304B9A42E6DD2F497B1800221A70BD
:1010E0002020FFF787F90020FFF784F93A1D274BEE
:1010F000101C191CFEF7E6FF3A1D244B101C191C8E
:10110000FFF728F8031C1A1C23483B181A702249C1
:101110007B181B78002B02D0C120FFF76BF91C4B0A
:1011200000221A6004E01A4B1B685A1C184B1A6004
:10113000174B1A68194B9A42F5DD194B1B685A1E5A
:101140009341DBB217498022D200081C111C1A1CE3
:1011500000F030FA124B1B685A425341DBB21A1CA2
:101160000F4B1A600E4B1B685A1E9341DBB20D49A0
:1011700080221201081C111C1A1C00F01BFABBE78C
:10118000F0FDFFFFE41C0008F4FDFFFF0202000079
:1011900018000020F30100000F0200003F420F0082
:1011A0001C00002000040048002103E00A4B5B58AB
:1011B0004350043109480A4B42189A42F6D3094A6F
:1011C00002E0002313600432074B9A42F9D300F087
:1011D00055FBFFF7A9FE7047EC1C0008000000203B
:1011E000100000201000002020000020FEE700007A
:1011F00080B584B000AF786039603B1C0E330022AC
:101200001A803B1C0E337A6812881A803B1C0E33FE
:101210003A1C0E321188C12292010A401A803B68A2
:101220001A883B68DB8913439AB23B68DB88134317
:101230009AB23B681B8913439AB23B685B8913439C
:101240009AB23B689B89134399B23B1C0E333A1CFC
:101250000E3212880A431A807B683A1C0E321288BA
:101260001A803B1C0E337A6892881A803B1C0E331E
:101270003A1C0E3211881D4A0A401A803B68998830
:101280003B1C0E333A1C0E3212880A431A807B68CC
:101290003A1C0E3212889A803B681A8A7B681A823E
:1012A0003B1C0E337A6812881A803B1C0E333A1CA2
:1012B0000E32128804218A431A803B6859883B1CED
:1012C0000E333A1C0E3212880A431A807B683A1C8D
:1012D0000E3212881A807B689B8B9AB2044B1340A3
:1012E0009AB27B689A83BD4604B080BDFFF0FFFFD1
:1012F000FFF7FFFF80B582B000AF78600A1CFB1CCF
:101300001A70FB1C1B78002B08D07B681B889BB2D3
:10131000402213439AB27B681A8007E07B681B88DF
:101320009BB2402293439AB27B681A80BD4602B0BA
:1013300080BDC04680B582B000AF78600A1CBB1C7F
:101340001A807B689B889AB2084B13409AB27B68DC
:101350009A807B689B889AB2BB1C1B8813439AB205
:101360007B689A80BD4602B080BDC046FFEFFFFF9C
:1013700080B584B000AF78600A1CFB1C1A70002393
:10138000FB607B68FB60FB680C33FB60FB68FA1C4E
:1013900012781A70BD4604B080BDC04680B584B0D6
:1013A00000AF78600023FB607B68FB60FB680C3358
:1013B000FB60FB681B78DBB2181CBD4604B080BD27
:1013C00080B582B000AF78600A1CFB1C1A70FB1C51
:1013D0001B78002B09D07B681B889BB2802292016E
:1013E00013439AB27B681A8007E07B681B889AB225
:1013F000034B13409AB27B681A80BD4602B080BD91
:10140000FFDFFFFF80B584B000AF78600A1CBB1C13
:101410001A803B1C0F3300221A707B681B899BB219
:10142000BA1C128813409BB2002B04D03B1C0F3314
:1014300001221A7003E03B1C0F3300221A703B1C80
:101440000F331B78181CBD4604B080BD80B586B034
:1014500000AF7860396000237B6100233B6100238B
:10146000FB6000237B6185E07B690122101C9840B2
:10147000031C3B613B681B683A691340FB60FA68D8
:101480003B699A4273D13B681B79012B03D03B68BF
:101490001B79022B38D17B689B687A695200032143
:1014A000081C9040021CD2431A407B689A607B68FB
:1014B0009A683B685B79191C7B695B00081C984043
:1014C000031C1A437B689A607B689B889BB27A698D
:1014D00092B20121081C9040021C92B2D24392B2F7
:1014E00013409AB27B689A807B689B889AB23B686B
:1014F0009B79191C7B699BB2081C9840031C9BB20A
:1015000013439AB27B689A807B681B687A695200A1
:101510000321081C9040021CD2431A407B681A60C9
:101520007B681A683B681B79191C7B695B00081C87
:101530009840031C1A437B681A607B68DB687A69F1
:1015400092B252000321081C9040021CD2431A4060
:101550007B68DA607B68DA683B68DB79191C7B6939
:101560005B00081C9840031C1A437B68DA607B69A7
:1015700001337B617B690F2B00D875E7BD4606B050
:1015800080BDC04680B582B000AF78607B68084AF5
:101590001A607B6800221A717B6802225A717B688C
:1015A00000229A717B680022DA71BD4602B080BDCC
:1015B000FFFF000080B582B000AF7860BB1C1980CF
:1015C0007B1C1A707B1C1B78002B04D0BB1C1A8858
:1015D0007B689A6103E07B68BA1C12881A85BD4655
:1015E00002B080BD90B585B000AF7860BB1C19809B
:1015F0007B1C1A700023FB600023BB607B1C1A78E5
:10160000BB1C198807230B409B00111C99400B1C25
:10161000FB60BB1C1B88DB089BB21A1CBB1C1B8815
:10162000DB089BB2191C7B6808318900CB58B91CB8
:1016300008880721014089000F20041C8C40211CD0
:10164000C94319407B6808329200D150BB1C1B88EB
:10165000DB089BB21A1C7B6808329200D258FB68E8
:101660001343BB60BB1C1B88DB089BB21A1C7B6846
:1016700008329200B968D150BD4605B090BDC04651
:1016800080B58CB000AF786039600023FB62002326
:10169000BB6200237B627B681B680122191C91439B
:1016A0000A1C7B681A607B685B687B627A6A474BBE
:1016B00013407B623B689B687A6A13437B627B685A
:1016C0007A6A5A607B681B687B627A6A404B134077
:1016D0007B623B685A683B68DB681A433B681B695E
:1016E00013437A6A13437B627B687A6A1A607B6869
:1016F0009B687B627A6A374B13407B623B685B690D
:101700007A6A13437B627B687A6A9A603B1C08336F
:10171000181CFEF78BFE7A682F4B9A4204D13B1CB3
:1017200008339B69BB6203E03B1C08339B68BB62C8
:101730007B681A6880231B02134014D0BB6A5A00CE
:101740003B681B68101C191C00F04EF9031CFB625F
:10175000BB6A5A003B681B68101C191C00F088F912
:101760000B1C7B6210E03B681B68B86A191C00F018
:101770003BF9031CFB623B681B68BA6A101C191C0E
:1017800000F076F90B1C7B623B681B685A087B6A89
:101790009A4202D8FB6A0133FB627B681A68802395
:1017A0001B0213400AD0FA6A0F2313405B087B62C6
:1017B000FA6A0A4B1A407B6A1343FB62FB6A9AB2CD
:1017C0007B689A81BD460CB080BDC046FFCFFFFF4D
:1017D000F3E9FFFFFFFCFFFF00380140F0FF0000CE
:1017E00080B582B000AF78600A1CFB1C1A70FB1C2D
:1017F0001B78002B06D07B681B6801221A437B688C
:101800001A6007E07B681B680122191C91430A1CBF
:101810007B681A60BD4602B080BDC04680B582B00C
:1018200000AF78600A1CBB1C1A80BB1C1B88DB0540
:10183000DB0D9AB27B681A85BD4602B080BDC046FA
:1018400080B584B000AF786039603B1C0F33002254
:101850001A707B68DB693A68134004D03B1C0F3375
:1018600001221A7003E03B1C0F3300221A703B1C4C
:101870000F331B78181CBD4604B080BD80B500AF87
:101880001B4B1B4A126801210A431A60184B184A65
:101890005168184A0A405A60154B154A1168164A91
:1018A0000A401A60124B124A1168144A0A401A6020
:1018B0000F4B0F4A5168124A0A405A600C4B0C4AAF
:1018C000D26A0F218A43DA62094B094A116B0D4A29
:1018D0000A401A63064B064A526B01218A435A6337
:1018E000034B00229A6000F00FF8BD4680BDC04651
:1018F000001002400CB8FFF8FFFFF6FEFFFFFBFFF1
:10190000FFFFC0FFACFEFFFF80B582B000AF002339
:101910007B6000233B60314B304A126880214902D2
:101920000A431A602D4B1A6880239B0213403B60C8
:101930007B6801337B603B68002B04D17A68A0236D
:10194000DB009A42EED1254B1A6880239B0213409C
:1019500002D001233B6001E000233B603B68012B88
:1019600038D11F4B11221A601C4B1C4A52685A6016
:101970001A4B1A4A52685A60184B184A5168194A49
:101980000A405A60154B154A5268882149030A4398
:101990005A60124B114A1268802149040A431A60A6
:1019A000C0460E4B1A6880239B041340F9D00B4BA2
:1019B0000A4A526803218A435A60084B074A526810
:1019C00002210A435A60C046044B5A680C23134054
:1019D000082BF9D1BD4602B080BDC04600100240C0
:1019E00000200240FFFFC0FF002934D00123002265
:1019F00010B488422CD301242407A14204D281428E
:101A000002D209011B01F8E7E400A14204D281429D
:101A100002D249005B00F8E7884201D3401A1A431A
:101A20004C08A04202D3001B5C0822438C08A04251
:101A300002D3001B9C082243CC08A04202D3001B07
:101A4000DC082243002803D01B0901D00909E3E781
:101A5000101C10BC7047002801D00020C04307B400
:101A6000024802A14018029003BDC04619000000C0
:101A70000029F0D003B5FFF7B9FF0EBC4243891A25
:101A80001847C0467047C046F0B54F464646C0B4FA
:101A90000F2A72D90B1C03439C0700D090E0171C3F
:101AA000103F3C09013427010C683B1C0460103BCB
:101AB000DE064B68CD1943608C68F60F8460CB68F6
:101AC000041CC3600B1C103310349D4227D0002E21
:101AD0000BD0196821605E6866609968A160DE6855
:101AE0001033E66010349D4219D0196821605E6899
:101AF00066609968A160DE68191CE6601B69261C97
:101B000023614C6974618B69B361CC691031F461F4
:101B10000B1C1036341C103310349D42E5D13F1895
:101B20000F21B846114003294DD904398E08B3005E
:101B30000433EC18A446043B2C1C5F0708CC414638
:101B4000B14608C1FE0F64450FD0002E03D080CCF3
:101B500080C1644509D0271C08CF0E1C08C66468E4
:101B60004C603C1D311D6445F5D1494601318E0064
:101B70000327AD193A40464401E00D1C061C002A1B
:101B80001AD02F78B218F343D118012437700136D8
:101B90000C40013596420FD0002C05D02B78013532
:101BA00033700136964207D0297831706C7802354F
:101BB000747002369642F7D10CBC90469946F0BD3F
:101BC000061C0D1CDDE73E1C0A1CD8E7F0B5830798
:101BD00000D181E0541E002A7DD0CDB2031C032623
:101BE000E70711D5431C0570334211D01D70013336
:101BF000941E33420CD0621E002C6CD01D70013339
:101C0000141C334204D0013C1D7001333342F2D125
:101C1000032C49D9FF220A4017023A4315042A43EC
:101C20000F2C5CD9261C103E370901373D015E1987
:101C3000103DEF061A605A609A60DA601033FD0FAB
:101C40009E4213D0002D06D01A605A609A60DA6066
:101C500010339E420AD01A605A609A60DA601A61A4
:101C60005A619A61DA6120339E42F4D10F231C40FD
:101C7000351C331C032C17D9261FB7080137BE00AB
:101C8000AB19043E770704C5FE0F9D420AD0002E13
:101C900002D004C59D4205D02F1C04C76A603D1DBB
:101CA0009D42F9D103221440002C14D01C19DD43AD
:101CB000C9B266190127197001333E40A3420AD008
:101CC000002E03D019700133A34204D0197059704B
:101CD0000233A342FAD1F0BD031C141C98E71D1C6B
:0C1CE000CAE7C04600AABBCCDE02000030
:101CEC0000000000010203040102030406070809B6
:0400000508000000EF
:00000001FF
