:020000040800F2
:1000000000200020B90F0008FD0F0008FD0F0008B8
:1000100000000000000000000000000000000000E0
:10002000000000000000000000000000A51900080A
:100030000000000000000000C1190008051A0008B7
:10004000FD0F0008FD0F0008FD0F0008FD0F000860
:10005000FD0F0008FD0F0008FD0F0008FD0F000850
:10006000FD0F0008FD0F0008FD0F0008FD0F000840
:10007000FD0F0008FD0F0008FD0F0008FD0F000830
:10008000FD0F0008FD0F000800000000FD0F000834
:10009000FD0F0008FD0F0008FD0F0008FD0F000810
:1000A000FD0F0008FD0F0008FD0F0008FD0F000800
:1000B000FD0F000800000000FD0F00080000000018
:1000C0005FF808F180B582B000AF78600A1CBB1CF5
:1000D0001A800BE01C2000F0B5FB031C1A1C022345
:1000E000134003D01F20082100F0BEFD1F2000F0A8
:1000F000A9FB031C1A1C08231340EBD10220012189
:1001000000F036FC03201A2100F032FCBB1C1B88D7
:10011000DBB20133DBB20620191C00F029FCBB1C4A
:100120001B880B4A9B181B12DBB20720191C00F01E
:100130001FFC7A68BB1C1B88101C191C00F00AFDF0
:100140001F20082100F04AFDBD4602B080BDC04618
:10015000011A000080B584B000AF78600A1CBB1C97
:100160001A80392000F06EFB031C002B01D1002304
:10017000DBE0704B1B68DBB20020191C00F0F8FBC1
:100180006C4B1B681B0ADBB20120191C00F0F0FB52
:1001900000F0C0FC031C1A1C664B1A6000F0BAFC8D
:1001A000031C1A1C634B1B681A43624B1A6000F055
:1001B000B1FC031C1A1C3B1C0E331A8000F0AAFC75
:1001C000031C191C3B1C0E333A1C0E3212880A43C6
:1001D0001A803B1C0E333A1C0E321288043A1A80E5
:1001E0003B1C0E331A88BB1C1B88013B9A4205DD61
:1001F0003B1C0E33BA1C1288013A1A8000F08AFCAC
:10020000031C1A1C3B1C0C331A8000F083FC031CDB
:10021000191C3B1C0C333A1C0C3212880A431A80FE
:100220003B1C0C331A888023134004D13B1C0E3333
:1002300000221A8007E07A683B1C0E331B88101CD2
:10024000191C00F033FC092000F0FCFA031C1A1CF6
:100250003B1C0A331A803B1C0A333A1C0A321288B0
:1002600012021A80082000F0EDFA031C191C3B1C36
:100270000A333A1C0A3212880A431A800B2000F013
:10028000E1FA031C1A1C3B1C08331A803B1C083380
:100290003A1C0832128812021A800A2000F0D2FAA0
:1002A000031C191C3B1C08333A1C083212880A43F1
:1002B0001A80204B1B685A1E3B1C0A331B889A422B
:1002C00007D31C4B1B685A1E3B1C08331B889A42E1
:1002D00012D93B1C08331B88DBB20C20191C00F020
:1002E00047FB3B1C08331B881B0A9BB2DBB20D206B
:1002F000191C00F03DFB11E00E4B1B68DBB2013B0B
:10030000DBB20C20191C00F033FB0A4B1B68013BCD
:100310001B0ADBB20D20191C00F02AFB1E20402115
:1003200000F05CFC3B1C0E331B88181CBD4604B05F
:1003300080BDC0462800002080B588B000AF802373
:100340009B02181C012100F057F980239B02181C06
:10035000012100F06FF99023DB05181C0E2101220A
:1003600001F08AF99023DB05181C0F21012201F00E
:1003700083F93B1CC02212021A603B1C03225A71F3
:100380003B1C02221A713B1C00229A713B1C012269
:10039000DA719023DA053B1C101C191C01F0B8F827
:1003A0003B1C0833962292011A603B1C0833002242
:1003B0005A603B1C083300229A603B1C0833002221
:1003C000DA603B1C083300225A613B1C08330C22C4
:1003D0001A61074A3B1C0833101C191C01F0E4F990
:1003E000034B181C012101F08FFABD4608B080BDF7
:1003F0000044004080B582B000AF021CBB1D1A80D3
:10040000C046094B181C802101F0AEFA031C002BDA
:10041000F7D0054ABB1D1B88101C191C01F092FA6D
:10042000BD4602B080BDC0460044004080B588B0E3
:1004300000AF78600023FB610023BB6100237B6178
:1004400000233B610023FB60654B5A680C2313407B
:10045000FB61FB69042B07D0082B09D0002B30D19E
:100460007B68604A1A6030E07B685E4A1A602CE064
:100470005B4B5A68F0239B031340BB61584B5A688F
:1004800080235B0213407B61BB699B0C0233BB6121
:100490007B69002B05D1BB69534A5A437B681A60BC
:1004A00013E04F4BDA6A0F23134001333B614D4891
:1004B000396901F01BFE031CBA695A437B681A6054
:1004C00003E07B68474A1A60C046454B5A68F023F0
:1004D0001340FB61FB691B09FB61444AFB69D318AC
:1004E0001B78DBB2FB607B681A68FB68DA407B68CC
:1004F0005A603B4B5A68E023DB001340FB61FB6909
:100500001B0AFB61394AFB69D3181B78DBB2FB601D
:100510007B685A68FB68DA407B689A60304B1A6BDC
:1005200080235B00134003D17B68314ADA6010E01E
:100530002B4B5A688023DB01134005D17B689B68F5
:100540005A087B68DA6004E07B689B689A087B68DD
:10055000DA60234B1A6B4023134003D17B68254A92
:100560001A6103E07B68802212021A611C4B1A6B2D
:100570001023134003D17B681A4A5A6103E07B6859
:100580001A687B685A61164B1A6B0323134004D117
:100590007B689A687B689A611EE0114B1A6B032393
:1005A0001340012B04D17B681A687B689A6113E0C1
:1005B0000B4B1A6B03231340022B04D17B68802260
:1005C00012029A6108E0064B1A6B03231340032BB7
:1005D00002D17B68034A9A61BD4608B080BDC0461F
:1005E0000010024000127A0000093D0000000020C7
:1005F000809FD5001280000080B582B000AF786087
:100600000A1CFB1C1A70FB1C1B78002B06D0084B25
:10061000074A51697A680A435A6106E0044B044A62
:1006200052697968C9430A405A61BD4602B080BD2B
:100630000010024080B582B000AF78600A1CFB1C3D
:100640001A70FB1C1B78002B06D0084B074AD16997
:100650007A680A43DA6106E0044B044AD269796891
:10066000C9430A40DA61BD4602B080BD00100240B5
:1006700080B588B000AF8023DB02181C0121FFF792
:10068000BBFF8023DB01181C0121FFF7D3FF3B1DBB
:10069000802252011A603B1D01221A713B1D032268
:1006A0005A713B1D00229A713B1D0122DA714E4A9C
:1006B0003B1D101C191C00F02BFF3B1D80229201DA
:1006C0001A603B1D02221A713B1D03225A713B1D09
:1006D00000229A713B1D0122DA71434A3B1D101C16
:1006E000191C00F015FF3B1D802212021A603B1DF1
:1006F00002221A713B1D03225A713B1D00229A717E
:100700003B1D0122DA71384A3B1D101C191C00F0F8
:10071000FFFE3B1D8022D2011A603B1D02221A718E
:100720003B1D03225A713B1D00229A713B1D012281
:10073000DA712D4A3B1D101C191C00F0E9FE2A4BF2
:10074000181C0D21002200F097FF274B181C0F21C9
:10075000002200F091FF244B181C0E21002200F013
:100760008BFF3B1C0C3300221A803B1C0C33822273
:1007700052005A803B1C0C33E022D2009A803B1C72
:100780000C330022DA803B1C0C3300221A813B1C04
:100790000C33802292005A813B1C0C3310229A8128
:1007A0003B1C0C330022DA813B1C0C3307221A82DB
:1007B0000E4A3B1C0C33101C191C00F07BFD0B4A2D
:1007C00080235B01101C191C00F016FE074B181C3F
:1007D000002100F057FE054B181C012100F0ECFD34
:1007E000BD4608B080BDC046000400480038004047
:1007F00080B582B000AF021CFB1D1A70C046104BC2
:10080000181C022100F060FE031C002BF7D00C4ADC
:10081000FB1D1B78101C191C00F00CFEC046084B79
:10082000181C012100F050FE031C002BF7D0044BD4
:10083000181C00F015FE031C181CBD4602B080BD3C
:100840000038004090B585B000AF021CFB1D1A7047
:100850003B1C0F3300221A70FB1D1A781F23134014
:100860001A2B14DCFB1D1B785B09DBB21A1C03235B
:100870001A40164B1B789A4209D0FB1D1B785B0966
:10088000DAB203231340DBB2181C00F0DFF8104B80
:10089000802252011A85FB1D1A781F231340DBB2F8
:1008A000181CFFF7A5FF3C1C0F340020FFF7A0FF2A
:1008B000031C2370064B802252019A613B1C0F33AC
:1008C0001B78181CBD4605B090BDC0462C0000200A
:1008D0000004004890B585B000AF021CFB1D1A70E3
:1008E0003B1C0F3300221A70FB1D1A781F23134084
:1008F0001A2B14DCFB1D1B785B09DBB21A1C0323CB
:100900001A40194B1B789A4209D0FB1D1B785B09D2
:10091000DAB203231340DBB2181C00F097F8134B34
:10092000802252011A85FB1D1A781F231340DBB267
:10093000181CFFF75DFF3C1C0F340020FFF758FF29
:10094000031C23703C1C0F340020FFF751FF031CD5
:100950002370064B802252019A613B1C0F331B7897
:10096000181CBD4605B090BD2C00002000040048B6
:1009700080B582B000AF0A1CFB1D011C1970BB1DA5
:100980001A70FB1D1A781F2313401A2B14DCFB1D51
:100990001B785B09DBB21A1C03231A40154B1B782A
:1009A0009A4209D0FB1D1B785B09DAB2032313407E
:1009B000DBB2181C00F04AF80F4B802252011A8556
:1009C000FB1D1B781A1C1F231340DBB2402213436C
:1009D000DBB2DBB2181CFFF70BFFBB1D1B78181C2A
:1009E000FFF706FF044B802252019A61BD4602B018
:1009F00080BDC0462C0000200004004880B582B0B5
:100A000000AFFB1D1870BB1D19707B1D1A70C0460E
:100A1000EA20FFF75FFF031C1A1C01231340F7D1E4
:100A2000FB1D1B78D420191CFFF7A2FF7B1D1B7830
:100A3000D620191CFFF79CFFBB1D1B78D720191C63
:100A4000FFF796FFBD4602B080BDC04680B582B0BC
:100A500000AF021CFB1D1A70124B802252011A8536
:100A6000BF20FFF7C5FE0320FFF7C2FE0D4B80221B
:100A700052019A610B4B802252011A859F20FFF789
:100A8000B7FEFB1D1B78181CFFF7B2FE054B80223A
:100A900052019A61044BFA1D12781A70BD4602B0D9
:100AA00080BDC046000400482C00002080B584B002
:100AB00000AF78600A1CBB1C1A80154B80225201C3
:100AC0001A853A20FFF794FE3B1C0E3300221A8051
:100AD00010E00020FFF78CFE031C1A1C7B681A70C4
:100AE0007B6801337B603B1C0E333A1C0E3212884C
:100AF00001321A803A1C0E32BB1C12881B889A42A3
:100B0000E7D3034B802252019A61BD4604B080BDF9
:100B10000004004890B583B000AFFB1D00221A709E
:100B20000B4B802252011A853A20FFF761FEFC1D13
:100B30000020FFF75DFE031C2370054B802252014D
:100B40009A61FB1D1B78181CBD4603B090BDC046C2
:100B50000004004880B584B000AF78600A1CBB1C5C
:100B60001A80144B802252011A857A20FFF740FE2A
:100B70003B1C0E3300221A800EE07B681B787A68DB
:100B800001327A60181CFFF733FE3B1C0E333A1C0F
:100B90000E32128801321A803A1C0E32BB1C1288A7
:100BA0001B889A42E9D3034B802252019A61BD46C9
:100BB00004B080BD0004004880B500AF064B802221
:100BC00052011A85FF20FFF713FE034B80225201CA
:100BD0009A61BD4680BDC0460004004880B582B021
:100BE00000AF0A1CFB1D011C1970BB1D1A70FB1DF8
:100BF0001A781F2313401A2B14DCFB1D1B785B098A
:100C0000DBB21A1C03231A40154B1B789A4209D0F9
:100C1000FB1D1B785B09DAB203231340DBB2181CFF
:100C2000FFF714FF0F4B802252011A85FB1D1B7822
:100C30001A1C1F231340DBB2802252421343DBB243
:100C4000DBB2181CFFF7D4FDBB1D1B78181CFFF787
:100C5000CFFD044B802252019A61BD4602B080BD97
:100C60002C0000200004004880B582B000AF0A1CB0
:100C7000FB1D011C1970BB1D1A70FB1D1A781F2368
:100C800013401A2B14DCFB1D1B785B09DBB21A1C0A
:100C900003231A40154B1B789A4209D0FB1D1B7881
:100CA0005B09DAB203231340DBB2181CFFF7CEFE58
:100CB0000F4B802252011A85FB1D1B781A1C1F2323
:100CC0001340DBB2602252421343DBB2DBB2181C8A
:100CD000FFF78EFDBB1D1B78181CFFF789FD044B29
:100CE000802252019A61BD4602B080BD2C000020D6
:100CF0000004004880B584B000AF7860FFF75CFF67
:100D00001F20C021FFF734FE1E208021FFF730FE98
:100D10001C200021FFF72CFE1B20C021FFF728FE1E
:100D200036200021FFF724FE37200021FFF720FEA8
:100D300004200021FFF71CFE05201A21FFF718FEF2
:100D400006200021FFF714FE07202021FFF710FEE8
:100D500008200021FFF70CFE09200021FFF708FE04
:100D60000A20FF21FFF704FE0B201921FFF700FEE8
:100D700000200021FFF7FCFD01200021FFF7F8FD16
:100D80000C200021FFF7F4FD0D200021FFF7F0FDFE
:100D90003820A121FFF7ECFD77200021FFF7E8FDC7
:100DA00075200021FFF7E4FD67200021FFF7E0FD3B
:100DB000C0461D20FFF746FD031C1A1C01231340EB
:100DC000F7D0EA200021FFF7D3FDD2200021FFF762
:100DD000CFFDD1200021FFF7CBFDC0200D21FFF773
:100DE000C7FDC1200021FFF7C3FDC2203221FFF75C
:100DF000BFFDC3200021FFF7BBFDCD201021FFF771
:100E0000B7FDCA20EE21FFF7B3FDCB200521FFF788
:100E1000AFFDC4201221FFF7ABFDC6201221FFF762
:100E2000A7FDC7200C21FFF7A3FD7B6805331B78C6
:100E3000E120191CFFF79CFD7B6804331B78E02040
:100E4000191CFFF795FD7B6803331B78E320191C01
:100E5000FFF78EFD7B6802331B78E220191CFFF739
:100E600087FD7B6801331B78E520191CFFF780FDA7
:100E70007B681B78E420191CFFF77AFD0020002115
:100E80000022FFF7BBFD102001210022FFF7B6FD75
:100E9000142002213A22FFF7B1FD12200021002286
:100EA000FFF7ACFD1F201421FFF762FD074B002266
:100EB0001A703B1C0C3300221A703B1C0C33181C9C
:100EC0000121FFF747FEBD4604B080BD2C00002085
:100ED00080B582B000AF8023DB02181C0121FFF730
:100EE0008BFB3B1C181C00F0AFFB3B1C8022D2008C
:100EF0001A603B1C01221A713B1C01225A71094ADB
:100F00003B1C101C191C00F003FB3B1C802212012F
:100F10001A60044A3B1C101C191C00F0F9FABD466B
:100F200002B080BD0004004880B584B000AF3A1C18
:100F30000832174B111C1A1C0623081C111C1A1C02
:100F400001F07EF93A1D134B111C1A1C0423081CD6
:100F5000111C1A1C01F074F93A1C0F4B111C1A1CBD
:100F60000423081C111C1A1C01F06AF9FFF7B0FFDA
:100F7000FFF77EFBFFF7E0F901F02AF8C120FFF749
:100F800039FA064B0020191C00F00CFEF9E7C046A8
:100F9000A0240008A8240008AC2400083400002085
:100FA00080B582B000AF7860396072B6FEE7C046A7
:100FB00080B500AFBD4680BD002103E00A4B5B5801
:100FC0004350043109480A4B42189A42F6D3094A61
:100FD00002E0002313600432074B9A42F9D300F079
:100FE0002BFDFFF7A1FF7047D4240008000000206C
:100FF0002800002028000020FC010020FEE700005F
:1010000080B586B000AF00237B61524B1B68002B7C
:1010100000D08CE0504B1B685A1C4F4B1A604E4B53
:101020001B683B613B69002B17D14C4B1B681B684D
:10103000002B01D072B6FEE7484B1B68FB60484BA3
:101040001A68464B1A60464BFA681A60454B1B6893
:101050005A1C444B1A6000F00BF9434B1B683A6969
:101060009A4250D300E0C0463C4B1B681B68002BE3
:1010700001D1012300E00023002B04D03A4B0122D0
:1010800052421A603FE0354B1B68DB68DB68BB608F
:10109000BB685B687B603A697B689A4203D2324BDB
:1010A0007A681A602FE0BB680433181C00F054FB08
:1010B000BB689B6A002B04D0BB681833181C00F077
:1010C0004BFBBB68DA6A294B1B689A4203D9BB68A1
:1010D000DA6A264B1A60BB68DA6A131C9B009B18FD
:1010E0009B00234A9A18BB680433101C191C00F09B
:1010F00011FBBB68DA6A1F4B1B68DB6A9A42B2D3EA
:1011000001237B61AFE71B4B1B68DA6A1849131C8C
:101110009B009B189B005B58012B01D901237B612D
:10112000154B1B68002B09D1FFF742FF06E0124B5D
:101130001B685A1C104B1A60FFF73AFF0F4B1B68D5
:10114000002B01D001237B617B69181CBD4606B0D2
:1011500080BDC046F8010020DC0100209001002085
:1011600094010020F001002010000020E001002088
:101170000401002000010020E8010020EC01002013
:1011800080B582B000AF344B1B68002B03D0334BCB
:1011900001221A605CE0314B00221A60304B1B6860
:1011A0001A682F4B1B681B6B9A4208D82C4B1A6885
:1011B0002B4B1B683433101C191CFFF7F1FE284B16
:1011C0001B681A6B274B101C191C142200F0DEFF41
:1011D000031C002B14D0224B1A68214B1B6834339C
:1011E000101C191CFFF7DCFE0AE01F4B1B68002BCC
:1011F00001D172B6FEE71C4B1B685A1E1A4B1A60CF
:10120000194B1A681949131C9B009B189B005B58CB
:10121000002BEAD0144B1A68131C9B009B189B00F0
:10122000124A9B187B607B685B685A687B685A60CF
:101230007B685A687B6808339A4204D17B685B6894
:101240005A687B685A607B685B68DA68044B1A608E
:10125000BD4602B080BDC046F8010020EC01002070
:1012600000010020B8240008E00100200401002053
:1012700080B582B000AF0D4B1B681B68002B01D1FD
:10128000012300E00023002B04D0094B012252422D
:101290001A6008E0054B1B68DB68DB687B607B68D5
:1012A0005A68034B1A60BD4602B080BD9001002011
:1012B0001000002080B584B000AF786039603B1C1E
:1012C0000E3300221A803B1C0E337A6812881A8073
:1012D0003B1C0E333A1C0E321188C12292010A4087
:1012E0001A803B681A883B68DB8913439AB23B68D3
:1012F000DB8813439AB23B681B8913439AB23B685D
:101300005B8913439AB23B689B89134399B23B1C98
:101310000E333A1C0E3212880A431A807B683A1C3C
:101320000E3212881A803B1C0E337A6892881A801B
:101330003B1C0E333A1C0E3211881D4A0A401A809B
:101340003B6899883B1C0E333A1C0E3212880A43C4
:101350001A807B683A1C0E3212889A803B681A8A7F
:101360007B681A823B1C0E337A6812881A803B1CF9
:101370000E333A1C0E32128804218A431A803B68CD
:1013800059883B1C0E333A1C0E3212880A431A80CD
:101390007B683A1C0E3212881A807B689B8B9AB24B
:1013A000044B13409AB27B689A83BD4604B080BD5B
:1013B000FFF0FFFFFFF7FFFF80B582B000AF78605E
:1013C0000A1CFB1C1A70FB1C1B78002B08D07B68C6
:1013D0001B889BB2402213439AB27B681A8007E0B5
:1013E0007B681B889BB2402293439AB27B681A8029
:1013F000BD4602B080BDC04680B582B000AF786007
:101400000A1CBB1C1A807B689B889AB2084B13404D
:101410009AB27B689A807B689B889AB2BB1C1B88B7
:1014200013439AB27B689A80BD4602B080BDC04625
:10143000FFEFFFFF80B584B000AF78600A1CFB1C93
:101440001A700023FB607B68FB60FB680C33FB6059
:10145000FB68FA1C12781A70BD4604B080BDC04605
:1014600080B584B000AF78600023FB607B68FB60D0
:10147000FB680C33FB60FB681B78DBB2181CBD46B5
:1014800004B080BD80B582B000AF78600A1CFB1C40
:101490001A70FB1C1B78002B09D07B681B889BB241
:1014A0008022920113439AB27B681A8007E07B681E
:1014B0001B889AB2034B13409AB27B681A80BD46D0
:1014C00002B080BDFFDFFFFF80B584B000AF786061
:1014D0000A1CBB1C1A803B1C0F3300221A707B684D
:1014E0001B899BB2BA1C128813409BB2002B04D0FC
:1014F0003B1C0F3301221A7003E03B1C0F33002208
:101500001A703B1C0F331B78181CBD4604B080BDFD
:1015100080B586B000AF7860396000237B6100231E
:101520003B610023FB6000237B6185E07B69012236
:10153000101C9840031C3B613B681B683A691340D0
:10154000FB60FA683B699A4273D13B681B79012BB7
:1015500003D03B681B79022B38D17B689B687A6982
:1015600052000321081C9040021CD2431A407B68A1
:101570009A607B689A683B685B79191C7B695B00A1
:10158000081C9840031C1A437B689A607B689B8800
:101590009BB27A6992B20121081C9040021C92B25F
:1015A000D24392B213409AB27B689A807B689B8840
:1015B0009AB23B689B79191C7B699BB2081C9840C6
:1015C000031C9BB213439AB27B689A807B681B68AA
:1015D0007A6952000321081C9040021CD2431A4031
:1015E0007B681A607B681A683B681B79191C7B69E9
:1015F0005B00081C9840031C1A437B681A607B68D8
:10160000DB687A6992B252000321081C9040021CE8
:10161000D2431A407B68DA607B68DA683B68DB7922
:10162000191C7B695B00081C9840031C1A437B68EB
:10163000DA607B6901337B617B690F2B00D875E72A
:10164000BD4606B080BDC04680B582B000AF7860B0
:101650007B68084A1A607B6800221A717B68022244
:101660005A717B6800229A717B680022DA71BD464C
:1016700002B080BDFFFF000090B585B000AF78607C
:10168000BB1C19807B1C1A700023FB600023BB600D
:101690007B1C1A78BB1C198807230B409B00111C6C
:1016A00099400B1CFB60BB1C1B88DB089BB21A1CFF
:1016B000BB1C1B88DB089BB2191C7B6808318900A6
:1016C000CB58B91C08880721014089000F20041C51
:1016D0008C40211CC94319407B6808329200D150CC
:1016E000BB1C1B88DB089BB21A1C7B68083292006B
:1016F000D258FB681343BB60BB1C1B88DB089BB242
:101700001A1C7B6808329200B968D150BD4605B0FA
:1017100090BDC04680B584B000AF786039607B680A
:101720005B68FB603B68FA685A60FB689A683B68D4
:101730009A60FB689B683A685A60FB683A689A60EE
:101740003B687A681A617B681B685A1C7B681A6060
:10175000BD4604B080BDC04680B584B000AF78609F
:101760007B681B69FB607B685B687A6892689A603B
:101770007B689B687A6852685A60FB685A687B6825
:101780009A4203D17B689A68FB685A607B680022A2
:101790001A61FB681B685A1EFB681A60FB681B68AD
:1017A000181CBD4604B080BD80B58CB000AF786019
:1017B00039600023FB620023BB6200237B627B68ED
:1017C0001B680122191C91430A1C7B681A607B6804
:1017D0005B687B627A6A474B13407B623B689B681D
:1017E0007A6A13437B627B687A6A5A607B681B68FB
:1017F0007B627A6A404B13407B623B685A683B6865
:10180000DB681A433B681B6913437A6A13437B62A4
:101810007B687A6A1A607B689B687B627A6A374B5E
:1018200013407B623B685B697A6A13437B627B6827
:101830007A6A9A603B1C0833181CFEF7F7FD7A6839
:101840002F4B9A4204D13B1C08339B69BB6203E0D7
:101850003B1C08339B68BB627B681A6880231B02B1
:10186000134014D0BB6A5A003B681B68101C191C3B
:1018700000F03CFC031CFB62BB6A5A003B681B681F
:10188000101C191C00F076FC0B1C7B6210E03B68FE
:101890001B68B86A191C00F029FC031CFB623B683A
:1018A0001B68BA6A101C191C00F064FC0B1C7B62DC
:1018B0003B681B685A087B6A9A4202D8FB6A01336C
:1018C000FB627B681A6880231B0213400AD0FA6A05
:1018D0000F2313405B087B62FA6A0A4B1A407B6A4B
:1018E0001343FB62FB6A9AB27B689A81BD460CB0D7
:1018F00080BDC046FFCFFFFFF3E9FFFFFFFCFFFF06
:1019000000380140F0FF000080B582B000AF786081
:101910000A1CFB1C1A70FB1C1B78002B06D07B6872
:101920001B6801221A437B681A6007E07B681B680A
:101930000122191C91430A1C7B681A60BD4602B043
:1019400080BDC04680B582B000AF78600A1CBB1C69
:101950001A80BB1C1B88DB05DB0D9AB27B681A85DD
:10196000BD4602B080BDC04680B584B000AF78608F
:1019700039603B1C0F3300221A707B68DB693A68C0
:10198000134004D03B1C0F3301221A7003E03B1CB0
:101990000F3300221A703B1C0F331B78181CBD46F6
:1019A00004B080BD80B500AFBD4680BDEFF31080B0
:1019B00072B670470023181C80F310887047C04629
:1019C000EFF309800E4B1A6820381060F0C04446CF
:1019D0004D4656465F46F0C008B572B6FFF7D0FBDD
:1019E00062B60CBC116808681030F0C8A046A94661
:1019F000B246BB4680F309882038F0C81847C04675
:101A00000001002080B582B000AFFFF7CFFF031CBC
:101A10007B60FFF7F5FA031C002B03D0054B8022F7
:101A200052051A607B68181CFFF7C6FFBD4602B05E
:101A300080BDC04604ED00E080B500AF1B4B1B4AE3
:101A4000126801210A431A60184B184A5168184A53
:101A50000A405A60154B154A1168164A0A401A6026
:101A6000124B124A1168144A0A401A600F4B0F4A6F
:101A70005168124A0A405A600C4B0C4AD26A0F2134
:101A80008A43DA62094B094A116B0D4A0A401A630C
:101A9000064B064A526B01218A435A63034B0022CC
:101AA0009A6000F00FF8BD4680BDC04600100240AD
:101AB0000CB8FFF8FFFFF6FEFFFFFBFFFFFFC0FFC4
:101AC000ACFEFFFF80B582B000AF00237B60002337
:101AD0003B60314B304A1268802149020A431A6048
:101AE0002D4B1A6880239B0213403B607B680133B7
:101AF0007B603B68002B04D17A68A023DB009A420C
:101B0000EED1254B1A6880239B02134002D001239B
:101B10003B6001E000233B603B68012B38D11F4B49
:101B200011221A601C4B1C4A52685A601A4B1A4AFE
:101B300052685A60184B184A5168194A0A405A604C
:101B4000154B154A5268882149030A435A60124BC3
:101B5000114A1268802149040A431A60C0460E4B9C
:101B60001A6880239B041340F9D00B4B0A4A526831
:101B700003218A435A60084B074A526802210A43EC
:101B80005A60C046044B5A680C231340082BF9D105
:101B9000BD4602B080BDC046001002400020024099
:101BA000FFFFC0FF90B587B000AF786039603B1C85
:101BB000173300221A703C1C14343B68181C642133
:101BC000FEF7C8FA031C23803B1C14331B88002B30
:101BD00029D03B683B613B699A89C123DB009A426B
:101BE0000DD13B68FB60FB689A8A80235B009A42B8
:101BF00019D1FB68181C00F089F9012314E03B6936
:101C00009B89082B0FD13B68BB60BB68DB7D012B38
:101C100009D13A683B1C14331B88101C191C00F0B6
:101C200007F8012300E00023181CBD4607B090BD53
:101C300090B585B000AF78600A1CBB1C1A807A682A
:101C40002223D35C082B00D082E07A682223002173
:101C5000D1547B6800229A847B6800221A837A68B8
:101C60007B680633101C191C062200F0E9FA7B6819
:101C70009A1D394B111C1A1C0623081C111C1A1C16
:101C800000F0DEFA7B681A1C1E327B681A33101CC7
:101C9000191C042200F0D4FA7B681A1C1A322F4B4C
:101CA000111C1A1C0423081C111C1A1C00F0C8FA71
:101CB0007B681A1C2232BB1C1B88223B9BB23C1C3B
:101CC0000E340020111C1A1C00F04AF8031C23805B
:101CD0003B1C0C333A1C0E321288D2431A803B1C38
:101CE0000C331B881B029AB23B1C0C331B881B0A4B
:101CF0009BB29BB213439BB29AB27B689A847B6877
:101D00000E333C1C0A340020191C142200F028F861
:101D1000031C23803B1C08333A1C0A321288D2432E
:101D20001A803B1C08331B881B029AB23B1C0833E9
:101D30001B881B0A9BB29BB213439BB29AB27B686F
:101D40001A837A68BB1C1B88101C191CFEF7BAF991
:101D5000BD4605B090BDC046CC2400081C00002044
:101D600080B586B000AF3960BB1D011C19803B1DDA
:101D70001A803B687B613B1D1B88013B3A68D31886
:101D80003B6122E07B691B781B0299B27B690133BE
:101D90001B781A1C3B1C0E338A181A80BB1DB91DF8
:101DA0003A1C0E32098812888A181A80BA1D3B1C08
:101DB0000E3312881B889A4204D2BB1DBA1D1288AA
:101DC00001321A807B6902337B617A693B699A42EE
:101DD000D8D37A693B699A421AD17B691B781A1C5D
:101DE0003B1C0E3312021A80BB1DB91D3A1C0E3269
:101DF000098812888A181A80BA1D3B1C0E33128873
:101E00001B889A4204D2BB1DBA1D128801321A8067
:101E1000BB1D1B88181CBD4606B080BD80B58EB0AA
:101E200000AF7860391C0C310622364B89181A1C19
:101E30000623081C111C1A1C00F002FA3B1C0C3370
:101E4000181CFF21062200F09DFA3B1C0C33C12216
:101E5000D2009A813B1C0C3380225200DA813B1C59
:101E60000C3308221A823B1C0C3306229A743B1C4A
:101E70000C330422DA743B1C0C33802252009A8209
:101E80003B1C0C332033181C0021062200F07AFA88
:101E9000391C0C3116221B4B89181A1C0623081CEE
:101EA000111C1A1C00F0CCF9391C0C3126227B685D
:101EB00089181A1C0423081C111C1A1C00F0C0F9F4
:101EC0007A68114B101C191C042200F05FF9031CE6
:101ED000002B08D13B1C0C331C33181C002104229E
:101EE00000F050FA04E03B1C0C33074A1268DA6138
:101EF0003B1C0C33181C2A21FEF7E4F8BD460EB03B
:101F000080BDC046CC2400081C00002080B582B0F3
:101F100000AF78607B681A1C26322B4B101C191CF2
:101F2000042200F033F9031C002B4AD1C320FEF732
:101F300061FA7A687B680633101C191C062200F0CF
:101F40007FF97B689A1D214B111C1A1C0623081C63
:101F5000111C1A1C00F074F97B681A1C20327B6873
:101F60001633101C191C062200F06AF97B681A1C33
:101F70001632164B111C1A1C0623081C111C1A1CA5
:101F800000F05EF97B681A1C26327B681C33101C3B
:101F9000191C042200F054F97B681A1C1C320A4BED
:101FA000111C1A1C0423081C111C1A1C00F048F9EF
:101FB0007B68802292009A827B68181C2A21FEF797
:101FC00081F8BD4602B080BD1C000020CC24000872
:101FD00080B58CB000AF3F4B181CFEF78BFE3E4B1C
:101FE000181CFFF71BFF3B1C2E3300221A8022E037
:101FF0003B1D181C2A21FEF7ADF8031C002B13D043
:102000003B1D9A89C123DB009A420DD13B1D1A1C4E
:102010001C32314B101C191C042200F0B7F8031CB1
:10202000002B01D1002350E03B1C2E333A1C2E32F2
:10203000128801321A803B1C2E331A88274B9A4291
:10204000D6D9274B181CFFF7E9FE3B1C2E33002284
:102050001A8033E03B1D181C2A21FEF77BF8031C75
:10206000002B24D03B1D9A89C123DB009A421ED14C
:102070003B1D9A8A80239B009A4218D13B1D1A1C53
:102080001C32174B101C191C042200F07FF8031C93
:10209000002B0CD1134A3B1C1A33111C1A1C0623AB
:1020A000081C111C1A1C00F0CBF801230DE03B1C8E
:1020B0002E333A1C2E32128801321A803B1C2E33EA
:1020C0001A88094B9A42C5D90023181CBD460CB08A
:1020D00080BDC046CC2400081C000020FE0F00007C
:1020E0002000002014000020FE5F0000002934D0F2
:1020F0000123002210B488422CD301242407A142DA
:1021000004D2814202D209011B01F8E7E400A14296
:1021100004D2814202D249005B00F8E7884201D331
:10212000401A1A434C08A04202D3001B5C08224309
:102130008C08A04202D3001B9C082243CC08A0427A
:1021400002D3001BDC082243002803D01B0901D066
:102150000909E3E7101C10BC7047002801D00020DB
:10216000C04307B4024802A14018029003BDC04614
:10217000190000000029F0D003B5FFF7B9FF0EBC2D
:102180004243891A1847C0467047C046F0B5032A33
:1021900032D90B1C03439C0730D1151F6C07E60F87
:1021A000B4460F680668031D0C1DBE4224D12A1ECA
:1021B000032A1FD96046002808D0211C181C056876
:1021C0000E6804330434B54211D015E0211C181CEC
:1021D00007680D6804330434AF420DD1211C181C6C
:1021E00006680F68043A04330434BE4204D1043A4A
:1021F000032AEBD8211C181C002A1ED004780D7865
:10220000AC420AD1431C8218D01AC60712D501313C
:102210001C780D780133AC420CD0601B0EE01C78AA
:102220004D785F1CAC42F8D15C787578711C7B1CD2
:10223000AC42F2D14E1C9342F1D10020F0BDC04619
:10224000F0B54F464646C0B40F2A72D90B1C034363
:102250009C0700D090E0171C103F3C090134270177
:102260000C683B1C0460103BDE064B68CD194360D4
:102270008C68F60F8460CB68041CC3600B1C1033A1
:1022800010349D4227D0002E0BD0196821605E6863
:1022900066609968A160DE681033E66010349D4284
:1022A00019D0196821605E6866609968A160DE686F
:1022B000191CE6601B69261C23614C6974618B69DB
:1022C000B361CC691031F4610B1C1036341C10332F
:1022D00010349D42E5D13F180F21B8461140032923
:1022E0004DD904398E08B3000433EC18A446043BDE
:1022F0002C1C5F0708CC4146B14608C1FE0F64455F
:102300000FD0002E03D080CC80C1644509D0271C9B
:1023100008CF0E1C08C664684C603C1D311D644526
:10232000F5D1494601318E000327AD193A404644A4
:1023300001E00D1C061C002A1AD02F78B218F343B6
:10234000D1180124377001360C40013596420FD068
:10235000002C05D02B78013533700136964207D01A
:10236000297831706C780235747002369642F7D154
:102370000CBC90469946F0BD061C0D1CDDE73E1CCA
:102380000A1CD8E7F0B5830700D181E0541E002A6B
:102390007DD0CDB2031C0326E70711D5431C057081
:1023A000334211D01D700133941E33420CD0621E93
:1023B000002C6CD01D700133141C334204D0013C3E
:1023C0001D7001333342F2D1032C49D9FF220A4058
:1023D00017023A4315042A430F2C5CD9261C103EE1
:1023E000370901373D015E19103DEF061A605A604A
:1023F0009A60DA601033FD0F9E4213D0002D06D094
:102400001A605A609A60DA6010339E420AD01A60ED
:102410005A609A60DA601A615A619A61DA6120330F
:102420009E42F4D10F231C40351C331C032C17D9BA
:10243000261FB7080137BE00AB19043E770704C555
:10244000FE0F9D420AD0002E02D004C59D4205D049
:102450002F1C04C76A603D1D9D42F9D10322144020
:10246000002C14D01C19DD43C9B26619012719705C
:1024700001333E40A3420AD0002E03D0197001332D
:10248000A34204D0197059700233A342FAD1F0BDAF
:10249000031C141C98E71D1CCAE7C046C0A80064B2
:1024A00000AABBCCDE020000C0A8006FC0A80001DB
:1024B00049444C4500000000A5A5A5A5A5A5A5A5D6
:1024C000A5A5A5A5A5A5A5A5A5A5A5A500AABBCC1F
:0424D000DE02000028
:1024D40000000000010203040102030406070809C6
:1024E400FFFFFFFFFFFFFFFFFFFF0000C0A8006F1B
:0824F400C0A80001C0A800010E
:0400000508000000EF
:00000001FF
